{
  "_format": "hh-sol-artifact-1",
  "contractName": "KETSBlockchain",
  "sourceName": "contracts/KETSBlockchain.sol",
  "abi": [
    {
      "inputs": [],
      "stateMutability": "nonpayable",
      "type": "constructor"
    },
    {
      "anonymous": false,
      "inputs": [
        {
          "indexed": true,
          "internalType": "address",
          "name": "bidder",
          "type": "address"
        },
        {
          "indexed": false,
          "internalType": "uint256",
          "name": "amount",
          "type": "uint256"
        }
      ],
      "name": "CreditAuctioned",
      "type": "event"
    },
    {
      "anonymous": false,
      "inputs": [
        {
          "indexed": true,
          "internalType": "address",
          "name": "from",
          "type": "address"
        },
        {
          "indexed": true,
          "internalType": "address",
          "name": "to",
          "type": "address"
        },
        {
          "indexed": false,
          "internalType": "uint256",
          "name": "amount",
          "type": "uint256"
        }
      ],
      "name": "CreditTraded",
      "type": "event"
    },
    {
      "anonymous": false,
      "inputs": [
        {
          "indexed": true,
          "internalType": "address",
          "name": "industry",
          "type": "address"
        },
        {
          "indexed": false,
          "internalType": "uint256",
          "name": "amount",
          "type": "uint256"
        },
        {
          "indexed": false,
          "internalType": "string",
          "name": "method",
          "type": "string"
        }
      ],
      "name": "CreditsIssued",
      "type": "event"
    },
    {
      "anonymous": false,
      "inputs": [
        {
          "indexed": true,
          "internalType": "address",
          "name": "industry",
          "type": "address"
        },
        {
          "indexed": false,
          "internalType": "string",
          "name": "name",
          "type": "string"
        }
      ],
      "name": "IndustryRegistered",
      "type": "event"
    },
    {
      "anonymous": false,
      "inputs": [
        {
          "indexed": true,
          "internalType": "address",
          "name": "owner",
          "type": "address"
        },
        {
          "indexed": false,
          "internalType": "string",
          "name": "projectName",
          "type": "string"
        }
      ],
      "name": "OffsetProjectRegistered",
      "type": "event"
    },
    {
      "anonymous": false,
      "inputs": [
        {
          "indexed": true,
          "internalType": "address",
          "name": "verifier",
          "type": "address"
        },
        {
          "indexed": false,
          "internalType": "string",
          "name": "name",
          "type": "string"
        }
      ],
      "name": "VerifierRegistered",
      "type": "event"
    },
    {
      "inputs": [],
      "name": "auctionPrice",
      "outputs": [
        {
          "internalType": "uint256",
          "name": "",
          "type": "uint256"
        }
      ],
      "stateMutability": "view",
      "type": "function"
    },
    {
      "inputs": [
        {
          "internalType": "address",
          "name": "_to",
          "type": "address"
        },
        {
          "internalType": "uint256",
          "name": "industryIndexFrom",
          "type": "uint256"
        },
        {
          "internalType": "uint256",
          "name": "industryIndexTo",
          "type": "uint256"
        },
        {
          "internalType": "uint256",
          "name": "_amount",
          "type": "uint256"
        }
      ],
      "name": "borrowCredits",
      "outputs": [],
      "stateMutability": "nonpayable",
      "type": "function"
    },
    {
      "inputs": [],
      "name": "creditPrice",
      "outputs": [
        {
          "internalType": "uint256",
          "name": "",
          "type": "uint256"
        }
      ],
      "stateMutability": "view",
      "type": "function"
    },
    {
      "inputs": [],
      "name": "currentAuction",
      "outputs": [
        {
          "internalType": "uint256",
          "name": "creditsAvailable",
          "type": "uint256"
        },
        {
          "internalType": "uint256",
          "name": "minBidPrice",
          "type": "uint256"
        },
        {
          "internalType": "bool",
          "name": "isActive",
          "type": "bool"
        }
      ],
      "stateMutability": "view",
      "type": "function"
    },
    {
      "inputs": [
        {
          "internalType": "address",
          "name": "_industryAddress",
          "type": "address"
        },
        {
          "internalType": "uint256",
          "name": "industryIndex",
          "type": "uint256"
        },
        {
          "internalType": "uint256",
          "name": "_credits",
          "type": "uint256"
        }
      ],
      "name": "freeAllocation",
      "outputs": [],
      "stateMutability": "nonpayable",
      "type": "function"
    },
    {
      "inputs": [
        {
          "internalType": "address",
          "name": "_owner",
          "type": "address"
        }
      ],
      "name": "getIndustriesByOwner",
      "outputs": [
        {
          "internalType": "string[]",
          "name": "names",
          "type": "string[]"
        },
        {
          "internalType": "bool[]",
          "name": "isRegistered",
          "type": "bool[]"
        },
        {
          "internalType": "bool[]",
          "name": "isEITE",
          "type": "bool[]"
        }
      ],
      "stateMutability": "view",
      "type": "function"
    },
    {
      "inputs": [
        {
          "internalType": "address",
          "name": "",
          "type": "address"
        }
      ],
      "name": "ghgEmissions",
      "outputs": [
        {
          "internalType": "uint256",
          "name": "CO2",
          "type": "uint256"
        },
        {
          "internalType": "uint256",
          "name": "CH4",
          "type": "uint256"
        },
        {
          "internalType": "uint256",
          "name": "N2O",
          "type": "uint256"
        },
        {
          "internalType": "uint256",
          "name": "HFCs",
          "type": "uint256"
        },
        {
          "internalType": "uint256",
          "name": "PFCs",
          "type": "uint256"
        },
        {
          "internalType": "uint256",
          "name": "SF6",
          "type": "uint256"
        }
      ],
      "stateMutability": "view",
      "type": "function"
    },
    {
      "inputs": [
        {
          "internalType": "address",
          "name": "",
          "type": "address"
        },
        {
          "internalType": "uint256",
          "name": "",
          "type": "uint256"
        }
      ],
      "name": "industries",
      "outputs": [
        {
          "internalType": "string",
          "name": "name",
          "type": "string"
        },
        {
          "internalType": "address",
          "name": "industryAddress",
          "type": "address"
        },
        {
          "internalType": "uint256",
          "name": "emissions",
          "type": "uint256"
        },
        {
          "internalType": "uint256",
          "name": "creditsOwned",
          "type": "uint256"
        },
        {
          "internalType": "string",
          "name": "creditType",
          "type": "string"
        },
        {
          "internalType": "bool",
          "name": "isRegistered",
          "type": "bool"
        },
        {
          "internalType": "bool",
          "name": "isEITE",
          "type": "bool"
        }
      ],
      "stateMutability": "view",
      "type": "function"
    },
    {
      "inputs": [
        {
          "internalType": "address",
          "name": "",
          "type": "address"
        }
      ],
      "name": "offsetProjects",
      "outputs": [
        {
          "internalType": "string",
          "name": "projectName",
          "type": "string"
        },
        {
          "internalType": "address",
          "name": "owner",
          "type": "address"
        },
        {
          "internalType": "uint256",
          "name": "creditsEarned",
          "type": "uint256"
        },
        {
          "internalType": "uint256",
          "name": "incentive",
          "type": "uint256"
        },
        {
          "internalType": "bool",
          "name": "isApproved",
          "type": "bool"
        }
      ],
      "stateMutability": "view",
      "type": "function"
    },
    {
      "inputs": [
        {
          "internalType": "string",
          "name": "_name",
          "type": "string"
        },
        {
          "internalType": "bool",
          "name": "_isEITE",
          "type": "bool"
        }
      ],
      "name": "registerIndustry",
      "outputs": [],
      "stateMutability": "nonpayable",
      "type": "function"
    },
    {
      "inputs": [
        {
          "internalType": "string",
          "name": "_projectName",
          "type": "string"
        }
      ],
      "name": "registerOffsetProject",
      "outputs": [],
      "stateMutability": "nonpayable",
      "type": "function"
    },
    {
      "inputs": [
        {
          "internalType": "string",
          "name": "_verifierName",
          "type": "string"
        }
      ],
      "name": "registerVerifier",
      "outputs": [],
      "stateMutability": "nonpayable",
      "type": "function"
    },
    {
      "inputs": [],
      "name": "regulator",
      "outputs": [
        {
          "internalType": "address",
          "name": "",
          "type": "address"
        }
      ],
      "stateMutability": "view",
      "type": "function"
    },
    {
      "inputs": [
        {
          "internalType": "address",
          "name": "",
          "type": "address"
        }
      ],
      "name": "stakeholders",
      "outputs": [
        {
          "internalType": "string",
          "name": "name",
          "type": "string"
        },
        {
          "internalType": "address",
          "name": "stakeholderAddress",
          "type": "address"
        }
      ],
      "stateMutability": "view",
      "type": "function"
    },
    {
      "inputs": [
        {
          "internalType": "address",
          "name": "_to",
          "type": "address"
        },
        {
          "internalType": "uint256",
          "name": "industryIndexFrom",
          "type": "uint256"
        },
        {
          "internalType": "uint256",
          "name": "industryIndexTo",
          "type": "uint256"
        },
        {
          "internalType": "uint256",
          "name": "_amount",
          "type": "uint256"
        }
      ],
      "name": "tradeCredits",
      "outputs": [],
      "stateMutability": "nonpayable",
      "type": "function"
    },
    {
      "inputs": [
        {
          "internalType": "address",
          "name": "_industry",
          "type": "address"
        },
        {
          "internalType": "uint256",
          "name": "industryIndex",
          "type": "uint256"
        },
        {
          "internalType": "uint256",
          "name": "_CO2",
          "type": "uint256"
        },
        {
          "internalType": "uint256",
          "name": "_CH4",
          "type": "uint256"
        },
        {
          "internalType": "uint256",
          "name": "_N2O",
          "type": "uint256"
        },
        {
          "internalType": "uint256",
          "name": "_HFCs",
          "type": "uint256"
        },
        {
          "internalType": "uint256",
          "name": "_PFCs",
          "type": "uint256"
        },
        {
          "internalType": "uint256",
          "name": "_SF6",
          "type": "uint256"
        }
      ],
      "name": "updateGHGEmissions",
      "outputs": [],
      "stateMutability": "nonpayable",
      "type": "function"
    },
    {
      "inputs": [
        {
          "internalType": "address",
          "name": "",
          "type": "address"
        }
      ],
      "name": "verifiers",
      "outputs": [
        {
          "internalType": "string",
          "name": "verifierName",
          "type": "string"
        },
        {
          "internalType": "address",
          "name": "verifierAddress",
          "type": "address"
        },
        {
          "internalType": "bool",
          "name": "isApproved",
          "type": "bool"
        }
      ],
      "stateMutability": "view",
      "type": "function"
    },
    {
      "inputs": [
        {
          "internalType": "address",
          "name": "_industry",
          "type": "address"
        },
        {
          "internalType": "uint256",
          "name": "industryIndex",
          "type": "uint256"
        }
      ],
      "name": "viewBorrowedCredits",
      "outputs": [
        {
          "internalType": "uint256",
          "name": "",
          "type": "uint256"
        }
      ],
      "stateMutability": "view",
      "type": "function"
    }
  ],
  "bytecode": "0x608060405268019274b259f6540000600155660997a2bce4c00060025534801561002857600080fd5b50336000806101000a81548173ffffffffffffffffffffffffffffffffffffffff021916908373ffffffffffffffffffffffffffffffffffffffff160217905550612ac4806100786000396000f3fe608060405234801561001057600080fd5b50600436106101165760003560e01c8063a8f33d6d116100a2578063ca6358cd11610071578063ca6358cd14610315578063d657273814610333578063dd8fee1414610367578063ddc58b3014610385578063e0886752146103a157610116565b8063a8f33d6d14610290578063ad37d6c0146102ac578063bb4f5a4a146102c8578063c07cfca9146102e457610116565b8063496a698d116100e9578063496a698d146101be57806356742b5a146101de5780636c824487146101fc57806383f61f361461022e57806390375df81461025e57610116565b806316cb42181461011b5780632cfed5a014610137578063332494161461015357806348f48c7b14610188575b600080fd5b61013560048036038101906101309190611cf2565b6103bd565b005b610151600480360381019061014c9190611d73565b610596565b005b61016d60048036038101906101689190611e2d565b610786565b60405161017f96959493929190611e73565b60405180910390f35b6101a2600480360381019061019d9190611f00565b6107c2565b6040516101b59796959493929190611fe6565b60405180910390f35b6101c661096b565b6040516101d593929190612063565b60405180910390f35b6101e6610990565b6040516101f3919061209a565b60405180910390f35b61021660048036038101906102119190611e2d565b610996565b604051610225939291906120b5565b60405180910390f35b61024860048036038101906102439190611f00565b610a75565b604051610255919061209a565b60405180910390f35b61027860048036038101906102739190611e2d565b610b66565b604051610287939291906122bd565b60405180910390f35b6102aa60048036038101906102a59190612309565b610e3c565b005b6102c660048036038101906102c19190612370565b6110ed565b005b6102e260048036038101906102dd9190612309565b611226565b005b6102fe60048036038101906102f99190611e2d565b611530565b60405161030c929190612426565b60405180910390f35b61031d6115fc565b60405161032a919061209a565b60405180910390f35b61034d60048036038101906103489190611e2d565b611602565b60405161035e959493929190612456565b60405180910390f35b61036f6116ed565b60405161037c91906124b0565b60405180910390f35b61039f600480360381019061039a91906124cb565b611711565b005b6103bb60048036038101906103b69190611cf2565b611988565b005b60008054906101000a900473ffffffffffffffffffffffffffffffffffffffff1673ffffffffffffffffffffffffffffffffffffffff163373ffffffffffffffffffffffffffffffffffffffff161461044b576040517f08c379a00000000000000000000000000000000000000000000000000000000081526004016104429061256a565b60405180910390fd5b60405180606001604052808281526020013373ffffffffffffffffffffffffffffffffffffffff16815260200160011515815250600560003373ffffffffffffffffffffffffffffffffffffffff1673ffffffffffffffffffffffffffffffffffffffff16815260200190815260200160002060008201518160000190805190602001906104da929190611af5565b5060208201518160010160006101000a81548173ffffffffffffffffffffffffffffffffffffffff021916908373ffffffffffffffffffffffffffffffffffffffff16021790555060408201518160010160146101000a81548160ff0219169083151502179055509050503373ffffffffffffffffffffffffffffffffffffffff167f0fd4b0ebe383a8cf2076bec6cd82045a5d19f1c6cb5afc0d2ca42a951c313ccc8260405161058b919061258a565b60405180910390a250565b600360003373ffffffffffffffffffffffffffffffffffffffff1673ffffffffffffffffffffffffffffffffffffffff1681526020019081526020016000206040518060e001604052808481526020013373ffffffffffffffffffffffffffffffffffffffff168152602001600081526020016000815260200160405180602001604052806000815250815260200160011515815260200183151581525090806001815401808255809150506001900390600052602060002090600602016000909190919091506000820151816000019080519060200190610679929190611af5565b5060208201518160010160006101000a81548173ffffffffffffffffffffffffffffffffffffffff021916908373ffffffffffffffffffffffffffffffffffffffff160217905550604082015181600201556060820151816003015560808201518160040190805190602001906106f1929190611af5565b5060a08201518160050160006101000a81548160ff02191690831515021790555060c08201518160050160016101000a81548160ff02191690831515021790555050503373ffffffffffffffffffffffffffffffffffffffff167f3265a4551bbff34dc6f6f3c994f0f1516096fd7968c8590391c7a398e31851f28360405161077a919061258a565b60405180910390a25050565b60076020528060005260406000206000915090508060000154908060010154908060020154908060030154908060040154908060050154905086565b600360205281600052604060002081815481106107de57600080fd5b906000526020600020906006020160009150915050806000018054610802906125db565b80601f016020809104026020016040519081016040528092919081815260200182805461082e906125db565b801561087b5780601f106108505761010080835404028352916020019161087b565b820191906000526020600020905b81548152906001019060200180831161085e57829003601f168201915b5050505050908060010160009054906101000a900473ffffffffffffffffffffffffffffffffffffffff16908060020154908060030154908060040180546108c2906125db565b80601f01602080910402602001604051908101604052809291908181526020018280546108ee906125db565b801561093b5780601f106109105761010080835404028352916020019161093b565b820191906000526020600020905b81548152906001019060200180831161091e57829003601f168201915b5050505050908060050160009054906101000a900460ff16908060050160019054906101000a900460ff16905087565b60088060000154908060010154908060020160009054906101000a900460ff16905083565b60015481565b60056020528060005260406000206000915090508060000180546109b9906125db565b80601f01602080910402602001604051908101604052809291908181526020018280546109e5906125db565b8015610a325780601f10610a0757610100808354040283529160200191610a32565b820191906000526020600020905b815481529060010190602001808311610a1557829003601f168201915b5050505050908060010160009054906101000a900473ffffffffffffffffffffffffffffffffffffffff16908060010160149054906101000a900460ff16905083565b6000600360008473ffffffffffffffffffffffffffffffffffffffff1673ffffffffffffffffffffffffffffffffffffffff168152602001908152602001600020805490508210610afb576040517f08c379a0000000000000000000000000000000000000000000000000000000008152600401610af290612659565b60405180910390fd5b600360008473ffffffffffffffffffffffffffffffffffffffff1673ffffffffffffffffffffffffffffffffffffffff1681526020019081526020016000208281548110610b4c57610b4b612679565b5b906000526020600020906006020160030154905092915050565b60608060606000600360008673ffffffffffffffffffffffffffffffffffffffff1673ffffffffffffffffffffffffffffffffffffffff1681526020019081526020016000208054905090508067ffffffffffffffff811115610bcc57610bcb611bc7565b5b604051908082528060200260200182016040528015610bff57816020015b6060815260200190600190039081610bea5790505b5093508067ffffffffffffffff811115610c1c57610c1b611bc7565b5b604051908082528060200260200182016040528015610c4a5781602001602082028036833780820191505090505b5092508067ffffffffffffffff811115610c6757610c66611bc7565b5b604051908082528060200260200182016040528015610c955781602001602082028036833780820191505090505b50915060005b81811015610e33576000600360008873ffffffffffffffffffffffffffffffffffffffff1673ffffffffffffffffffffffffffffffffffffffff1681526020019081526020016000208281548110610cf657610cf5612679565b5b90600052602060002090600602019050806000018054610d15906125db565b80601f0160208091040260200160405190810160405280929190818152602001828054610d41906125db565b8015610d8e5780601f10610d6357610100808354040283529160200191610d8e565b820191906000526020600020905b815481529060010190602001808311610d7157829003601f168201915b5050505050868381518110610da657610da5612679565b5b60200260200101819052508060050160009054906101000a900460ff16858381518110610dd657610dd5612679565b5b6020026020010190151590811515815250508060050160019054906101000a900460ff16848381518110610e0d57610e0c612679565b5b602002602001019015159081151581525050508080610e2b906126d7565b915050610c9b565b50509193909250565b600360003373ffffffffffffffffffffffffffffffffffffffff1673ffffffffffffffffffffffffffffffffffffffff168152602001908152602001600020805490508310610ec0576040517f08c379a0000000000000000000000000000000000000000000000000000000008152600401610eb79061276c565b60405180910390fd5b600360008573ffffffffffffffffffffffffffffffffffffffff1673ffffffffffffffffffffffffffffffffffffffff168152602001908152602001600020805490508210610f44576040517f08c379a0000000000000000000000000000000000000000000000000000000008152600401610f3b906127d8565b60405180910390fd5b600081118015610fb6575080600360003373ffffffffffffffffffffffffffffffffffffffff1673ffffffffffffffffffffffffffffffffffffffff1681526020019081526020016000208481548110610fa157610fa0612679565b5b90600052602060002090600602016003015410155b610ff5576040517f08c379a0000000000000000000000000000000000000000000000000000000008152600401610fec90612844565b60405180910390fd5b80600360008673ffffffffffffffffffffffffffffffffffffffff1673ffffffffffffffffffffffffffffffffffffffff168152602001908152602001600020838154811061104757611046612679565b5b906000526020600020906006020160030160008282546110679190612864565b9250508190555080600360003373ffffffffffffffffffffffffffffffffffffffff1673ffffffffffffffffffffffffffffffffffffffff16815260200190815260200160002084815481106110c0576110bf612679565b5b906000526020600020906006020160030160008282546110e091906128ba565b9250508190555050505050565b600360008973ffffffffffffffffffffffffffffffffffffffff1673ffffffffffffffffffffffffffffffffffffffff168152602001908152602001600020805490508710611171576040517f08c379a000000000000000000000000000000000000000000000000000000000815260040161116890612659565b60405180910390fd5b6040518060c0016040528087815260200186815260200185815260200184815260200183815260200182815250600760008a73ffffffffffffffffffffffffffffffffffffffff1673ffffffffffffffffffffffffffffffffffffffff168152602001908152602001600020600082015181600001556020820151816001015560408201518160020155606082015181600301556080820151816004015560a082015181600501559050505050505050505050565b600360003373ffffffffffffffffffffffffffffffffffffffff1673ffffffffffffffffffffffffffffffffffffffff1681526020019081526020016000208054905083106112aa576040517f08c379a00000000000000000000000000000000000000000000000000000000081526004016112a19061276c565b60405180910390fd5b600360008573ffffffffffffffffffffffffffffffffffffffff1673ffffffffffffffffffffffffffffffffffffffff16815260200190815260200160002080549050821061132e576040517f08c379a0000000000000000000000000000000000000000000000000000000008152600401611325906127d8565b60405180910390fd5b80600360003373ffffffffffffffffffffffffffffffffffffffff1673ffffffffffffffffffffffffffffffffffffffff16815260200190815260200160002084815481106113805761137f612679565b5b90600052602060002090600602016003015410156113d3576040517f08c379a00000000000000000000000000000000000000000000000000000000081526004016113ca9061293a565b60405180910390fd5b80600360003373ffffffffffffffffffffffffffffffffffffffff1673ffffffffffffffffffffffffffffffffffffffff168152602001908152602001600020848154811061142557611424612679565b5b9060005260206000209060060201600301600082825461144591906128ba565b9250508190555080600360008673ffffffffffffffffffffffffffffffffffffffff1673ffffffffffffffffffffffffffffffffffffffff168152602001908152602001600020838154811061149e5761149d612679565b5b906000526020600020906006020160030160008282546114be9190612864565b925050819055508373ffffffffffffffffffffffffffffffffffffffff163373ffffffffffffffffffffffffffffffffffffffff167fce6bdd003c99b8daa3bf63cf6a00e43811f73af3dc2dd0b99554a7890a22b2bc83604051611522919061209a565b60405180910390a350505050565b6006602052806000526040600020600091509050806000018054611553906125db565b80601f016020809104026020016040519081016040528092919081815260200182805461157f906125db565b80156115cc5780601f106115a1576101008083540402835291602001916115cc565b820191906000526020600020905b8154815290600101906020018083116115af57829003601f168201915b5050505050908060010160009054906101000a900473ffffffffffffffffffffffffffffffffffffffff16905082565b60025481565b6004602052806000526040600020600091509050806000018054611625906125db565b80601f0160208091040260200160405190810160405280929190818152602001828054611651906125db565b801561169e5780601f106116735761010080835404028352916020019161169e565b820191906000526020600020905b81548152906001019060200180831161168157829003601f168201915b5050505050908060010160009054906101000a900473ffffffffffffffffffffffffffffffffffffffff16908060020154908060030154908060040160009054906101000a900460ff16905085565b60008054906101000a900473ffffffffffffffffffffffffffffffffffffffff1681565b60008054906101000a900473ffffffffffffffffffffffffffffffffffffffff1673ffffffffffffffffffffffffffffffffffffffff163373ffffffffffffffffffffffffffffffffffffffff161461179f576040517f08c379a00000000000000000000000000000000000000000000000000000000081526004016117969061256a565b60405180910390fd5b600360008473ffffffffffffffffffffffffffffffffffffffff1673ffffffffffffffffffffffffffffffffffffffff168152602001908152602001600020805490508210611823576040517f08c379a000000000000000000000000000000000000000000000000000000000815260040161181a90612659565b60405180910390fd5b6000600360008573ffffffffffffffffffffffffffffffffffffffff1673ffffffffffffffffffffffffffffffffffffffff168152602001908152602001600020838154811061187657611875612679565b5b906000526020600020906006020160050160019054906101000a900460ff166118b7576064605a836118a8919061295a565b6118b291906129e3565b6118b9565b815b905080600360008673ffffffffffffffffffffffffffffffffffffffff1673ffffffffffffffffffffffffffffffffffffffff168152602001908152602001600020848154811061190d5761190c612679565b5b9060005260206000209060060201600301600082825461192d9190612864565b925050819055508373ffffffffffffffffffffffffffffffffffffffff167fa6ebac01b725932f51a7d81004fe00353d3bfa28773f042abaf37d9b994b1ae38260405161197a9190612a60565b60405180910390a250505050565b6040518060a001604052808281526020013373ffffffffffffffffffffffffffffffffffffffff168152602001600081526020016000815260200160001515815250600460003373ffffffffffffffffffffffffffffffffffffffff1673ffffffffffffffffffffffffffffffffffffffff1681526020019081526020016000206000820151816000019080519060200190611a25929190611af5565b5060208201518160010160006101000a81548173ffffffffffffffffffffffffffffffffffffffff021916908373ffffffffffffffffffffffffffffffffffffffff160217905550604082015181600201556060820151816003015560808201518160040160006101000a81548160ff0219169083151502179055509050503373ffffffffffffffffffffffffffffffffffffffff167ffebbcad7683c10d8ca64fd9317594b0e78e867bf9d4ab27c96c84f140599adbe82604051611aea919061258a565b60405180910390a250565b828054611b01906125db565b90600052602060002090601f016020900481019282611b235760008555611b6a565b82601f10611b3c57805160ff1916838001178555611b6a565b82800160010185558215611b6a579182015b82811115611b69578251825591602001919060010190611b4e565b5b509050611b779190611b7b565b5090565b5b80821115611b94576000816000905550600101611b7c565b5090565b6000604051905090565b600080fd5b600080fd5b600080fd5b600080fd5b6000601f19601f8301169050919050565b7f4e487b7100000000000000000000000000000000000000000000000000000000600052604160045260246000fd5b611bff82611bb6565b810181811067ffffffffffffffff82111715611c1e57611c1d611bc7565b5b80604052505050565b6000611c31611b98565b9050611c3d8282611bf6565b919050565b600067ffffffffffffffff821115611c5d57611c5c611bc7565b5b611c6682611bb6565b9050602081019050919050565b82818337600083830152505050565b6000611c95611c9084611c42565b611c27565b905082815260208101848484011115611cb157611cb0611bb1565b5b611cbc848285611c73565b509392505050565b600082601f830112611cd957611cd8611bac565b5b8135611ce9848260208601611c82565b91505092915050565b600060208284031215611d0857611d07611ba2565b5b600082013567ffffffffffffffff811115611d2657611d25611ba7565b5b611d3284828501611cc4565b91505092915050565b60008115159050919050565b611d5081611d3b565b8114611d5b57600080fd5b50565b600081359050611d6d81611d47565b92915050565b60008060408385031215611d8a57611d89611ba2565b5b600083013567ffffffffffffffff811115611da857611da7611ba7565b5b611db485828601611cc4565b9250506020611dc585828601611d5e565b9150509250929050565b600073ffffffffffffffffffffffffffffffffffffffff82169050919050565b6000611dfa82611dcf565b9050919050565b611e0a81611def565b8114611e1557600080fd5b50565b600081359050611e2781611e01565b92915050565b600060208284031215611e4357611e42611ba2565b5b6000611e5184828501611e18565b91505092915050565b6000819050919050565b611e6d81611e5a565b82525050565b600060c082019050611e886000830189611e64565b611e956020830188611e64565b611ea26040830187611e64565b611eaf6060830186611e64565b611ebc6080830185611e64565b611ec960a0830184611e64565b979650505050505050565b611edd81611e5a565b8114611ee857600080fd5b50565b600081359050611efa81611ed4565b92915050565b60008060408385031215611f1757611f16611ba2565b5b6000611f2585828601611e18565b9250506020611f3685828601611eeb565b9150509250929050565b600081519050919050565b600082825260208201905092915050565b60005b83811015611f7a578082015181840152602081019050611f5f565b83811115611f89576000848401525b50505050565b6000611f9a82611f40565b611fa48185611f4b565b9350611fb4818560208601611f5c565b611fbd81611bb6565b840191505092915050565b611fd181611def565b82525050565b611fe081611d3b565b82525050565b600060e0820190508181036000830152612000818a611f8f565b905061200f6020830189611fc8565b61201c6040830188611e64565b6120296060830187611e64565b818103608083015261203b8186611f8f565b905061204a60a0830185611fd7565b61205760c0830184611fd7565b98975050505050505050565b60006060820190506120786000830186611e64565b6120856020830185611e64565b6120926040830184611fd7565b949350505050565b60006020820190506120af6000830184611e64565b92915050565b600060608201905081810360008301526120cf8186611f8f565b90506120de6020830185611fc8565b6120eb6040830184611fd7565b949350505050565b600081519050919050565b600082825260208201905092915050565b6000819050602082019050919050565b600082825260208201905092915050565b600061213b82611f40565b612145818561211f565b9350612155818560208601611f5c565b61215e81611bb6565b840191505092915050565b60006121758383612130565b905092915050565b6000602082019050919050565b6000612195826120f3565b61219f81856120fe565b9350836020820285016121b18561210f565b8060005b858110156121ed57848403895281516121ce8582612169565b94506121d98361217d565b925060208a019950506001810190506121b5565b50829750879550505050505092915050565b600081519050919050565b600082825260208201905092915050565b6000819050602082019050919050565b61223481611d3b565b82525050565b6000612246838361222b565b60208301905092915050565b6000602082019050919050565b600061226a826121ff565b612274818561220a565b935061227f8361221b565b8060005b838110156122b0578151612297888261223a565b97506122a283612252565b925050600181019050612283565b5085935050505092915050565b600060608201905081810360008301526122d7818661218a565b905081810360208301526122eb818561225f565b905081810360408301526122ff818461225f565b9050949350505050565b6000806000806080858703121561232357612322611ba2565b5b600061233187828801611e18565b945050602061234287828801611eeb565b935050604061235387828801611eeb565b925050606061236487828801611eeb565b91505092959194509250565b600080600080600080600080610100898b03121561239157612390611ba2565b5b600061239f8b828c01611e18565b98505060206123b08b828c01611eeb565b97505060406123c18b828c01611eeb565b96505060606123d28b828c01611eeb565b95505060806123e38b828c01611eeb565b94505060a06123f48b828c01611eeb565b93505060c06124058b828c01611eeb565b92505060e06124168b828c01611eeb565b9150509295985092959890939650565b600060408201905081810360008301526124408185611f8f565b905061244f6020830184611fc8565b9392505050565b600060a08201905081810360008301526124708188611f8f565b905061247f6020830187611fc8565b61248c6040830186611e64565b6124996060830185611e64565b6124a66080830184611fd7565b9695505050505050565b60006020820190506124c56000830184611fc8565b92915050565b6000806000606084860312156124e4576124e3611ba2565b5b60006124f286828701611e18565b935050602061250386828701611eeb565b925050604061251486828701611eeb565b9150509250925092565b7f4e6f7420617574686f72697a6564000000000000000000000000000000000000600082015250565b6000612554600e83611f4b565b915061255f8261251e565b602082019050919050565b6000602082019050818103600083015261258381612547565b9050919050565b600060208201905081810360008301526125a48184611f8f565b905092915050565b7f4e487b7100000000000000000000000000000000000000000000000000000000600052602260045260246000fd5b600060028204905060018216806125f357607f821691505b60208210811415612607576126066125ac565b5b50919050565b7f496e76616c696420696e64757374727920696e64657800000000000000000000600082015250565b6000612643601683611f4b565b915061264e8261260d565b602082019050919050565b6000602082019050818103600083015261267281612636565b9050919050565b7f4e487b7100000000000000000000000000000000000000000000000000000000600052603260045260246000fd5b7f4e487b7100000000000000000000000000000000000000000000000000000000600052601160045260246000fd5b60006126e282611e5a565b91507fffffffffffffffffffffffffffffffffffffffffffffffffffffffffffffffff821415612715576127146126a8565b5b600182019050919050565b7f496e76616c69642073656e64657220696e64757374727920696e646578000000600082015250565b6000612756601d83611f4b565b915061276182612720565b602082019050919050565b6000602082019050818103600083015261278581612749565b9050919050565b7f496e76616c696420726563656976657220696e64757374727920696e64657800600082015250565b60006127c2601f83611f4b565b91506127cd8261278c565b602082019050919050565b600060208201905081810360008301526127f1816127b5565b9050919050565b7f496e76616c696420626f72726f7720616d6f756e740000000000000000000000600082015250565b600061282e601583611f4b565b9150612839826127f8565b602082019050919050565b6000602082019050818103600083015261285d81612821565b9050919050565b600061286f82611e5a565b915061287a83611e5a565b9250827fffffffffffffffffffffffffffffffffffffffffffffffffffffffffffffffff038211156128af576128ae6126a8565b5b828201905092915050565b60006128c582611e5a565b91506128d083611e5a565b9250828210156128e3576128e26126a8565b5b828203905092915050565b7f496e73756666696369656e742063726564697473000000000000000000000000600082015250565b6000612924601483611f4b565b915061292f826128ee565b602082019050919050565b6000602082019050818103600083015261295381612917565b9050919050565b600061296582611e5a565b915061297083611e5a565b9250817fffffffffffffffffffffffffffffffffffffffffffffffffffffffffffffffff04831182151516156129a9576129a86126a8565b5b828202905092915050565b7f4e487b7100000000000000000000000000000000000000000000000000000000600052601260045260246000fd5b60006129ee82611e5a565b91506129f983611e5a565b925082612a0957612a086129b4565b5b828204905092915050565b7f4672656520416c6c6f636174696f6e0000000000000000000000000000000000600082015250565b6000612a4a600f83611f4b565b9150612a5582612a14565b602082019050919050565b6000604082019050612a756000830184611e64565b8181036020830152612a8681612a3d565b90509291505056fea264697066735822122078a512b9eb4304fd808ddf87b3b2a2e5c1ad6cb0c740c5e71effca96f097179664736f6c634300080a0033",
  "linkReferences": {},
  "deployedLinkReferences": {}
}