{"contracts/KETSBlockchain.sol":{"KETSBlockchain":{"abi":[{"inputs":[],"stateMutability":"nonpayable","type":"constructor"},{"anonymous":false,"inputs":[{"indexed":false,"internalType":"uint256","name":"totalAllocated","type":"uint256"}],"name":"AuctionFinalized","type":"event"},{"anonymous":false,"inputs":[{"indexed":true,"internalType":"address","name":"bidder","type":"address"},{"indexed":false,"internalType":"uint256","name":"bidCredits","type":"uint256"}],"name":"CreditAuctioned","type":"event"},{"anonymous":false,"inputs":[{"indexed":true,"internalType":"address","name":"from","type":"address"},{"indexed":true,"internalType":"address","name":"to","type":"address"},{"indexed":false,"internalType":"uint256","name":"amount","type":"uint256"}],"name":"CreditTraded","type":"event"},{"anonymous":false,"inputs":[{"indexed":true,"internalType":"address","name":"industry","type":"address"},{"indexed":false,"internalType":"uint256","name":"amount","type":"uint256"},{"indexed":false,"internalType":"string","name":"method","type":"string"}],"name":"CreditsIssued","type":"event"},{"anonymous":false,"inputs":[{"indexed":true,"internalType":"address","name":"industry","type":"address"},{"indexed":false,"internalType":"string","name":"name","type":"string"}],"name":"IndustryRegistered","type":"event"},{"anonymous":false,"inputs":[{"indexed":true,"internalType":"address","name":"owner","type":"address"},{"indexed":false,"internalType":"string","name":"projectName","type":"string"}],"name":"OffsetProjectRegistered","type":"event"},{"inputs":[],"name":"auctionPrice","outputs":[{"internalType":"uint256","name":"","type":"uint256"}],"stateMutability":"view","type":"function"},{"inputs":[{"internalType":"address","name":"_to","type":"address"},{"internalType":"uint256","name":"industryIndexFrom","type":"uint256"},{"internalType":"uint256","name":"industryIndexTo","type":"uint256"},{"internalType":"uint256","name":"_amount","type":"uint256"}],"name":"borrowCredits","outputs":[],"stateMutability":"nonpayable","type":"function"},{"inputs":[{"internalType":"uint256","name":"_creditsAvailable","type":"uint256"},{"internalType":"uint256","name":"_minBidPrice","type":"uint256"}],"name":"createAuction","outputs":[],"stateMutability":"nonpayable","type":"function"},{"inputs":[],"name":"creditPrice","outputs":[{"internalType":"uint256","name":"","type":"uint256"}],"stateMutability":"view","type":"function"},{"inputs":[],"name":"currentAuction","outputs":[{"internalType":"uint256","name":"creditsAvailable","type":"uint256"},{"internalType":"uint256","name":"minBidPrice","type":"uint256"},{"internalType":"bool","name":"isActive","type":"bool"}],"stateMutability":"view","type":"function"},{"inputs":[],"name":"finalizeAuction","outputs":[],"stateMutability":"nonpayable","type":"function"},{"inputs":[{"internalType":"address","name":"_industryOwner","type":"address"},{"internalType":"uint256","name":"industryIndex","type":"uint256"},{"internalType":"uint256","name":"_credits","type":"uint256"}],"name":"freeAllocation","outputs":[],"stateMutability":"nonpayable","type":"function"},{"inputs":[{"internalType":"address","name":"_owner","type":"address"}],"name":"getIndustriesByOwner","outputs":[{"internalType":"string[]","name":"names","type":"string[]"},{"internalType":"bool[]","name":"isRegistered","type":"bool[]"},{"internalType":"bool[]","name":"isEITE","type":"bool[]"}],"stateMutability":"view","type":"function"},{"inputs":[{"internalType":"address","name":"","type":"address"},{"internalType":"uint256","name":"","type":"uint256"}],"name":"industries","outputs":[{"internalType":"string","name":"name","type":"string"},{"internalType":"address","name":"industryAddress","type":"address"},{"internalType":"uint256","name":"creditsOwned","type":"uint256"},{"internalType":"string","name":"creditType","type":"string"},{"internalType":"bool","name":"isRegistered","type":"bool"},{"internalType":"bool","name":"isEITE","type":"bool"},{"components":[{"internalType":"uint256","name":"CO2","type":"uint256"},{"internalType":"uint256","name":"CH4","type":"uint256"},{"internalType":"uint256","name":"N2O","type":"uint256"},{"internalType":"uint256","name":"HFCs","type":"uint256"},{"internalType":"uint256","name":"PFCs","type":"uint256"},{"internalType":"uint256","name":"SF6","type":"uint256"}],"internalType":"struct KETSBlockchain.GHG","name":"ghgData","type":"tuple"}],"stateMutability":"view","type":"function"},{"inputs":[{"internalType":"address","name":"","type":"address"}],"name":"offsetProjects","outputs":[{"internalType":"string","name":"projectName","type":"string"},{"internalType":"address","name":"owner","type":"address"},{"internalType":"uint256","name":"creditsEarned","type":"uint256"},{"internalType":"uint256","name":"incentive","type":"uint256"},{"internalType":"bool","name":"isApproved","type":"bool"}],"stateMutability":"view","type":"function"},{"inputs":[{"internalType":"uint256","name":"bidCredits","type":"uint256"}],"name":"placeBid","outputs":[],"stateMutability":"payable","type":"function"},{"inputs":[{"internalType":"string","name":"_name","type":"string"},{"internalType":"bool","name":"_isEITE","type":"bool"}],"name":"registerIndustry","outputs":[],"stateMutability":"nonpayable","type":"function"},{"inputs":[{"internalType":"string","name":"_projectName","type":"string"}],"name":"registerOffsetProject","outputs":[],"stateMutability":"nonpayable","type":"function"},{"inputs":[{"internalType":"string","name":"_verifierName","type":"string"}],"name":"registerVerifier","outputs":[],"stateMutability":"nonpayable","type":"function"},{"inputs":[],"name":"regulator","outputs":[{"internalType":"address","name":"","type":"address"}],"stateMutability":"view","type":"function"},{"inputs":[{"internalType":"address","name":"","type":"address"}],"name":"stakeholders","outputs":[{"internalType":"string","name":"name","type":"string"},{"internalType":"address","name":"stakeholderAddress","type":"address"}],"stateMutability":"view","type":"function"},{"inputs":[{"internalType":"address","name":"_to","type":"address"},{"internalType":"uint256","name":"industryIndexFrom","type":"uint256"},{"internalType":"uint256","name":"industryIndexTo","type":"uint256"},{"internalType":"uint256","name":"_amount","type":"uint256"}],"name":"tradeCredits","outputs":[],"stateMutability":"nonpayable","type":"function"},{"inputs":[{"internalType":"address","name":"_industryOwner","type":"address"},{"internalType":"uint256","name":"industryIndex","type":"uint256"},{"internalType":"uint256","name":"_CO2","type":"uint256"},{"internalType":"uint256","name":"_CH4","type":"uint256"},{"internalType":"uint256","name":"_N2O","type":"uint256"},{"internalType":"uint256","name":"_HFCs","type":"uint256"},{"internalType":"uint256","name":"_PFCs","type":"uint256"},{"internalType":"uint256","name":"_SF6","type":"uint256"}],"name":"updateGHGEmissions","outputs":[],"stateMutability":"nonpayable","type":"function"},{"inputs":[{"internalType":"address","name":"","type":"address"}],"name":"verifiers","outputs":[{"internalType":"string","name":"verifierName","type":"string"},{"internalType":"address","name":"verifierAddress","type":"address"},{"internalType":"bool","name":"isApproved","type":"bool"}],"stateMutability":"view","type":"function"}],"evm":{"bytecode":{"linkReferences":{},"object":"608060405268019274b259f6540000600155660997a2bce4c00060025534801561002857600080fd5b50336000806101000a81548173ffffffffffffffffffffffffffffffffffffffff021916908373ffffffffffffffffffffffffffffffffffffffff160217905550613785806100786000396000f3fe6080604052600436106101145760003560e01c8063a8f33d6d116100a0578063d657273811610064578063d6572738146103ad578063dd8fee14146103ee578063ddc58b3014610419578063e088675214610442578063f77282ab1461046b57610114565b8063a8f33d6d146102c9578063ad37d6c0146102f2578063bb4f5a4a1461031b578063c07cfca914610344578063ca6358cd1461038257610114565b8063496a698d116100e7578063496a698d146101d757806356742b5a146102045780636c8244871461022f57806390375df81461026e5780639979ef45146102ad57610114565b80630121683f1461011957806316cb4218146101425780632cfed5a01461016b57806348f48c7b14610194575b600080fd5b34801561012557600080fd5b50610140600480360381019061013b9190612486565b610482565b005b34801561014e57600080fd5b506101696004803603810190610164919061260c565b6105ed565b005b34801561017757600080fd5b50610192600480360381019061018d919061268d565b610778565b005b3480156101a057600080fd5b506101bb60048036038101906101b69190612747565b6109d6565b6040516101ce97969594939291906128c6565b60405180910390f35b3480156101e357600080fd5b506101ec610bc5565b6040516101fb93929190612944565b60405180910390f35b34801561021057600080fd5b50610219610bea565b604051610226919061297b565b60405180910390f35b34801561023b57600080fd5b5061025660048036038101906102519190612996565b610bf0565b604051610265939291906129c3565b60405180910390f35b34801561027a57600080fd5b5061029560048036038101906102909190612996565b610ccf565b6040516102a493929190612bcb565b60405180910390f35b6102c760048036038101906102c29190612c17565b610fa5565b005b3480156102d557600080fd5b506102f060048036038101906102eb9190612c44565b611289565b005b3480156102fe57600080fd5b5061031960048036038101906103149190612cab565b6114e8565b005b34801561032757600080fd5b50610342600480360381019061033d9190612c44565b611644565b005b34801561035057600080fd5b5061036b60048036038101906103669190612996565b6118fc565b604051610379929190612d61565b60405180910390f35b34801561038e57600080fd5b506103976119c8565b6040516103a4919061297b565b60405180910390f35b3480156103b957600080fd5b506103d460048036038101906103cf9190612996565b6119ce565b6040516103e5959493929190612d91565b60405180910390f35b3480156103fa57600080fd5b50610403611ab9565b6040516104109190612deb565b60405180910390f35b34801561042557600080fd5b50610440600480360381019061043b9190612e06565b611add565b005b34801561044e57600080fd5b506104696004803603810190610464919061260c565b611cfc565b005b34801561047757600080fd5b50610480611e69565b005b60008054906101000a900473ffffffffffffffffffffffffffffffffffffffff1673ffffffffffffffffffffffffffffffffffffffff163373ffffffffffffffffffffffffffffffffffffffff1614610510576040517f08c379a000000000000000000000000000000000000000000000000000000000815260040161050790612ea5565b60405180910390fd5b600760020160009054906101000a900460ff1615610563576040517f08c379a000000000000000000000000000000000000000000000000000000000815260040161055a90612f11565b60405180910390fd5b600082116105a6576040517f08c379a000000000000000000000000000000000000000000000000000000000815260040161059d90612f7d565b60405180910390fd5b81600760000181905550806007600101819055506001600760020160006101000a81548160ff021916908315150217905550600760040160006105e99190612378565b5050565b60008054906101000a900473ffffffffffffffffffffffffffffffffffffffff1673ffffffffffffffffffffffffffffffffffffffff163373ffffffffffffffffffffffffffffffffffffffff161461067b576040517f08c379a000000000000000000000000000000000000000000000000000000000815260040161067290612ea5565b60405180910390fd5b60405180606001604052808281526020013373ffffffffffffffffffffffffffffffffffffffff16815260200160011515815250600560003373ffffffffffffffffffffffffffffffffffffffff1673ffffffffffffffffffffffffffffffffffffffff168152602001908152602001600020600082015181600001908051906020019061070a929190612399565b5060208201518160010160006101000a81548173ffffffffffffffffffffffffffffffffffffffff021916908373ffffffffffffffffffffffffffffffffffffffff16021790555060408201518160010160146101000a81548160ff02191690831515021790555090505050565b600360003373ffffffffffffffffffffffffffffffffffffffff1673ffffffffffffffffffffffffffffffffffffffff1681526020019081526020016000206040518060e001604052808481526020013373ffffffffffffffffffffffffffffffffffffffff1681526020016000815260200160405180602001604052806000815250815260200160011515815260200183151581526020016040518060c001604052806000815260200160008152602001600081526020016000815260200160008152602001600081525081525090806001815401808255809150506001900390600052602060002090600b0201600090919091909150600082015181600001908051906020019061088c929190612399565b5060208201518160010160006101000a81548173ffffffffffffffffffffffffffffffffffffffff021916908373ffffffffffffffffffffffffffffffffffffffff1602179055506040820151816002015560608201518160030190805190602001906108fa929190612399565b5060808201518160040160006101000a81548160ff02191690831515021790555060a08201518160040160016101000a81548160ff02191690831515021790555060c082015181600501600082015181600001556020820151816001015560408201518160020155606082015181600301556080820151816004015560a08201518160050155505050503373ffffffffffffffffffffffffffffffffffffffff167f3265a4551bbff34dc6f6f3c994f0f1516096fd7968c8590391c7a398e31851f2836040516109ca9190612f9d565b60405180910390a25050565b600360205281600052604060002081815481106109f257600080fd5b90600052602060002090600b020160009150915050806000018054610a1690612fee565b80601f0160208091040260200160405190810160405280929190818152602001828054610a4290612fee565b8015610a8f5780601f10610a6457610100808354040283529160200191610a8f565b820191906000526020600020905b815481529060010190602001808311610a7257829003601f168201915b5050505050908060010160009054906101000a900473ffffffffffffffffffffffffffffffffffffffff1690806002015490806003018054610ad090612fee565b80601f0160208091040260200160405190810160405280929190818152602001828054610afc90612fee565b8015610b495780601f10610b1e57610100808354040283529160200191610b49565b820191906000526020600020905b815481529060010190602001808311610b2c57829003601f168201915b5050505050908060040160009054906101000a900460ff16908060040160019054906101000a900460ff1690806005016040518060c00160405290816000820154815260200160018201548152602001600282015481526020016003820154815260200160048201548152602001600582015481525050905087565b60078060000154908060010154908060020160009054906101000a900460ff16905083565b60015481565b6005602052806000526040600020600091509050806000018054610c1390612fee565b80601f0160208091040260200160405190810160405280929190818152602001828054610c3f90612fee565b8015610c8c5780601f10610c6157610100808354040283529160200191610c8c565b820191906000526020600020905b815481529060010190602001808311610c6f57829003601f168201915b5050505050908060010160009054906101000a900473ffffffffffffffffffffffffffffffffffffffff16908060010160149054906101000a900460ff16905083565b60608060606000600360008673ffffffffffffffffffffffffffffffffffffffff1673ffffffffffffffffffffffffffffffffffffffff1681526020019081526020016000208054905090508067ffffffffffffffff811115610d3557610d346124e1565b5b604051908082528060200260200182016040528015610d6857816020015b6060815260200190600190039081610d535790505b5093508067ffffffffffffffff811115610d8557610d846124e1565b5b604051908082528060200260200182016040528015610db35781602001602082028036833780820191505090505b5092508067ffffffffffffffff811115610dd057610dcf6124e1565b5b604051908082528060200260200182016040528015610dfe5781602001602082028036833780820191505090505b50915060005b81811015610f9c576000600360008873ffffffffffffffffffffffffffffffffffffffff1673ffffffffffffffffffffffffffffffffffffffff1681526020019081526020016000208281548110610e5f57610e5e613020565b5b90600052602060002090600b02019050806000018054610e7e90612fee565b80601f0160208091040260200160405190810160405280929190818152602001828054610eaa90612fee565b8015610ef75780601f10610ecc57610100808354040283529160200191610ef7565b820191906000526020600020905b815481529060010190602001808311610eda57829003601f168201915b5050505050868381518110610f0f57610f0e613020565b5b60200260200101819052508060040160009054906101000a900460ff16858381518110610f3f57610f3e613020565b5b6020026020010190151590811515815250508060040160019054906101000a900460ff16848381518110610f7657610f75613020565b5b602002602001019015159081151581525050508080610f949061307e565b915050610e04565b50509193909250565b600760020160009054906101000a900460ff16610ff7576040517f08c379a0000000000000000000000000000000000000000000000000000000008152600401610fee90613113565b60405180910390fd5b6000811161103a576040517f08c379a00000000000000000000000000000000000000000000000000000000081526004016110319061317f565b60405180910390fd5b6064600f60076000015461104e919061319f565b6110589190613228565b81111561109a576040517f08c379a0000000000000000000000000000000000000000000000000000000008152600401611091906132a5565b60405180910390fd5b600760010154816110ab919061319f565b34146110ec576040517f08c379a00000000000000000000000000000000000000000000000000000000081526004016110e390613311565b60405180910390fd5b6000600760030160003373ffffffffffffffffffffffffffffffffffffffff1673ffffffffffffffffffffffffffffffffffffffff1681526020019081526020016000206000015414611174576040517f08c379a000000000000000000000000000000000000000000000000000000000815260040161116b9061337d565b60405180910390fd5b604051806020016040528082815250600760030160003373ffffffffffffffffffffffffffffffffffffffff1673ffffffffffffffffffffffffffffffffffffffff168152602001908152602001600020600082015181600001559050506007600401339080600181540180825580915050600190039060005260206000200160009091909190916101000a81548173ffffffffffffffffffffffffffffffffffffffff021916908373ffffffffffffffffffffffffffffffffffffffff1602179055503373ffffffffffffffffffffffffffffffffffffffff167f5774c60ebe7fa63590b3be5117173b088bcf881a3294d58fee441ae1f022af368260405161127e919061297b565b60405180910390a250565b600360003373ffffffffffffffffffffffffffffffffffffffff1673ffffffffffffffffffffffffffffffffffffffff16815260200190815260200160002080549050831061130d576040517f08c379a0000000000000000000000000000000000000000000000000000000008152600401611304906133e9565b60405180910390fd5b600360008573ffffffffffffffffffffffffffffffffffffffff1673ffffffffffffffffffffffffffffffffffffffff168152602001908152602001600020805490508210611391576040517f08c379a000000000000000000000000000000000000000000000000000000000815260040161138890613455565b60405180910390fd5b6000600360003373ffffffffffffffffffffffffffffffffffffffff1673ffffffffffffffffffffffffffffffffffffffff16815260200190815260200160002084815481106113e4576113e3613020565b5b90600052602060002090600b020190506000600360008773ffffffffffffffffffffffffffffffffffffffff1673ffffffffffffffffffffffffffffffffffffffff168152602001908152602001600020848154811061144757611446613020565b5b90600052602060002090600b0201905060008311801561146b575082826002015410155b6114aa576040517f08c379a00000000000000000000000000000000000000000000000000000000081526004016114a1906134c1565b60405180910390fd5b828160020160008282546114be91906134e1565b92505081905550828260020160008282546114d99190613537565b92505081905550505050505050565b600360008973ffffffffffffffffffffffffffffffffffffffff1673ffffffffffffffffffffffffffffffffffffffff16815260200190815260200160002080549050871061156c576040517f08c379a0000000000000000000000000000000000000000000000000000000008152600401611563906135b7565b60405180910390fd5b6040518060c0016040528087815260200186815260200185815260200184815260200183815260200182815250600360008a73ffffffffffffffffffffffffffffffffffffffff1673ffffffffffffffffffffffffffffffffffffffff16815260200190815260200160002088815481106115ea576115e9613020565b5b90600052602060002090600b0201600501600082015181600001556020820151816001015560408201518160020155606082015181600301556080820151816004015560a082015181600501559050505050505050505050565b600360003373ffffffffffffffffffffffffffffffffffffffff1673ffffffffffffffffffffffffffffffffffffffff1681526020019081526020016000208054905083106116c8576040517f08c379a00000000000000000000000000000000000000000000000000000000081526004016116bf906133e9565b60405180910390fd5b600360008573ffffffffffffffffffffffffffffffffffffffff1673ffffffffffffffffffffffffffffffffffffffff16815260200190815260200160002080549050821061174c576040517f08c379a000000000000000000000000000000000000000000000000000000000815260040161174390613455565b60405180910390fd5b6000600360003373ffffffffffffffffffffffffffffffffffffffff1673ffffffffffffffffffffffffffffffffffffffff168152602001908152602001600020848154811061179f5761179e613020565b5b90600052602060002090600b020190506000600360008773ffffffffffffffffffffffffffffffffffffffff1673ffffffffffffffffffffffffffffffffffffffff168152602001908152602001600020848154811061180257611801613020565b5b90600052602060002090600b020190508282600201541015611859576040517f08c379a000000000000000000000000000000000000000000000000000000000815260040161185090613623565b60405180910390fd5b8282600201600082825461186d9190613537565b925050819055508281600201600082825461188891906134e1565b925050819055508573ffffffffffffffffffffffffffffffffffffffff163373ffffffffffffffffffffffffffffffffffffffff167fce6bdd003c99b8daa3bf63cf6a00e43811f73af3dc2dd0b99554a7890a22b2bc856040516118ec919061297b565b60405180910390a3505050505050565b600660205280600052604060002060009150905080600001805461191f90612fee565b80601f016020809104026020016040519081016040528092919081815260200182805461194b90612fee565b80156119985780601f1061196d57610100808354040283529160200191611998565b820191906000526020600020905b81548152906001019060200180831161197b57829003601f168201915b5050505050908060010160009054906101000a900473ffffffffffffffffffffffffffffffffffffffff16905082565b60025481565b60046020528060005260406000206000915090508060000180546119f190612fee565b80601f0160208091040260200160405190810160405280929190818152602001828054611a1d90612fee565b8015611a6a5780601f10611a3f57610100808354040283529160200191611a6a565b820191906000526020600020905b815481529060010190602001808311611a4d57829003601f168201915b5050505050908060010160009054906101000a900473ffffffffffffffffffffffffffffffffffffffff16908060020154908060030154908060040160009054906101000a900460ff16905085565b60008054906101000a900473ffffffffffffffffffffffffffffffffffffffff1681565b60008054906101000a900473ffffffffffffffffffffffffffffffffffffffff1673ffffffffffffffffffffffffffffffffffffffff163373ffffffffffffffffffffffffffffffffffffffff1614611b6b576040517f08c379a0000000000000000000000000000000000000000000000000000000008152600401611b6290612ea5565b60405180910390fd5b600360008473ffffffffffffffffffffffffffffffffffffffff1673ffffffffffffffffffffffffffffffffffffffff168152602001908152602001600020805490508210611bef576040517f08c379a0000000000000000000000000000000000000000000000000000000008152600401611be6906135b7565b60405180910390fd5b6000600360008573ffffffffffffffffffffffffffffffffffffffff1673ffffffffffffffffffffffffffffffffffffffff1681526020019081526020016000208381548110611c4257611c41613020565b5b90600052602060002090600b0201905060008160040160019054906101000a900460ff16611c88576064605a84611c79919061319f565b611c839190613228565b611c8a565b825b905080826002016000828254611ca091906134e1565b925050819055508473ffffffffffffffffffffffffffffffffffffffff167fa6ebac01b725932f51a7d81004fe00353d3bfa28773f042abaf37d9b994b1ae382604051611ced919061368f565b60405180910390a25050505050565b6040518060a001604052808281526020013373ffffffffffffffffffffffffffffffffffffffff168152602001600081526020016000815260200160001515815250600460003373ffffffffffffffffffffffffffffffffffffffff1673ffffffffffffffffffffffffffffffffffffffff1681526020019081526020016000206000820151816000019080519060200190611d99929190612399565b5060208201518160010160006101000a81548173ffffffffffffffffffffffffffffffffffffffff021916908373ffffffffffffffffffffffffffffffffffffffff160217905550604082015181600201556060820151816003015560808201518160040160006101000a81548160ff0219169083151502179055509050503373ffffffffffffffffffffffffffffffffffffffff167ffebbcad7683c10d8ca64fd9317594b0e78e867bf9d4ab27c96c84f140599adbe82604051611e5e9190612f9d565b60405180910390a250565b60008054906101000a900473ffffffffffffffffffffffffffffffffffffffff1673ffffffffffffffffffffffffffffffffffffffff163373ffffffffffffffffffffffffffffffffffffffff1614611ef7576040517f08c379a0000000000000000000000000000000000000000000000000000000008152600401611eee90612ea5565b60405180910390fd5b600760020160009054906101000a900460ff16611f49576040517f08c379a0000000000000000000000000000000000000000000000000000000008152600401611f4090613113565b60405180910390fd5b6000600760000154905060005b6007600401805490508110156122a857600060076004018281548110611f7f57611f7e613020565b5b9060005260206000200160009054906101000a900473ffffffffffffffffffffffffffffffffffffffff1690506000600760030160008373ffffffffffffffffffffffffffffffffffffffff1673ffffffffffffffffffffffffffffffffffffffff168152602001908152602001600020905083816000015411612117576000600360008473ffffffffffffffffffffffffffffffffffffffff1673ffffffffffffffffffffffffffffffffffffffff1681526020019081526020016000208054905011612082576040517f08c379a00000000000000000000000000000000000000000000000000000000081526004016120799061372f565b60405180910390fd5b8060000154600360008473ffffffffffffffffffffffffffffffffffffffff1673ffffffffffffffffffffffffffffffffffffffff1681526020019081526020016000206000815481106120d9576120d8613020565b5b90600052602060002090600b020160020160008282546120f991906134e1565b925050819055508060000154846121109190613537565b9350612293565b6000600360008473ffffffffffffffffffffffffffffffffffffffff1673ffffffffffffffffffffffffffffffffffffffff168152602001908152602001600020805490501161219c576040517f08c379a00000000000000000000000000000000000000000000000000000000081526004016121939061372f565b60405180910390fd5b83600360008473ffffffffffffffffffffffffffffffffffffffff1673ffffffffffffffffffffffffffffffffffffffff1681526020019081526020016000206000815481106121ef576121ee613020565b5b90600052602060002090600b0201600201600082825461220f91906134e1565b92505081905550600084905060006007600101548284600001546122339190613537565b61223d919061319f565b90508373ffffffffffffffffffffffffffffffffffffffff166108fc829081150290604051600060405180830381858888f19350505050158015612285573d6000803e3d6000fd5b5060009550505050506122a8565b505080806122a09061307e565b915050611f56565b506000600760020160006101000a81548160ff0219169083151502179055507f2d7633a748a750b559b97738629efd586b561319b152bb42ba14d590706d31da816007600001546122f99190613537565b604051612306919061297b565b60405180910390a160008054906101000a900473ffffffffffffffffffffffffffffffffffffffff1673ffffffffffffffffffffffffffffffffffffffff166108fc479081150290604051600060405180830381858888f19350505050158015612374573d6000803e3d6000fd5b5050565b5080546000825590600052602060002090810190612396919061241f565b50565b8280546123a590612fee565b90600052602060002090601f0160209004810192826123c7576000855561240e565b82601f106123e057805160ff191683800117855561240e565b8280016001018555821561240e579182015b8281111561240d5782518255916020019190600101906123f2565b5b50905061241b919061241f565b5090565b5b80821115612438576000816000905550600101612420565b5090565b6000604051905090565b600080fd5b600080fd5b6000819050919050565b61246381612450565b811461246e57600080fd5b50565b6000813590506124808161245a565b92915050565b6000806040838503121561249d5761249c612446565b5b60006124ab85828601612471565b92505060206124bc85828601612471565b9150509250929050565b600080fd5b600080fd5b6000601f19601f8301169050919050565b7f4e487b7100000000000000000000000000000000000000000000000000000000600052604160045260246000fd5b612519826124d0565b810181811067ffffffffffffffff82111715612538576125376124e1565b5b80604052505050565b600061254b61243c565b90506125578282612510565b919050565b600067ffffffffffffffff821115612577576125766124e1565b5b612580826124d0565b9050602081019050919050565b82818337600083830152505050565b60006125af6125aa8461255c565b612541565b9050828152602081018484840111156125cb576125ca6124cb565b5b6125d684828561258d565b509392505050565b600082601f8301126125f3576125f26124c6565b5b813561260384826020860161259c565b91505092915050565b60006020828403121561262257612621612446565b5b600082013567ffffffffffffffff8111156126405761263f61244b565b5b61264c848285016125de565b91505092915050565b60008115159050919050565b61266a81612655565b811461267557600080fd5b50565b60008135905061268781612661565b92915050565b600080604083850312156126a4576126a3612446565b5b600083013567ffffffffffffffff8111156126c2576126c161244b565b5b6126ce858286016125de565b92505060206126df85828601612678565b9150509250929050565b600073ffffffffffffffffffffffffffffffffffffffff82169050919050565b6000612714826126e9565b9050919050565b61272481612709565b811461272f57600080fd5b50565b6000813590506127418161271b565b92915050565b6000806040838503121561275e5761275d612446565b5b600061276c85828601612732565b925050602061277d85828601612471565b9150509250929050565b600081519050919050565b600082825260208201905092915050565b60005b838110156127c15780820151818401526020810190506127a6565b838111156127d0576000848401525b50505050565b60006127e182612787565b6127eb8185612792565b93506127fb8185602086016127a3565b612804816124d0565b840191505092915050565b61281881612709565b82525050565b61282781612450565b82525050565b61283681612655565b82525050565b61284581612450565b82525050565b60c082016000820151612861600085018261283c565b506020820151612874602085018261283c565b506040820151612887604085018261283c565b50606082015161289a606085018261283c565b5060808201516128ad608085018261283c565b5060a08201516128c060a085018261283c565b50505050565b60006101808201905081810360008301526128e1818a6127d6565b90506128f0602083018961280f565b6128fd604083018861281e565b818103606083015261290f81876127d6565b905061291e608083018661282d565b61292b60a083018561282d565b61293860c083018461284b565b98975050505050505050565b6000606082019050612959600083018661281e565b612966602083018561281e565b612973604083018461282d565b949350505050565b6000602082019050612990600083018461281e565b92915050565b6000602082840312156129ac576129ab612446565b5b60006129ba84828501612732565b91505092915050565b600060608201905081810360008301526129dd81866127d6565b90506129ec602083018561280f565b6129f9604083018461282d565b949350505050565b600081519050919050565b600082825260208201905092915050565b6000819050602082019050919050565b600082825260208201905092915050565b6000612a4982612787565b612a538185612a2d565b9350612a638185602086016127a3565b612a6c816124d0565b840191505092915050565b6000612a838383612a3e565b905092915050565b6000602082019050919050565b6000612aa382612a01565b612aad8185612a0c565b935083602082028501612abf85612a1d565b8060005b85811015612afb5784840389528151612adc8582612a77565b9450612ae783612a8b565b925060208a01995050600181019050612ac3565b50829750879550505050505092915050565b600081519050919050565b600082825260208201905092915050565b6000819050602082019050919050565b612b4281612655565b82525050565b6000612b548383612b39565b60208301905092915050565b6000602082019050919050565b6000612b7882612b0d565b612b828185612b18565b9350612b8d83612b29565b8060005b83811015612bbe578151612ba58882612b48565b9750612bb083612b60565b925050600181019050612b91565b5085935050505092915050565b60006060820190508181036000830152612be58186612a98565b90508181036020830152612bf98185612b6d565b90508181036040830152612c0d8184612b6d565b9050949350505050565b600060208284031215612c2d57612c2c612446565b5b6000612c3b84828501612471565b91505092915050565b60008060008060808587031215612c5e57612c5d612446565b5b6000612c6c87828801612732565b9450506020612c7d87828801612471565b9350506040612c8e87828801612471565b9250506060612c9f87828801612471565b91505092959194509250565b600080600080600080600080610100898b031215612ccc57612ccb612446565b5b6000612cda8b828c01612732565b9850506020612ceb8b828c01612471565b9750506040612cfc8b828c01612471565b9650506060612d0d8b828c01612471565b9550506080612d1e8b828c01612471565b94505060a0612d2f8b828c01612471565b93505060c0612d408b828c01612471565b92505060e0612d518b828c01612471565b9150509295985092959890939650565b60006040820190508181036000830152612d7b81856127d6565b9050612d8a602083018461280f565b9392505050565b600060a0820190508181036000830152612dab81886127d6565b9050612dba602083018761280f565b612dc7604083018661281e565b612dd4606083018561281e565b612de1608083018461282d565b9695505050505050565b6000602082019050612e00600083018461280f565b92915050565b600080600060608486031215612e1f57612e1e612446565b5b6000612e2d86828701612732565b9350506020612e3e86828701612471565b9250506040612e4f86828701612471565b9150509250925092565b7f4e6f7420617574686f72697a6564000000000000000000000000000000000000600082015250565b6000612e8f600e83612792565b9150612e9a82612e59565b602082019050919050565b60006020820190508181036000830152612ebe81612e82565b9050919050565b7f41756374696f6e20616c72656164792061637469766500000000000000000000600082015250565b6000612efb601683612792565b9150612f0682612ec5565b602082019050919050565b60006020820190508181036000830152612f2a81612eee565b9050919050565b7f43726564697473206d757374206265203e203000000000000000000000000000600082015250565b6000612f67601383612792565b9150612f7282612f31565b602082019050919050565b60006020820190508181036000830152612f9681612f5a565b9050919050565b60006020820190508181036000830152612fb781846127d6565b905092915050565b7f4e487b7100000000000000000000000000000000000000000000000000000000600052602260045260246000fd5b6000600282049050600182168061300657607f821691505b6020821081141561301a57613019612fbf565b5b50919050565b7f4e487b7100000000000000000000000000000000000000000000000000000000600052603260045260246000fd5b7f4e487b7100000000000000000000000000000000000000000000000000000000600052601160045260246000fd5b600061308982612450565b91507fffffffffffffffffffffffffffffffffffffffffffffffffffffffffffffffff8214156130bc576130bb61304f565b5b600182019050919050565b7f4e6f206163746976652061756374696f6e000000000000000000000000000000600082015250565b60006130fd601183612792565b9150613108826130c7565b602082019050919050565b6000602082019050818103600083015261312c816130f0565b9050919050565b7f426964206d757374206265203e20300000000000000000000000000000000000600082015250565b6000613169600f83612792565b915061317482613133565b602082019050919050565b600060208201905081810360008301526131988161315c565b9050919050565b60006131aa82612450565b91506131b583612450565b9250817fffffffffffffffffffffffffffffffffffffffffffffffffffffffffffffffff04831182151516156131ee576131ed61304f565b5b828202905092915050565b7f4e487b7100000000000000000000000000000000000000000000000000000000600052601260045260246000fd5b600061323382612450565b915061323e83612450565b92508261324e5761324d6131f9565b5b828204905092915050565b7f4269642065786365656473206c696d6974000000000000000000000000000000600082015250565b600061328f601183612792565b915061329a82613259565b602082019050919050565b600060208201905081810360008301526132be81613282565b9050919050565b7f496e636f72726563742045544820616d6f756e74000000000000000000000000600082015250565b60006132fb601483612792565b9150613306826132c5565b602082019050919050565b6000602082019050818103600083015261332a816132ee565b9050919050565b7f42696420616c726561647920706c616365640000000000000000000000000000600082015250565b6000613367601283612792565b915061337282613331565b602082019050919050565b600060208201905081810360008301526133968161335a565b9050919050565b7f496e76616c69642073656e64657220696e646578000000000000000000000000600082015250565b60006133d3601483612792565b91506133de8261339d565b602082019050919050565b60006020820190508181036000830152613402816133c6565b9050919050565b7f496e76616c696420726563656976657220696e64657800000000000000000000600082015250565b600061343f601683612792565b915061344a82613409565b602082019050919050565b6000602082019050818103600083015261346e81613432565b9050919050565b7f496e76616c696420626f72726f7720616d6f756e740000000000000000000000600082015250565b60006134ab601583612792565b91506134b682613475565b602082019050919050565b600060208201905081810360008301526134da8161349e565b9050919050565b60006134ec82612450565b91506134f783612450565b9250827fffffffffffffffffffffffffffffffffffffffffffffffffffffffffffffffff0382111561352c5761352b61304f565b5b828201905092915050565b600061354282612450565b915061354d83612450565b9250828210156135605761355f61304f565b5b828203905092915050565b7f496e76616c696420696e64757374727920696e64657800000000000000000000600082015250565b60006135a1601683612792565b91506135ac8261356b565b602082019050919050565b600060208201905081810360008301526135d081613594565b9050919050565b7f496e73756666696369656e742063726564697473000000000000000000000000600082015250565b600061360d601483612792565b9150613618826135d7565b602082019050919050565b6000602082019050818103600083015261363c81613600565b9050919050565b7f4672656520416c6c6f636174696f6e0000000000000000000000000000000000600082015250565b6000613679600f83612792565b915061368482613643565b602082019050919050565b60006040820190506136a4600083018461281e565b81810360208301526136b58161366c565b905092915050565b7f42696464657220686173206e6f207265676973746572656420696e647573747260008201527f7900000000000000000000000000000000000000000000000000000000000000602082015250565b6000613719602183612792565b9150613724826136bd565b604082019050919050565b600060208201905081810360008301526137488161370c565b905091905056fea26469706673582212200336911115bdafcc2b9dc0ab6f93e39cd1f545900f86a214ecb7ece2cad6939264736f6c634300080a0033","opcodes":"PUSH1 0x80 PUSH1 0x40 MSTORE PUSH9 0x19274B259F6540000 PUSH1 0x1 SSTORE PUSH7 0x997A2BCE4C000 PUSH1 0x2 SSTORE CALLVALUE DUP1 ISZERO PUSH2 0x28 JUMPI PUSH1 0x0 DUP1 REVERT JUMPDEST POP CALLER PUSH1 0x0 DUP1 PUSH2 0x100 EXP DUP2 SLOAD DUP2 PUSH20 0xFFFFFFFFFFFFFFFFFFFFFFFFFFFFFFFFFFFFFFFF MUL NOT AND SWAP1 DUP4 PUSH20 0xFFFFFFFFFFFFFFFFFFFFFFFFFFFFFFFFFFFFFFFF AND MUL OR SWAP1 SSTORE POP PUSH2 0x3785 DUP1 PUSH2 0x78 PUSH1 0x0 CODECOPY PUSH1 0x0 RETURN INVALID PUSH1 0x80 PUSH1 0x40 MSTORE PUSH1 0x4 CALLDATASIZE LT PUSH2 0x114 JUMPI PUSH1 0x0 CALLDATALOAD PUSH1 0xE0 SHR DUP1 PUSH4 0xA8F33D6D GT PUSH2 0xA0 JUMPI DUP1 PUSH4 0xD6572738 GT PUSH2 0x64 JUMPI DUP1 PUSH4 0xD6572738 EQ PUSH2 0x3AD JUMPI DUP1 PUSH4 0xDD8FEE14 EQ PUSH2 0x3EE JUMPI DUP1 PUSH4 0xDDC58B30 EQ PUSH2 0x419 JUMPI DUP1 PUSH4 0xE0886752 EQ PUSH2 0x442 JUMPI DUP1 PUSH4 0xF77282AB EQ PUSH2 0x46B JUMPI PUSH2 0x114 JUMP JUMPDEST DUP1 PUSH4 0xA8F33D6D EQ PUSH2 0x2C9 JUMPI DUP1 PUSH4 0xAD37D6C0 EQ PUSH2 0x2F2 JUMPI DUP1 PUSH4 0xBB4F5A4A EQ PUSH2 0x31B JUMPI DUP1 PUSH4 0xC07CFCA9 EQ PUSH2 0x344 JUMPI DUP1 PUSH4 0xCA6358CD EQ PUSH2 0x382 JUMPI PUSH2 0x114 JUMP JUMPDEST DUP1 PUSH4 0x496A698D GT PUSH2 0xE7 JUMPI DUP1 PUSH4 0x496A698D EQ PUSH2 0x1D7 JUMPI DUP1 PUSH4 0x56742B5A EQ PUSH2 0x204 JUMPI DUP1 PUSH4 0x6C824487 EQ PUSH2 0x22F JUMPI DUP1 PUSH4 0x90375DF8 EQ PUSH2 0x26E JUMPI DUP1 PUSH4 0x9979EF45 EQ PUSH2 0x2AD JUMPI PUSH2 0x114 JUMP JUMPDEST DUP1 PUSH4 0x121683F EQ PUSH2 0x119 JUMPI DUP1 PUSH4 0x16CB4218 EQ PUSH2 0x142 JUMPI DUP1 PUSH4 0x2CFED5A0 EQ PUSH2 0x16B JUMPI DUP1 PUSH4 0x48F48C7B EQ PUSH2 0x194 JUMPI JUMPDEST PUSH1 0x0 DUP1 REVERT JUMPDEST CALLVALUE DUP1 ISZERO PUSH2 0x125 JUMPI PUSH1 0x0 DUP1 REVERT JUMPDEST POP PUSH2 0x140 PUSH1 0x4 DUP1 CALLDATASIZE SUB DUP2 ADD SWAP1 PUSH2 0x13B SWAP2 SWAP1 PUSH2 0x2486 JUMP JUMPDEST PUSH2 0x482 JUMP JUMPDEST STOP JUMPDEST CALLVALUE DUP1 ISZERO PUSH2 0x14E JUMPI PUSH1 0x0 DUP1 REVERT JUMPDEST POP PUSH2 0x169 PUSH1 0x4 DUP1 CALLDATASIZE SUB DUP2 ADD SWAP1 PUSH2 0x164 SWAP2 SWAP1 PUSH2 0x260C JUMP JUMPDEST PUSH2 0x5ED JUMP JUMPDEST STOP JUMPDEST CALLVALUE DUP1 ISZERO PUSH2 0x177 JUMPI PUSH1 0x0 DUP1 REVERT JUMPDEST POP PUSH2 0x192 PUSH1 0x4 DUP1 CALLDATASIZE SUB DUP2 ADD SWAP1 PUSH2 0x18D SWAP2 SWAP1 PUSH2 0x268D JUMP JUMPDEST PUSH2 0x778 JUMP JUMPDEST STOP JUMPDEST CALLVALUE DUP1 ISZERO PUSH2 0x1A0 JUMPI PUSH1 0x0 DUP1 REVERT JUMPDEST POP PUSH2 0x1BB PUSH1 0x4 DUP1 CALLDATASIZE SUB DUP2 ADD SWAP1 PUSH2 0x1B6 SWAP2 SWAP1 PUSH2 0x2747 JUMP JUMPDEST PUSH2 0x9D6 JUMP JUMPDEST PUSH1 0x40 MLOAD PUSH2 0x1CE SWAP8 SWAP7 SWAP6 SWAP5 SWAP4 SWAP3 SWAP2 SWAP1 PUSH2 0x28C6 JUMP JUMPDEST PUSH1 0x40 MLOAD DUP1 SWAP2 SUB SWAP1 RETURN JUMPDEST CALLVALUE DUP1 ISZERO PUSH2 0x1E3 JUMPI PUSH1 0x0 DUP1 REVERT JUMPDEST POP PUSH2 0x1EC PUSH2 0xBC5 JUMP JUMPDEST PUSH1 0x40 MLOAD PUSH2 0x1FB SWAP4 SWAP3 SWAP2 SWAP1 PUSH2 0x2944 JUMP JUMPDEST PUSH1 0x40 MLOAD DUP1 SWAP2 SUB SWAP1 RETURN JUMPDEST CALLVALUE DUP1 ISZERO PUSH2 0x210 JUMPI PUSH1 0x0 DUP1 REVERT JUMPDEST POP PUSH2 0x219 PUSH2 0xBEA JUMP JUMPDEST PUSH1 0x40 MLOAD PUSH2 0x226 SWAP2 SWAP1 PUSH2 0x297B JUMP JUMPDEST PUSH1 0x40 MLOAD DUP1 SWAP2 SUB SWAP1 RETURN JUMPDEST CALLVALUE DUP1 ISZERO PUSH2 0x23B JUMPI PUSH1 0x0 DUP1 REVERT JUMPDEST POP PUSH2 0x256 PUSH1 0x4 DUP1 CALLDATASIZE SUB DUP2 ADD SWAP1 PUSH2 0x251 SWAP2 SWAP1 PUSH2 0x2996 JUMP JUMPDEST PUSH2 0xBF0 JUMP JUMPDEST PUSH1 0x40 MLOAD PUSH2 0x265 SWAP4 SWAP3 SWAP2 SWAP1 PUSH2 0x29C3 JUMP JUMPDEST PUSH1 0x40 MLOAD DUP1 SWAP2 SUB SWAP1 RETURN JUMPDEST CALLVALUE DUP1 ISZERO PUSH2 0x27A JUMPI PUSH1 0x0 DUP1 REVERT JUMPDEST POP PUSH2 0x295 PUSH1 0x4 DUP1 CALLDATASIZE SUB DUP2 ADD SWAP1 PUSH2 0x290 SWAP2 SWAP1 PUSH2 0x2996 JUMP JUMPDEST PUSH2 0xCCF JUMP JUMPDEST PUSH1 0x40 MLOAD PUSH2 0x2A4 SWAP4 SWAP3 SWAP2 SWAP1 PUSH2 0x2BCB JUMP JUMPDEST PUSH1 0x40 MLOAD DUP1 SWAP2 SUB SWAP1 RETURN JUMPDEST PUSH2 0x2C7 PUSH1 0x4 DUP1 CALLDATASIZE SUB DUP2 ADD SWAP1 PUSH2 0x2C2 SWAP2 SWAP1 PUSH2 0x2C17 JUMP JUMPDEST PUSH2 0xFA5 JUMP JUMPDEST STOP JUMPDEST CALLVALUE DUP1 ISZERO PUSH2 0x2D5 JUMPI PUSH1 0x0 DUP1 REVERT JUMPDEST POP PUSH2 0x2F0 PUSH1 0x4 DUP1 CALLDATASIZE SUB DUP2 ADD SWAP1 PUSH2 0x2EB SWAP2 SWAP1 PUSH2 0x2C44 JUMP JUMPDEST PUSH2 0x1289 JUMP JUMPDEST STOP JUMPDEST CALLVALUE DUP1 ISZERO PUSH2 0x2FE JUMPI PUSH1 0x0 DUP1 REVERT JUMPDEST POP PUSH2 0x319 PUSH1 0x4 DUP1 CALLDATASIZE SUB DUP2 ADD SWAP1 PUSH2 0x314 SWAP2 SWAP1 PUSH2 0x2CAB JUMP JUMPDEST PUSH2 0x14E8 JUMP JUMPDEST STOP JUMPDEST CALLVALUE DUP1 ISZERO PUSH2 0x327 JUMPI PUSH1 0x0 DUP1 REVERT JUMPDEST POP PUSH2 0x342 PUSH1 0x4 DUP1 CALLDATASIZE SUB DUP2 ADD SWAP1 PUSH2 0x33D SWAP2 SWAP1 PUSH2 0x2C44 JUMP JUMPDEST PUSH2 0x1644 JUMP JUMPDEST STOP JUMPDEST CALLVALUE DUP1 ISZERO PUSH2 0x350 JUMPI PUSH1 0x0 DUP1 REVERT JUMPDEST POP PUSH2 0x36B PUSH1 0x4 DUP1 CALLDATASIZE SUB DUP2 ADD SWAP1 PUSH2 0x366 SWAP2 SWAP1 PUSH2 0x2996 JUMP JUMPDEST PUSH2 0x18FC JUMP JUMPDEST PUSH1 0x40 MLOAD PUSH2 0x379 SWAP3 SWAP2 SWAP1 PUSH2 0x2D61 JUMP JUMPDEST PUSH1 0x40 MLOAD DUP1 SWAP2 SUB SWAP1 RETURN JUMPDEST CALLVALUE DUP1 ISZERO PUSH2 0x38E JUMPI PUSH1 0x0 DUP1 REVERT JUMPDEST POP PUSH2 0x397 PUSH2 0x19C8 JUMP JUMPDEST PUSH1 0x40 MLOAD PUSH2 0x3A4 SWAP2 SWAP1 PUSH2 0x297B JUMP JUMPDEST PUSH1 0x40 MLOAD DUP1 SWAP2 SUB SWAP1 RETURN JUMPDEST CALLVALUE DUP1 ISZERO PUSH2 0x3B9 JUMPI PUSH1 0x0 DUP1 REVERT JUMPDEST POP PUSH2 0x3D4 PUSH1 0x4 DUP1 CALLDATASIZE SUB DUP2 ADD SWAP1 PUSH2 0x3CF SWAP2 SWAP1 PUSH2 0x2996 JUMP JUMPDEST PUSH2 0x19CE JUMP JUMPDEST PUSH1 0x40 MLOAD PUSH2 0x3E5 SWAP6 SWAP5 SWAP4 SWAP3 SWAP2 SWAP1 PUSH2 0x2D91 JUMP JUMPDEST PUSH1 0x40 MLOAD DUP1 SWAP2 SUB SWAP1 RETURN JUMPDEST CALLVALUE DUP1 ISZERO PUSH2 0x3FA JUMPI PUSH1 0x0 DUP1 REVERT JUMPDEST POP PUSH2 0x403 PUSH2 0x1AB9 JUMP JUMPDEST PUSH1 0x40 MLOAD PUSH2 0x410 SWAP2 SWAP1 PUSH2 0x2DEB JUMP JUMPDEST PUSH1 0x40 MLOAD DUP1 SWAP2 SUB SWAP1 RETURN JUMPDEST CALLVALUE DUP1 ISZERO PUSH2 0x425 JUMPI PUSH1 0x0 DUP1 REVERT JUMPDEST POP PUSH2 0x440 PUSH1 0x4 DUP1 CALLDATASIZE SUB DUP2 ADD SWAP1 PUSH2 0x43B SWAP2 SWAP1 PUSH2 0x2E06 JUMP JUMPDEST PUSH2 0x1ADD JUMP JUMPDEST STOP JUMPDEST CALLVALUE DUP1 ISZERO PUSH2 0x44E JUMPI PUSH1 0x0 DUP1 REVERT JUMPDEST POP PUSH2 0x469 PUSH1 0x4 DUP1 CALLDATASIZE SUB DUP2 ADD SWAP1 PUSH2 0x464 SWAP2 SWAP1 PUSH2 0x260C JUMP JUMPDEST PUSH2 0x1CFC JUMP JUMPDEST STOP JUMPDEST CALLVALUE DUP1 ISZERO PUSH2 0x477 JUMPI PUSH1 0x0 DUP1 REVERT JUMPDEST POP PUSH2 0x480 PUSH2 0x1E69 JUMP JUMPDEST STOP JUMPDEST PUSH1 0x0 DUP1 SLOAD SWAP1 PUSH2 0x100 EXP SWAP1 DIV PUSH20 0xFFFFFFFFFFFFFFFFFFFFFFFFFFFFFFFFFFFFFFFF AND PUSH20 0xFFFFFFFFFFFFFFFFFFFFFFFFFFFFFFFFFFFFFFFF AND CALLER PUSH20 0xFFFFFFFFFFFFFFFFFFFFFFFFFFFFFFFFFFFFFFFF AND EQ PUSH2 0x510 JUMPI PUSH1 0x40 MLOAD PUSH32 0x8C379A000000000000000000000000000000000000000000000000000000000 DUP2 MSTORE PUSH1 0x4 ADD PUSH2 0x507 SWAP1 PUSH2 0x2EA5 JUMP JUMPDEST PUSH1 0x40 MLOAD DUP1 SWAP2 SUB SWAP1 REVERT JUMPDEST PUSH1 0x7 PUSH1 0x2 ADD PUSH1 0x0 SWAP1 SLOAD SWAP1 PUSH2 0x100 EXP SWAP1 DIV PUSH1 0xFF AND ISZERO PUSH2 0x563 JUMPI PUSH1 0x40 MLOAD PUSH32 0x8C379A000000000000000000000000000000000000000000000000000000000 DUP2 MSTORE PUSH1 0x4 ADD PUSH2 0x55A SWAP1 PUSH2 0x2F11 JUMP JUMPDEST PUSH1 0x40 MLOAD DUP1 SWAP2 SUB SWAP1 REVERT JUMPDEST PUSH1 0x0 DUP3 GT PUSH2 0x5A6 JUMPI PUSH1 0x40 MLOAD PUSH32 0x8C379A000000000000000000000000000000000000000000000000000000000 DUP2 MSTORE PUSH1 0x4 ADD PUSH2 0x59D SWAP1 PUSH2 0x2F7D JUMP JUMPDEST PUSH1 0x40 MLOAD DUP1 SWAP2 SUB SWAP1 REVERT JUMPDEST DUP2 PUSH1 0x7 PUSH1 0x0 ADD DUP2 SWAP1 SSTORE POP DUP1 PUSH1 0x7 PUSH1 0x1 ADD DUP2 SWAP1 SSTORE POP PUSH1 0x1 PUSH1 0x7 PUSH1 0x2 ADD PUSH1 0x0 PUSH2 0x100 EXP DUP2 SLOAD DUP2 PUSH1 0xFF MUL NOT AND SWAP1 DUP4 ISZERO ISZERO MUL OR SWAP1 SSTORE POP PUSH1 0x7 PUSH1 0x4 ADD PUSH1 0x0 PUSH2 0x5E9 SWAP2 SWAP1 PUSH2 0x2378 JUMP JUMPDEST POP POP JUMP JUMPDEST PUSH1 0x0 DUP1 SLOAD SWAP1 PUSH2 0x100 EXP SWAP1 DIV PUSH20 0xFFFFFFFFFFFFFFFFFFFFFFFFFFFFFFFFFFFFFFFF AND PUSH20 0xFFFFFFFFFFFFFFFFFFFFFFFFFFFFFFFFFFFFFFFF AND CALLER PUSH20 0xFFFFFFFFFFFFFFFFFFFFFFFFFFFFFFFFFFFFFFFF AND EQ PUSH2 0x67B JUMPI PUSH1 0x40 MLOAD PUSH32 0x8C379A000000000000000000000000000000000000000000000000000000000 DUP2 MSTORE PUSH1 0x4 ADD PUSH2 0x672 SWAP1 PUSH2 0x2EA5 JUMP JUMPDEST PUSH1 0x40 MLOAD DUP1 SWAP2 SUB SWAP1 REVERT JUMPDEST PUSH1 0x40 MLOAD DUP1 PUSH1 0x60 ADD PUSH1 0x40 MSTORE DUP1 DUP3 DUP2 MSTORE PUSH1 0x20 ADD CALLER PUSH20 0xFFFFFFFFFFFFFFFFFFFFFFFFFFFFFFFFFFFFFFFF AND DUP2 MSTORE PUSH1 0x20 ADD PUSH1 0x1 ISZERO ISZERO DUP2 MSTORE POP PUSH1 0x5 PUSH1 0x0 CALLER PUSH20 0xFFFFFFFFFFFFFFFFFFFFFFFFFFFFFFFFFFFFFFFF AND PUSH20 0xFFFFFFFFFFFFFFFFFFFFFFFFFFFFFFFFFFFFFFFF AND DUP2 MSTORE PUSH1 0x20 ADD SWAP1 DUP2 MSTORE PUSH1 0x20 ADD PUSH1 0x0 KECCAK256 PUSH1 0x0 DUP3 ADD MLOAD DUP2 PUSH1 0x0 ADD SWAP1 DUP1 MLOAD SWAP1 PUSH1 0x20 ADD SWAP1 PUSH2 0x70A SWAP3 SWAP2 SWAP1 PUSH2 0x2399 JUMP JUMPDEST POP PUSH1 0x20 DUP3 ADD MLOAD DUP2 PUSH1 0x1 ADD PUSH1 0x0 PUSH2 0x100 EXP DUP2 SLOAD DUP2 PUSH20 0xFFFFFFFFFFFFFFFFFFFFFFFFFFFFFFFFFFFFFFFF MUL NOT AND SWAP1 DUP4 PUSH20 0xFFFFFFFFFFFFFFFFFFFFFFFFFFFFFFFFFFFFFFFF AND MUL OR SWAP1 SSTORE POP PUSH1 0x40 DUP3 ADD MLOAD DUP2 PUSH1 0x1 ADD PUSH1 0x14 PUSH2 0x100 EXP DUP2 SLOAD DUP2 PUSH1 0xFF MUL NOT AND SWAP1 DUP4 ISZERO ISZERO MUL OR SWAP1 SSTORE POP SWAP1 POP POP POP JUMP JUMPDEST PUSH1 0x3 PUSH1 0x0 CALLER PUSH20 0xFFFFFFFFFFFFFFFFFFFFFFFFFFFFFFFFFFFFFFFF AND PUSH20 0xFFFFFFFFFFFFFFFFFFFFFFFFFFFFFFFFFFFFFFFF AND DUP2 MSTORE PUSH1 0x20 ADD SWAP1 DUP2 MSTORE PUSH1 0x20 ADD PUSH1 0x0 KECCAK256 PUSH1 0x40 MLOAD DUP1 PUSH1 0xE0 ADD PUSH1 0x40 MSTORE DUP1 DUP5 DUP2 MSTORE PUSH1 0x20 ADD CALLER PUSH20 0xFFFFFFFFFFFFFFFFFFFFFFFFFFFFFFFFFFFFFFFF AND DUP2 MSTORE PUSH1 0x20 ADD PUSH1 0x0 DUP2 MSTORE PUSH1 0x20 ADD PUSH1 0x40 MLOAD DUP1 PUSH1 0x20 ADD PUSH1 0x40 MSTORE DUP1 PUSH1 0x0 DUP2 MSTORE POP DUP2 MSTORE PUSH1 0x20 ADD PUSH1 0x1 ISZERO ISZERO DUP2 MSTORE PUSH1 0x20 ADD DUP4 ISZERO ISZERO DUP2 MSTORE PUSH1 0x20 ADD PUSH1 0x40 MLOAD DUP1 PUSH1 0xC0 ADD PUSH1 0x40 MSTORE DUP1 PUSH1 0x0 DUP2 MSTORE PUSH1 0x20 ADD PUSH1 0x0 DUP2 MSTORE PUSH1 0x20 ADD PUSH1 0x0 DUP2 MSTORE PUSH1 0x20 ADD PUSH1 0x0 DUP2 MSTORE PUSH1 0x20 ADD PUSH1 0x0 DUP2 MSTORE PUSH1 0x20 ADD PUSH1 0x0 DUP2 MSTORE POP DUP2 MSTORE POP SWAP1 DUP1 PUSH1 0x1 DUP2 SLOAD ADD DUP1 DUP3 SSTORE DUP1 SWAP2 POP POP PUSH1 0x1 SWAP1 SUB SWAP1 PUSH1 0x0 MSTORE PUSH1 0x20 PUSH1 0x0 KECCAK256 SWAP1 PUSH1 0xB MUL ADD PUSH1 0x0 SWAP1 SWAP2 SWAP1 SWAP2 SWAP1 SWAP2 POP PUSH1 0x0 DUP3 ADD MLOAD DUP2 PUSH1 0x0 ADD SWAP1 DUP1 MLOAD SWAP1 PUSH1 0x20 ADD SWAP1 PUSH2 0x88C SWAP3 SWAP2 SWAP1 PUSH2 0x2399 JUMP JUMPDEST POP PUSH1 0x20 DUP3 ADD MLOAD DUP2 PUSH1 0x1 ADD PUSH1 0x0 PUSH2 0x100 EXP DUP2 SLOAD DUP2 PUSH20 0xFFFFFFFFFFFFFFFFFFFFFFFFFFFFFFFFFFFFFFFF MUL NOT AND SWAP1 DUP4 PUSH20 0xFFFFFFFFFFFFFFFFFFFFFFFFFFFFFFFFFFFFFFFF AND MUL OR SWAP1 SSTORE POP PUSH1 0x40 DUP3 ADD MLOAD DUP2 PUSH1 0x2 ADD SSTORE PUSH1 0x60 DUP3 ADD MLOAD DUP2 PUSH1 0x3 ADD SWAP1 DUP1 MLOAD SWAP1 PUSH1 0x20 ADD SWAP1 PUSH2 0x8FA SWAP3 SWAP2 SWAP1 PUSH2 0x2399 JUMP JUMPDEST POP PUSH1 0x80 DUP3 ADD MLOAD DUP2 PUSH1 0x4 ADD PUSH1 0x0 PUSH2 0x100 EXP DUP2 SLOAD DUP2 PUSH1 0xFF MUL NOT AND SWAP1 DUP4 ISZERO ISZERO MUL OR SWAP1 SSTORE POP PUSH1 0xA0 DUP3 ADD MLOAD DUP2 PUSH1 0x4 ADD PUSH1 0x1 PUSH2 0x100 EXP DUP2 SLOAD DUP2 PUSH1 0xFF MUL NOT AND SWAP1 DUP4 ISZERO ISZERO MUL OR SWAP1 SSTORE POP PUSH1 0xC0 DUP3 ADD MLOAD DUP2 PUSH1 0x5 ADD PUSH1 0x0 DUP3 ADD MLOAD DUP2 PUSH1 0x0 ADD SSTORE PUSH1 0x20 DUP3 ADD MLOAD DUP2 PUSH1 0x1 ADD SSTORE PUSH1 0x40 DUP3 ADD MLOAD DUP2 PUSH1 0x2 ADD SSTORE PUSH1 0x60 DUP3 ADD MLOAD DUP2 PUSH1 0x3 ADD SSTORE PUSH1 0x80 DUP3 ADD MLOAD DUP2 PUSH1 0x4 ADD SSTORE PUSH1 0xA0 DUP3 ADD MLOAD DUP2 PUSH1 0x5 ADD SSTORE POP POP POP POP CALLER PUSH20 0xFFFFFFFFFFFFFFFFFFFFFFFFFFFFFFFFFFFFFFFF AND PUSH32 0x3265A4551BBFF34DC6F6F3C994F0F1516096FD7968C8590391C7A398E31851F2 DUP4 PUSH1 0x40 MLOAD PUSH2 0x9CA SWAP2 SWAP1 PUSH2 0x2F9D JUMP JUMPDEST PUSH1 0x40 MLOAD DUP1 SWAP2 SUB SWAP1 LOG2 POP POP JUMP JUMPDEST PUSH1 0x3 PUSH1 0x20 MSTORE DUP2 PUSH1 0x0 MSTORE PUSH1 0x40 PUSH1 0x0 KECCAK256 DUP2 DUP2 SLOAD DUP2 LT PUSH2 0x9F2 JUMPI PUSH1 0x0 DUP1 REVERT JUMPDEST SWAP1 PUSH1 0x0 MSTORE PUSH1 0x20 PUSH1 0x0 KECCAK256 SWAP1 PUSH1 0xB MUL ADD PUSH1 0x0 SWAP2 POP SWAP2 POP POP DUP1 PUSH1 0x0 ADD DUP1 SLOAD PUSH2 0xA16 SWAP1 PUSH2 0x2FEE JUMP JUMPDEST DUP1 PUSH1 0x1F ADD PUSH1 0x20 DUP1 SWAP2 DIV MUL PUSH1 0x20 ADD PUSH1 0x40 MLOAD SWAP1 DUP2 ADD PUSH1 0x40 MSTORE DUP1 SWAP3 SWAP2 SWAP1 DUP2 DUP2 MSTORE PUSH1 0x20 ADD DUP3 DUP1 SLOAD PUSH2 0xA42 SWAP1 PUSH2 0x2FEE JUMP JUMPDEST DUP1 ISZERO PUSH2 0xA8F JUMPI DUP1 PUSH1 0x1F LT PUSH2 0xA64 JUMPI PUSH2 0x100 DUP1 DUP4 SLOAD DIV MUL DUP4 MSTORE SWAP2 PUSH1 0x20 ADD SWAP2 PUSH2 0xA8F JUMP JUMPDEST DUP3 ADD SWAP2 SWAP1 PUSH1 0x0 MSTORE PUSH1 0x20 PUSH1 0x0 KECCAK256 SWAP1 JUMPDEST DUP2 SLOAD DUP2 MSTORE SWAP1 PUSH1 0x1 ADD SWAP1 PUSH1 0x20 ADD DUP1 DUP4 GT PUSH2 0xA72 JUMPI DUP3 SWAP1 SUB PUSH1 0x1F AND DUP3 ADD SWAP2 JUMPDEST POP POP POP POP POP SWAP1 DUP1 PUSH1 0x1 ADD PUSH1 0x0 SWAP1 SLOAD SWAP1 PUSH2 0x100 EXP SWAP1 DIV PUSH20 0xFFFFFFFFFFFFFFFFFFFFFFFFFFFFFFFFFFFFFFFF AND SWAP1 DUP1 PUSH1 0x2 ADD SLOAD SWAP1 DUP1 PUSH1 0x3 ADD DUP1 SLOAD PUSH2 0xAD0 SWAP1 PUSH2 0x2FEE JUMP JUMPDEST DUP1 PUSH1 0x1F ADD PUSH1 0x20 DUP1 SWAP2 DIV MUL PUSH1 0x20 ADD PUSH1 0x40 MLOAD SWAP1 DUP2 ADD PUSH1 0x40 MSTORE DUP1 SWAP3 SWAP2 SWAP1 DUP2 DUP2 MSTORE PUSH1 0x20 ADD DUP3 DUP1 SLOAD PUSH2 0xAFC SWAP1 PUSH2 0x2FEE JUMP JUMPDEST DUP1 ISZERO PUSH2 0xB49 JUMPI DUP1 PUSH1 0x1F LT PUSH2 0xB1E JUMPI PUSH2 0x100 DUP1 DUP4 SLOAD DIV MUL DUP4 MSTORE SWAP2 PUSH1 0x20 ADD SWAP2 PUSH2 0xB49 JUMP JUMPDEST DUP3 ADD SWAP2 SWAP1 PUSH1 0x0 MSTORE PUSH1 0x20 PUSH1 0x0 KECCAK256 SWAP1 JUMPDEST DUP2 SLOAD DUP2 MSTORE SWAP1 PUSH1 0x1 ADD SWAP1 PUSH1 0x20 ADD DUP1 DUP4 GT PUSH2 0xB2C JUMPI DUP3 SWAP1 SUB PUSH1 0x1F AND DUP3 ADD SWAP2 JUMPDEST POP POP POP POP POP SWAP1 DUP1 PUSH1 0x4 ADD PUSH1 0x0 SWAP1 SLOAD SWAP1 PUSH2 0x100 EXP SWAP1 DIV PUSH1 0xFF AND SWAP1 DUP1 PUSH1 0x4 ADD PUSH1 0x1 SWAP1 SLOAD SWAP1 PUSH2 0x100 EXP SWAP1 DIV PUSH1 0xFF AND SWAP1 DUP1 PUSH1 0x5 ADD PUSH1 0x40 MLOAD DUP1 PUSH1 0xC0 ADD PUSH1 0x40 MSTORE SWAP1 DUP2 PUSH1 0x0 DUP3 ADD SLOAD DUP2 MSTORE PUSH1 0x20 ADD PUSH1 0x1 DUP3 ADD SLOAD DUP2 MSTORE PUSH1 0x20 ADD PUSH1 0x2 DUP3 ADD SLOAD DUP2 MSTORE PUSH1 0x20 ADD PUSH1 0x3 DUP3 ADD SLOAD DUP2 MSTORE PUSH1 0x20 ADD PUSH1 0x4 DUP3 ADD SLOAD DUP2 MSTORE PUSH1 0x20 ADD PUSH1 0x5 DUP3 ADD SLOAD DUP2 MSTORE POP POP SWAP1 POP DUP8 JUMP JUMPDEST PUSH1 0x7 DUP1 PUSH1 0x0 ADD SLOAD SWAP1 DUP1 PUSH1 0x1 ADD SLOAD SWAP1 DUP1 PUSH1 0x2 ADD PUSH1 0x0 SWAP1 SLOAD SWAP1 PUSH2 0x100 EXP SWAP1 DIV PUSH1 0xFF AND SWAP1 POP DUP4 JUMP JUMPDEST PUSH1 0x1 SLOAD DUP2 JUMP JUMPDEST PUSH1 0x5 PUSH1 0x20 MSTORE DUP1 PUSH1 0x0 MSTORE PUSH1 0x40 PUSH1 0x0 KECCAK256 PUSH1 0x0 SWAP2 POP SWAP1 POP DUP1 PUSH1 0x0 ADD DUP1 SLOAD PUSH2 0xC13 SWAP1 PUSH2 0x2FEE JUMP JUMPDEST DUP1 PUSH1 0x1F ADD PUSH1 0x20 DUP1 SWAP2 DIV MUL PUSH1 0x20 ADD PUSH1 0x40 MLOAD SWAP1 DUP2 ADD PUSH1 0x40 MSTORE DUP1 SWAP3 SWAP2 SWAP1 DUP2 DUP2 MSTORE PUSH1 0x20 ADD DUP3 DUP1 SLOAD PUSH2 0xC3F SWAP1 PUSH2 0x2FEE JUMP JUMPDEST DUP1 ISZERO PUSH2 0xC8C JUMPI DUP1 PUSH1 0x1F LT PUSH2 0xC61 JUMPI PUSH2 0x100 DUP1 DUP4 SLOAD DIV MUL DUP4 MSTORE SWAP2 PUSH1 0x20 ADD SWAP2 PUSH2 0xC8C JUMP JUMPDEST DUP3 ADD SWAP2 SWAP1 PUSH1 0x0 MSTORE PUSH1 0x20 PUSH1 0x0 KECCAK256 SWAP1 JUMPDEST DUP2 SLOAD DUP2 MSTORE SWAP1 PUSH1 0x1 ADD SWAP1 PUSH1 0x20 ADD DUP1 DUP4 GT PUSH2 0xC6F JUMPI DUP3 SWAP1 SUB PUSH1 0x1F AND DUP3 ADD SWAP2 JUMPDEST POP POP POP POP POP SWAP1 DUP1 PUSH1 0x1 ADD PUSH1 0x0 SWAP1 SLOAD SWAP1 PUSH2 0x100 EXP SWAP1 DIV PUSH20 0xFFFFFFFFFFFFFFFFFFFFFFFFFFFFFFFFFFFFFFFF AND SWAP1 DUP1 PUSH1 0x1 ADD PUSH1 0x14 SWAP1 SLOAD SWAP1 PUSH2 0x100 EXP SWAP1 DIV PUSH1 0xFF AND SWAP1 POP DUP4 JUMP JUMPDEST PUSH1 0x60 DUP1 PUSH1 0x60 PUSH1 0x0 PUSH1 0x3 PUSH1 0x0 DUP7 PUSH20 0xFFFFFFFFFFFFFFFFFFFFFFFFFFFFFFFFFFFFFFFF AND PUSH20 0xFFFFFFFFFFFFFFFFFFFFFFFFFFFFFFFFFFFFFFFF AND DUP2 MSTORE PUSH1 0x20 ADD SWAP1 DUP2 MSTORE PUSH1 0x20 ADD PUSH1 0x0 KECCAK256 DUP1 SLOAD SWAP1 POP SWAP1 POP DUP1 PUSH8 0xFFFFFFFFFFFFFFFF DUP2 GT ISZERO PUSH2 0xD35 JUMPI PUSH2 0xD34 PUSH2 0x24E1 JUMP JUMPDEST JUMPDEST PUSH1 0x40 MLOAD SWAP1 DUP1 DUP3 MSTORE DUP1 PUSH1 0x20 MUL PUSH1 0x20 ADD DUP3 ADD PUSH1 0x40 MSTORE DUP1 ISZERO PUSH2 0xD68 JUMPI DUP2 PUSH1 0x20 ADD JUMPDEST PUSH1 0x60 DUP2 MSTORE PUSH1 0x20 ADD SWAP1 PUSH1 0x1 SWAP1 SUB SWAP1 DUP2 PUSH2 0xD53 JUMPI SWAP1 POP JUMPDEST POP SWAP4 POP DUP1 PUSH8 0xFFFFFFFFFFFFFFFF DUP2 GT ISZERO PUSH2 0xD85 JUMPI PUSH2 0xD84 PUSH2 0x24E1 JUMP JUMPDEST JUMPDEST PUSH1 0x40 MLOAD SWAP1 DUP1 DUP3 MSTORE DUP1 PUSH1 0x20 MUL PUSH1 0x20 ADD DUP3 ADD PUSH1 0x40 MSTORE DUP1 ISZERO PUSH2 0xDB3 JUMPI DUP2 PUSH1 0x20 ADD PUSH1 0x20 DUP3 MUL DUP1 CALLDATASIZE DUP4 CALLDATACOPY DUP1 DUP3 ADD SWAP2 POP POP SWAP1 POP JUMPDEST POP SWAP3 POP DUP1 PUSH8 0xFFFFFFFFFFFFFFFF DUP2 GT ISZERO PUSH2 0xDD0 JUMPI PUSH2 0xDCF PUSH2 0x24E1 JUMP JUMPDEST JUMPDEST PUSH1 0x40 MLOAD SWAP1 DUP1 DUP3 MSTORE DUP1 PUSH1 0x20 MUL PUSH1 0x20 ADD DUP3 ADD PUSH1 0x40 MSTORE DUP1 ISZERO PUSH2 0xDFE JUMPI DUP2 PUSH1 0x20 ADD PUSH1 0x20 DUP3 MUL DUP1 CALLDATASIZE DUP4 CALLDATACOPY DUP1 DUP3 ADD SWAP2 POP POP SWAP1 POP JUMPDEST POP SWAP2 POP PUSH1 0x0 JUMPDEST DUP2 DUP2 LT ISZERO PUSH2 0xF9C JUMPI PUSH1 0x0 PUSH1 0x3 PUSH1 0x0 DUP9 PUSH20 0xFFFFFFFFFFFFFFFFFFFFFFFFFFFFFFFFFFFFFFFF AND PUSH20 0xFFFFFFFFFFFFFFFFFFFFFFFFFFFFFFFFFFFFFFFF AND DUP2 MSTORE PUSH1 0x20 ADD SWAP1 DUP2 MSTORE PUSH1 0x20 ADD PUSH1 0x0 KECCAK256 DUP3 DUP2 SLOAD DUP2 LT PUSH2 0xE5F JUMPI PUSH2 0xE5E PUSH2 0x3020 JUMP JUMPDEST JUMPDEST SWAP1 PUSH1 0x0 MSTORE PUSH1 0x20 PUSH1 0x0 KECCAK256 SWAP1 PUSH1 0xB MUL ADD SWAP1 POP DUP1 PUSH1 0x0 ADD DUP1 SLOAD PUSH2 0xE7E SWAP1 PUSH2 0x2FEE JUMP JUMPDEST DUP1 PUSH1 0x1F ADD PUSH1 0x20 DUP1 SWAP2 DIV MUL PUSH1 0x20 ADD PUSH1 0x40 MLOAD SWAP1 DUP2 ADD PUSH1 0x40 MSTORE DUP1 SWAP3 SWAP2 SWAP1 DUP2 DUP2 MSTORE PUSH1 0x20 ADD DUP3 DUP1 SLOAD PUSH2 0xEAA SWAP1 PUSH2 0x2FEE JUMP JUMPDEST DUP1 ISZERO PUSH2 0xEF7 JUMPI DUP1 PUSH1 0x1F LT PUSH2 0xECC JUMPI PUSH2 0x100 DUP1 DUP4 SLOAD DIV MUL DUP4 MSTORE SWAP2 PUSH1 0x20 ADD SWAP2 PUSH2 0xEF7 JUMP JUMPDEST DUP3 ADD SWAP2 SWAP1 PUSH1 0x0 MSTORE PUSH1 0x20 PUSH1 0x0 KECCAK256 SWAP1 JUMPDEST DUP2 SLOAD DUP2 MSTORE SWAP1 PUSH1 0x1 ADD SWAP1 PUSH1 0x20 ADD DUP1 DUP4 GT PUSH2 0xEDA JUMPI DUP3 SWAP1 SUB PUSH1 0x1F AND DUP3 ADD SWAP2 JUMPDEST POP POP POP POP POP DUP7 DUP4 DUP2 MLOAD DUP2 LT PUSH2 0xF0F JUMPI PUSH2 0xF0E PUSH2 0x3020 JUMP JUMPDEST JUMPDEST PUSH1 0x20 MUL PUSH1 0x20 ADD ADD DUP2 SWAP1 MSTORE POP DUP1 PUSH1 0x4 ADD PUSH1 0x0 SWAP1 SLOAD SWAP1 PUSH2 0x100 EXP SWAP1 DIV PUSH1 0xFF AND DUP6 DUP4 DUP2 MLOAD DUP2 LT PUSH2 0xF3F JUMPI PUSH2 0xF3E PUSH2 0x3020 JUMP JUMPDEST JUMPDEST PUSH1 0x20 MUL PUSH1 0x20 ADD ADD SWAP1 ISZERO ISZERO SWAP1 DUP2 ISZERO ISZERO DUP2 MSTORE POP POP DUP1 PUSH1 0x4 ADD PUSH1 0x1 SWAP1 SLOAD SWAP1 PUSH2 0x100 EXP SWAP1 DIV PUSH1 0xFF AND DUP5 DUP4 DUP2 MLOAD DUP2 LT PUSH2 0xF76 JUMPI PUSH2 0xF75 PUSH2 0x3020 JUMP JUMPDEST JUMPDEST PUSH1 0x20 MUL PUSH1 0x20 ADD ADD SWAP1 ISZERO ISZERO SWAP1 DUP2 ISZERO ISZERO DUP2 MSTORE POP POP POP DUP1 DUP1 PUSH2 0xF94 SWAP1 PUSH2 0x307E JUMP JUMPDEST SWAP2 POP POP PUSH2 0xE04 JUMP JUMPDEST POP POP SWAP2 SWAP4 SWAP1 SWAP3 POP JUMP JUMPDEST PUSH1 0x7 PUSH1 0x2 ADD PUSH1 0x0 SWAP1 SLOAD SWAP1 PUSH2 0x100 EXP SWAP1 DIV PUSH1 0xFF AND PUSH2 0xFF7 JUMPI PUSH1 0x40 MLOAD PUSH32 0x8C379A000000000000000000000000000000000000000000000000000000000 DUP2 MSTORE PUSH1 0x4 ADD PUSH2 0xFEE SWAP1 PUSH2 0x3113 JUMP JUMPDEST PUSH1 0x40 MLOAD DUP1 SWAP2 SUB SWAP1 REVERT JUMPDEST PUSH1 0x0 DUP2 GT PUSH2 0x103A JUMPI PUSH1 0x40 MLOAD PUSH32 0x8C379A000000000000000000000000000000000000000000000000000000000 DUP2 MSTORE PUSH1 0x4 ADD PUSH2 0x1031 SWAP1 PUSH2 0x317F JUMP JUMPDEST PUSH1 0x40 MLOAD DUP1 SWAP2 SUB SWAP1 REVERT JUMPDEST PUSH1 0x64 PUSH1 0xF PUSH1 0x7 PUSH1 0x0 ADD SLOAD PUSH2 0x104E SWAP2 SWAP1 PUSH2 0x319F JUMP JUMPDEST PUSH2 0x1058 SWAP2 SWAP1 PUSH2 0x3228 JUMP JUMPDEST DUP2 GT ISZERO PUSH2 0x109A JUMPI PUSH1 0x40 MLOAD PUSH32 0x8C379A000000000000000000000000000000000000000000000000000000000 DUP2 MSTORE PUSH1 0x4 ADD PUSH2 0x1091 SWAP1 PUSH2 0x32A5 JUMP JUMPDEST PUSH1 0x40 MLOAD DUP1 SWAP2 SUB SWAP1 REVERT JUMPDEST PUSH1 0x7 PUSH1 0x1 ADD SLOAD DUP2 PUSH2 0x10AB SWAP2 SWAP1 PUSH2 0x319F JUMP JUMPDEST CALLVALUE EQ PUSH2 0x10EC JUMPI PUSH1 0x40 MLOAD PUSH32 0x8C379A000000000000000000000000000000000000000000000000000000000 DUP2 MSTORE PUSH1 0x4 ADD PUSH2 0x10E3 SWAP1 PUSH2 0x3311 JUMP JUMPDEST PUSH1 0x40 MLOAD DUP1 SWAP2 SUB SWAP1 REVERT JUMPDEST PUSH1 0x0 PUSH1 0x7 PUSH1 0x3 ADD PUSH1 0x0 CALLER PUSH20 0xFFFFFFFFFFFFFFFFFFFFFFFFFFFFFFFFFFFFFFFF AND PUSH20 0xFFFFFFFFFFFFFFFFFFFFFFFFFFFFFFFFFFFFFFFF AND DUP2 MSTORE PUSH1 0x20 ADD SWAP1 DUP2 MSTORE PUSH1 0x20 ADD PUSH1 0x0 KECCAK256 PUSH1 0x0 ADD SLOAD EQ PUSH2 0x1174 JUMPI PUSH1 0x40 MLOAD PUSH32 0x8C379A000000000000000000000000000000000000000000000000000000000 DUP2 MSTORE PUSH1 0x4 ADD PUSH2 0x116B SWAP1 PUSH2 0x337D JUMP JUMPDEST PUSH1 0x40 MLOAD DUP1 SWAP2 SUB SWAP1 REVERT JUMPDEST PUSH1 0x40 MLOAD DUP1 PUSH1 0x20 ADD PUSH1 0x40 MSTORE DUP1 DUP3 DUP2 MSTORE POP PUSH1 0x7 PUSH1 0x3 ADD PUSH1 0x0 CALLER PUSH20 0xFFFFFFFFFFFFFFFFFFFFFFFFFFFFFFFFFFFFFFFF AND PUSH20 0xFFFFFFFFFFFFFFFFFFFFFFFFFFFFFFFFFFFFFFFF AND DUP2 MSTORE PUSH1 0x20 ADD SWAP1 DUP2 MSTORE PUSH1 0x20 ADD PUSH1 0x0 KECCAK256 PUSH1 0x0 DUP3 ADD MLOAD DUP2 PUSH1 0x0 ADD SSTORE SWAP1 POP POP PUSH1 0x7 PUSH1 0x4 ADD CALLER SWAP1 DUP1 PUSH1 0x1 DUP2 SLOAD ADD DUP1 DUP3 SSTORE DUP1 SWAP2 POP POP PUSH1 0x1 SWAP1 SUB SWAP1 PUSH1 0x0 MSTORE PUSH1 0x20 PUSH1 0x0 KECCAK256 ADD PUSH1 0x0 SWAP1 SWAP2 SWAP1 SWAP2 SWAP1 SWAP2 PUSH2 0x100 EXP DUP2 SLOAD DUP2 PUSH20 0xFFFFFFFFFFFFFFFFFFFFFFFFFFFFFFFFFFFFFFFF MUL NOT AND SWAP1 DUP4 PUSH20 0xFFFFFFFFFFFFFFFFFFFFFFFFFFFFFFFFFFFFFFFF AND MUL OR SWAP1 SSTORE POP CALLER PUSH20 0xFFFFFFFFFFFFFFFFFFFFFFFFFFFFFFFFFFFFFFFF AND PUSH32 0x5774C60EBE7FA63590B3BE5117173B088BCF881A3294D58FEE441AE1F022AF36 DUP3 PUSH1 0x40 MLOAD PUSH2 0x127E SWAP2 SWAP1 PUSH2 0x297B JUMP JUMPDEST PUSH1 0x40 MLOAD DUP1 SWAP2 SUB SWAP1 LOG2 POP JUMP JUMPDEST PUSH1 0x3 PUSH1 0x0 CALLER PUSH20 0xFFFFFFFFFFFFFFFFFFFFFFFFFFFFFFFFFFFFFFFF AND PUSH20 0xFFFFFFFFFFFFFFFFFFFFFFFFFFFFFFFFFFFFFFFF AND DUP2 MSTORE PUSH1 0x20 ADD SWAP1 DUP2 MSTORE PUSH1 0x20 ADD PUSH1 0x0 KECCAK256 DUP1 SLOAD SWAP1 POP DUP4 LT PUSH2 0x130D JUMPI PUSH1 0x40 MLOAD PUSH32 0x8C379A000000000000000000000000000000000000000000000000000000000 DUP2 MSTORE PUSH1 0x4 ADD PUSH2 0x1304 SWAP1 PUSH2 0x33E9 JUMP JUMPDEST PUSH1 0x40 MLOAD DUP1 SWAP2 SUB SWAP1 REVERT JUMPDEST PUSH1 0x3 PUSH1 0x0 DUP6 PUSH20 0xFFFFFFFFFFFFFFFFFFFFFFFFFFFFFFFFFFFFFFFF AND PUSH20 0xFFFFFFFFFFFFFFFFFFFFFFFFFFFFFFFFFFFFFFFF AND DUP2 MSTORE PUSH1 0x20 ADD SWAP1 DUP2 MSTORE PUSH1 0x20 ADD PUSH1 0x0 KECCAK256 DUP1 SLOAD SWAP1 POP DUP3 LT PUSH2 0x1391 JUMPI PUSH1 0x40 MLOAD PUSH32 0x8C379A000000000000000000000000000000000000000000000000000000000 DUP2 MSTORE PUSH1 0x4 ADD PUSH2 0x1388 SWAP1 PUSH2 0x3455 JUMP JUMPDEST PUSH1 0x40 MLOAD DUP1 SWAP2 SUB SWAP1 REVERT JUMPDEST PUSH1 0x0 PUSH1 0x3 PUSH1 0x0 CALLER PUSH20 0xFFFFFFFFFFFFFFFFFFFFFFFFFFFFFFFFFFFFFFFF AND PUSH20 0xFFFFFFFFFFFFFFFFFFFFFFFFFFFFFFFFFFFFFFFF AND DUP2 MSTORE PUSH1 0x20 ADD SWAP1 DUP2 MSTORE PUSH1 0x20 ADD PUSH1 0x0 KECCAK256 DUP5 DUP2 SLOAD DUP2 LT PUSH2 0x13E4 JUMPI PUSH2 0x13E3 PUSH2 0x3020 JUMP JUMPDEST JUMPDEST SWAP1 PUSH1 0x0 MSTORE PUSH1 0x20 PUSH1 0x0 KECCAK256 SWAP1 PUSH1 0xB MUL ADD SWAP1 POP PUSH1 0x0 PUSH1 0x3 PUSH1 0x0 DUP8 PUSH20 0xFFFFFFFFFFFFFFFFFFFFFFFFFFFFFFFFFFFFFFFF AND PUSH20 0xFFFFFFFFFFFFFFFFFFFFFFFFFFFFFFFFFFFFFFFF AND DUP2 MSTORE PUSH1 0x20 ADD SWAP1 DUP2 MSTORE PUSH1 0x20 ADD PUSH1 0x0 KECCAK256 DUP5 DUP2 SLOAD DUP2 LT PUSH2 0x1447 JUMPI PUSH2 0x1446 PUSH2 0x3020 JUMP JUMPDEST JUMPDEST SWAP1 PUSH1 0x0 MSTORE PUSH1 0x20 PUSH1 0x0 KECCAK256 SWAP1 PUSH1 0xB MUL ADD SWAP1 POP PUSH1 0x0 DUP4 GT DUP1 ISZERO PUSH2 0x146B JUMPI POP DUP3 DUP3 PUSH1 0x2 ADD SLOAD LT ISZERO JUMPDEST PUSH2 0x14AA JUMPI PUSH1 0x40 MLOAD PUSH32 0x8C379A000000000000000000000000000000000000000000000000000000000 DUP2 MSTORE PUSH1 0x4 ADD PUSH2 0x14A1 SWAP1 PUSH2 0x34C1 JUMP JUMPDEST PUSH1 0x40 MLOAD DUP1 SWAP2 SUB SWAP1 REVERT JUMPDEST DUP3 DUP2 PUSH1 0x2 ADD PUSH1 0x0 DUP3 DUP3 SLOAD PUSH2 0x14BE SWAP2 SWAP1 PUSH2 0x34E1 JUMP JUMPDEST SWAP3 POP POP DUP2 SWAP1 SSTORE POP DUP3 DUP3 PUSH1 0x2 ADD PUSH1 0x0 DUP3 DUP3 SLOAD PUSH2 0x14D9 SWAP2 SWAP1 PUSH2 0x3537 JUMP JUMPDEST SWAP3 POP POP DUP2 SWAP1 SSTORE POP POP POP POP POP POP POP JUMP JUMPDEST PUSH1 0x3 PUSH1 0x0 DUP10 PUSH20 0xFFFFFFFFFFFFFFFFFFFFFFFFFFFFFFFFFFFFFFFF AND PUSH20 0xFFFFFFFFFFFFFFFFFFFFFFFFFFFFFFFFFFFFFFFF AND DUP2 MSTORE PUSH1 0x20 ADD SWAP1 DUP2 MSTORE PUSH1 0x20 ADD PUSH1 0x0 KECCAK256 DUP1 SLOAD SWAP1 POP DUP8 LT PUSH2 0x156C JUMPI PUSH1 0x40 MLOAD PUSH32 0x8C379A000000000000000000000000000000000000000000000000000000000 DUP2 MSTORE PUSH1 0x4 ADD PUSH2 0x1563 SWAP1 PUSH2 0x35B7 JUMP JUMPDEST PUSH1 0x40 MLOAD DUP1 SWAP2 SUB SWAP1 REVERT JUMPDEST PUSH1 0x40 MLOAD DUP1 PUSH1 0xC0 ADD PUSH1 0x40 MSTORE DUP1 DUP8 DUP2 MSTORE PUSH1 0x20 ADD DUP7 DUP2 MSTORE PUSH1 0x20 ADD DUP6 DUP2 MSTORE PUSH1 0x20 ADD DUP5 DUP2 MSTORE PUSH1 0x20 ADD DUP4 DUP2 MSTORE PUSH1 0x20 ADD DUP3 DUP2 MSTORE POP PUSH1 0x3 PUSH1 0x0 DUP11 PUSH20 0xFFFFFFFFFFFFFFFFFFFFFFFFFFFFFFFFFFFFFFFF AND PUSH20 0xFFFFFFFFFFFFFFFFFFFFFFFFFFFFFFFFFFFFFFFF AND DUP2 MSTORE PUSH1 0x20 ADD SWAP1 DUP2 MSTORE PUSH1 0x20 ADD PUSH1 0x0 KECCAK256 DUP9 DUP2 SLOAD DUP2 LT PUSH2 0x15EA JUMPI PUSH2 0x15E9 PUSH2 0x3020 JUMP JUMPDEST JUMPDEST SWAP1 PUSH1 0x0 MSTORE PUSH1 0x20 PUSH1 0x0 KECCAK256 SWAP1 PUSH1 0xB MUL ADD PUSH1 0x5 ADD PUSH1 0x0 DUP3 ADD MLOAD DUP2 PUSH1 0x0 ADD SSTORE PUSH1 0x20 DUP3 ADD MLOAD DUP2 PUSH1 0x1 ADD SSTORE PUSH1 0x40 DUP3 ADD MLOAD DUP2 PUSH1 0x2 ADD SSTORE PUSH1 0x60 DUP3 ADD MLOAD DUP2 PUSH1 0x3 ADD SSTORE PUSH1 0x80 DUP3 ADD MLOAD DUP2 PUSH1 0x4 ADD SSTORE PUSH1 0xA0 DUP3 ADD MLOAD DUP2 PUSH1 0x5 ADD SSTORE SWAP1 POP POP POP POP POP POP POP POP POP POP JUMP JUMPDEST PUSH1 0x3 PUSH1 0x0 CALLER PUSH20 0xFFFFFFFFFFFFFFFFFFFFFFFFFFFFFFFFFFFFFFFF AND PUSH20 0xFFFFFFFFFFFFFFFFFFFFFFFFFFFFFFFFFFFFFFFF AND DUP2 MSTORE PUSH1 0x20 ADD SWAP1 DUP2 MSTORE PUSH1 0x20 ADD PUSH1 0x0 KECCAK256 DUP1 SLOAD SWAP1 POP DUP4 LT PUSH2 0x16C8 JUMPI PUSH1 0x40 MLOAD PUSH32 0x8C379A000000000000000000000000000000000000000000000000000000000 DUP2 MSTORE PUSH1 0x4 ADD PUSH2 0x16BF SWAP1 PUSH2 0x33E9 JUMP JUMPDEST PUSH1 0x40 MLOAD DUP1 SWAP2 SUB SWAP1 REVERT JUMPDEST PUSH1 0x3 PUSH1 0x0 DUP6 PUSH20 0xFFFFFFFFFFFFFFFFFFFFFFFFFFFFFFFFFFFFFFFF AND PUSH20 0xFFFFFFFFFFFFFFFFFFFFFFFFFFFFFFFFFFFFFFFF AND DUP2 MSTORE PUSH1 0x20 ADD SWAP1 DUP2 MSTORE PUSH1 0x20 ADD PUSH1 0x0 KECCAK256 DUP1 SLOAD SWAP1 POP DUP3 LT PUSH2 0x174C JUMPI PUSH1 0x40 MLOAD PUSH32 0x8C379A000000000000000000000000000000000000000000000000000000000 DUP2 MSTORE PUSH1 0x4 ADD PUSH2 0x1743 SWAP1 PUSH2 0x3455 JUMP JUMPDEST PUSH1 0x40 MLOAD DUP1 SWAP2 SUB SWAP1 REVERT JUMPDEST PUSH1 0x0 PUSH1 0x3 PUSH1 0x0 CALLER PUSH20 0xFFFFFFFFFFFFFFFFFFFFFFFFFFFFFFFFFFFFFFFF AND PUSH20 0xFFFFFFFFFFFFFFFFFFFFFFFFFFFFFFFFFFFFFFFF AND DUP2 MSTORE PUSH1 0x20 ADD SWAP1 DUP2 MSTORE PUSH1 0x20 ADD PUSH1 0x0 KECCAK256 DUP5 DUP2 SLOAD DUP2 LT PUSH2 0x179F JUMPI PUSH2 0x179E PUSH2 0x3020 JUMP JUMPDEST JUMPDEST SWAP1 PUSH1 0x0 MSTORE PUSH1 0x20 PUSH1 0x0 KECCAK256 SWAP1 PUSH1 0xB MUL ADD SWAP1 POP PUSH1 0x0 PUSH1 0x3 PUSH1 0x0 DUP8 PUSH20 0xFFFFFFFFFFFFFFFFFFFFFFFFFFFFFFFFFFFFFFFF AND PUSH20 0xFFFFFFFFFFFFFFFFFFFFFFFFFFFFFFFFFFFFFFFF AND DUP2 MSTORE PUSH1 0x20 ADD SWAP1 DUP2 MSTORE PUSH1 0x20 ADD PUSH1 0x0 KECCAK256 DUP5 DUP2 SLOAD DUP2 LT PUSH2 0x1802 JUMPI PUSH2 0x1801 PUSH2 0x3020 JUMP JUMPDEST JUMPDEST SWAP1 PUSH1 0x0 MSTORE PUSH1 0x20 PUSH1 0x0 KECCAK256 SWAP1 PUSH1 0xB MUL ADD SWAP1 POP DUP3 DUP3 PUSH1 0x2 ADD SLOAD LT ISZERO PUSH2 0x1859 JUMPI PUSH1 0x40 MLOAD PUSH32 0x8C379A000000000000000000000000000000000000000000000000000000000 DUP2 MSTORE PUSH1 0x4 ADD PUSH2 0x1850 SWAP1 PUSH2 0x3623 JUMP JUMPDEST PUSH1 0x40 MLOAD DUP1 SWAP2 SUB SWAP1 REVERT JUMPDEST DUP3 DUP3 PUSH1 0x2 ADD PUSH1 0x0 DUP3 DUP3 SLOAD PUSH2 0x186D SWAP2 SWAP1 PUSH2 0x3537 JUMP JUMPDEST SWAP3 POP POP DUP2 SWAP1 SSTORE POP DUP3 DUP2 PUSH1 0x2 ADD PUSH1 0x0 DUP3 DUP3 SLOAD PUSH2 0x1888 SWAP2 SWAP1 PUSH2 0x34E1 JUMP JUMPDEST SWAP3 POP POP DUP2 SWAP1 SSTORE POP DUP6 PUSH20 0xFFFFFFFFFFFFFFFFFFFFFFFFFFFFFFFFFFFFFFFF AND CALLER PUSH20 0xFFFFFFFFFFFFFFFFFFFFFFFFFFFFFFFFFFFFFFFF AND PUSH32 0xCE6BDD003C99B8DAA3BF63CF6A00E43811F73AF3DC2DD0B99554A7890A22B2BC DUP6 PUSH1 0x40 MLOAD PUSH2 0x18EC SWAP2 SWAP1 PUSH2 0x297B JUMP JUMPDEST PUSH1 0x40 MLOAD DUP1 SWAP2 SUB SWAP1 LOG3 POP POP POP POP POP POP JUMP JUMPDEST PUSH1 0x6 PUSH1 0x20 MSTORE DUP1 PUSH1 0x0 MSTORE PUSH1 0x40 PUSH1 0x0 KECCAK256 PUSH1 0x0 SWAP2 POP SWAP1 POP DUP1 PUSH1 0x0 ADD DUP1 SLOAD PUSH2 0x191F SWAP1 PUSH2 0x2FEE JUMP JUMPDEST DUP1 PUSH1 0x1F ADD PUSH1 0x20 DUP1 SWAP2 DIV MUL PUSH1 0x20 ADD PUSH1 0x40 MLOAD SWAP1 DUP2 ADD PUSH1 0x40 MSTORE DUP1 SWAP3 SWAP2 SWAP1 DUP2 DUP2 MSTORE PUSH1 0x20 ADD DUP3 DUP1 SLOAD PUSH2 0x194B SWAP1 PUSH2 0x2FEE JUMP JUMPDEST DUP1 ISZERO PUSH2 0x1998 JUMPI DUP1 PUSH1 0x1F LT PUSH2 0x196D JUMPI PUSH2 0x100 DUP1 DUP4 SLOAD DIV MUL DUP4 MSTORE SWAP2 PUSH1 0x20 ADD SWAP2 PUSH2 0x1998 JUMP JUMPDEST DUP3 ADD SWAP2 SWAP1 PUSH1 0x0 MSTORE PUSH1 0x20 PUSH1 0x0 KECCAK256 SWAP1 JUMPDEST DUP2 SLOAD DUP2 MSTORE SWAP1 PUSH1 0x1 ADD SWAP1 PUSH1 0x20 ADD DUP1 DUP4 GT PUSH2 0x197B JUMPI DUP3 SWAP1 SUB PUSH1 0x1F AND DUP3 ADD SWAP2 JUMPDEST POP POP POP POP POP SWAP1 DUP1 PUSH1 0x1 ADD PUSH1 0x0 SWAP1 SLOAD SWAP1 PUSH2 0x100 EXP SWAP1 DIV PUSH20 0xFFFFFFFFFFFFFFFFFFFFFFFFFFFFFFFFFFFFFFFF AND SWAP1 POP DUP3 JUMP JUMPDEST PUSH1 0x2 SLOAD DUP2 JUMP JUMPDEST PUSH1 0x4 PUSH1 0x20 MSTORE DUP1 PUSH1 0x0 MSTORE PUSH1 0x40 PUSH1 0x0 KECCAK256 PUSH1 0x0 SWAP2 POP SWAP1 POP DUP1 PUSH1 0x0 ADD DUP1 SLOAD PUSH2 0x19F1 SWAP1 PUSH2 0x2FEE JUMP JUMPDEST DUP1 PUSH1 0x1F ADD PUSH1 0x20 DUP1 SWAP2 DIV MUL PUSH1 0x20 ADD PUSH1 0x40 MLOAD SWAP1 DUP2 ADD PUSH1 0x40 MSTORE DUP1 SWAP3 SWAP2 SWAP1 DUP2 DUP2 MSTORE PUSH1 0x20 ADD DUP3 DUP1 SLOAD PUSH2 0x1A1D SWAP1 PUSH2 0x2FEE JUMP JUMPDEST DUP1 ISZERO PUSH2 0x1A6A JUMPI DUP1 PUSH1 0x1F LT PUSH2 0x1A3F JUMPI PUSH2 0x100 DUP1 DUP4 SLOAD DIV MUL DUP4 MSTORE SWAP2 PUSH1 0x20 ADD SWAP2 PUSH2 0x1A6A JUMP JUMPDEST DUP3 ADD SWAP2 SWAP1 PUSH1 0x0 MSTORE PUSH1 0x20 PUSH1 0x0 KECCAK256 SWAP1 JUMPDEST DUP2 SLOAD DUP2 MSTORE SWAP1 PUSH1 0x1 ADD SWAP1 PUSH1 0x20 ADD DUP1 DUP4 GT PUSH2 0x1A4D JUMPI DUP3 SWAP1 SUB PUSH1 0x1F AND DUP3 ADD SWAP2 JUMPDEST POP POP POP POP POP SWAP1 DUP1 PUSH1 0x1 ADD PUSH1 0x0 SWAP1 SLOAD SWAP1 PUSH2 0x100 EXP SWAP1 DIV PUSH20 0xFFFFFFFFFFFFFFFFFFFFFFFFFFFFFFFFFFFFFFFF AND SWAP1 DUP1 PUSH1 0x2 ADD SLOAD SWAP1 DUP1 PUSH1 0x3 ADD SLOAD SWAP1 DUP1 PUSH1 0x4 ADD PUSH1 0x0 SWAP1 SLOAD SWAP1 PUSH2 0x100 EXP SWAP1 DIV PUSH1 0xFF AND SWAP1 POP DUP6 JUMP JUMPDEST PUSH1 0x0 DUP1 SLOAD SWAP1 PUSH2 0x100 EXP SWAP1 DIV PUSH20 0xFFFFFFFFFFFFFFFFFFFFFFFFFFFFFFFFFFFFFFFF AND DUP2 JUMP JUMPDEST PUSH1 0x0 DUP1 SLOAD SWAP1 PUSH2 0x100 EXP SWAP1 DIV PUSH20 0xFFFFFFFFFFFFFFFFFFFFFFFFFFFFFFFFFFFFFFFF AND PUSH20 0xFFFFFFFFFFFFFFFFFFFFFFFFFFFFFFFFFFFFFFFF AND CALLER PUSH20 0xFFFFFFFFFFFFFFFFFFFFFFFFFFFFFFFFFFFFFFFF AND EQ PUSH2 0x1B6B JUMPI PUSH1 0x40 MLOAD PUSH32 0x8C379A000000000000000000000000000000000000000000000000000000000 DUP2 MSTORE PUSH1 0x4 ADD PUSH2 0x1B62 SWAP1 PUSH2 0x2EA5 JUMP JUMPDEST PUSH1 0x40 MLOAD DUP1 SWAP2 SUB SWAP1 REVERT JUMPDEST PUSH1 0x3 PUSH1 0x0 DUP5 PUSH20 0xFFFFFFFFFFFFFFFFFFFFFFFFFFFFFFFFFFFFFFFF AND PUSH20 0xFFFFFFFFFFFFFFFFFFFFFFFFFFFFFFFFFFFFFFFF AND DUP2 MSTORE PUSH1 0x20 ADD SWAP1 DUP2 MSTORE PUSH1 0x20 ADD PUSH1 0x0 KECCAK256 DUP1 SLOAD SWAP1 POP DUP3 LT PUSH2 0x1BEF JUMPI PUSH1 0x40 MLOAD PUSH32 0x8C379A000000000000000000000000000000000000000000000000000000000 DUP2 MSTORE PUSH1 0x4 ADD PUSH2 0x1BE6 SWAP1 PUSH2 0x35B7 JUMP JUMPDEST PUSH1 0x40 MLOAD DUP1 SWAP2 SUB SWAP1 REVERT JUMPDEST PUSH1 0x0 PUSH1 0x3 PUSH1 0x0 DUP6 PUSH20 0xFFFFFFFFFFFFFFFFFFFFFFFFFFFFFFFFFFFFFFFF AND PUSH20 0xFFFFFFFFFFFFFFFFFFFFFFFFFFFFFFFFFFFFFFFF AND DUP2 MSTORE PUSH1 0x20 ADD SWAP1 DUP2 MSTORE PUSH1 0x20 ADD PUSH1 0x0 KECCAK256 DUP4 DUP2 SLOAD DUP2 LT PUSH2 0x1C42 JUMPI PUSH2 0x1C41 PUSH2 0x3020 JUMP JUMPDEST JUMPDEST SWAP1 PUSH1 0x0 MSTORE PUSH1 0x20 PUSH1 0x0 KECCAK256 SWAP1 PUSH1 0xB MUL ADD SWAP1 POP PUSH1 0x0 DUP2 PUSH1 0x4 ADD PUSH1 0x1 SWAP1 SLOAD SWAP1 PUSH2 0x100 EXP SWAP1 DIV PUSH1 0xFF AND PUSH2 0x1C88 JUMPI PUSH1 0x64 PUSH1 0x5A DUP5 PUSH2 0x1C79 SWAP2 SWAP1 PUSH2 0x319F JUMP JUMPDEST PUSH2 0x1C83 SWAP2 SWAP1 PUSH2 0x3228 JUMP JUMPDEST PUSH2 0x1C8A JUMP JUMPDEST DUP3 JUMPDEST SWAP1 POP DUP1 DUP3 PUSH1 0x2 ADD PUSH1 0x0 DUP3 DUP3 SLOAD PUSH2 0x1CA0 SWAP2 SWAP1 PUSH2 0x34E1 JUMP JUMPDEST SWAP3 POP POP DUP2 SWAP1 SSTORE POP DUP5 PUSH20 0xFFFFFFFFFFFFFFFFFFFFFFFFFFFFFFFFFFFFFFFF AND PUSH32 0xA6EBAC01B725932F51A7D81004FE00353D3BFA28773F042ABAF37D9B994B1AE3 DUP3 PUSH1 0x40 MLOAD PUSH2 0x1CED SWAP2 SWAP1 PUSH2 0x368F JUMP JUMPDEST PUSH1 0x40 MLOAD DUP1 SWAP2 SUB SWAP1 LOG2 POP POP POP POP POP JUMP JUMPDEST PUSH1 0x40 MLOAD DUP1 PUSH1 0xA0 ADD PUSH1 0x40 MSTORE DUP1 DUP3 DUP2 MSTORE PUSH1 0x20 ADD CALLER PUSH20 0xFFFFFFFFFFFFFFFFFFFFFFFFFFFFFFFFFFFFFFFF AND DUP2 MSTORE PUSH1 0x20 ADD PUSH1 0x0 DUP2 MSTORE PUSH1 0x20 ADD PUSH1 0x0 DUP2 MSTORE PUSH1 0x20 ADD PUSH1 0x0 ISZERO ISZERO DUP2 MSTORE POP PUSH1 0x4 PUSH1 0x0 CALLER PUSH20 0xFFFFFFFFFFFFFFFFFFFFFFFFFFFFFFFFFFFFFFFF AND PUSH20 0xFFFFFFFFFFFFFFFFFFFFFFFFFFFFFFFFFFFFFFFF AND DUP2 MSTORE PUSH1 0x20 ADD SWAP1 DUP2 MSTORE PUSH1 0x20 ADD PUSH1 0x0 KECCAK256 PUSH1 0x0 DUP3 ADD MLOAD DUP2 PUSH1 0x0 ADD SWAP1 DUP1 MLOAD SWAP1 PUSH1 0x20 ADD SWAP1 PUSH2 0x1D99 SWAP3 SWAP2 SWAP1 PUSH2 0x2399 JUMP JUMPDEST POP PUSH1 0x20 DUP3 ADD MLOAD DUP2 PUSH1 0x1 ADD PUSH1 0x0 PUSH2 0x100 EXP DUP2 SLOAD DUP2 PUSH20 0xFFFFFFFFFFFFFFFFFFFFFFFFFFFFFFFFFFFFFFFF MUL NOT AND SWAP1 DUP4 PUSH20 0xFFFFFFFFFFFFFFFFFFFFFFFFFFFFFFFFFFFFFFFF AND MUL OR SWAP1 SSTORE POP PUSH1 0x40 DUP3 ADD MLOAD DUP2 PUSH1 0x2 ADD SSTORE PUSH1 0x60 DUP3 ADD MLOAD DUP2 PUSH1 0x3 ADD SSTORE PUSH1 0x80 DUP3 ADD MLOAD DUP2 PUSH1 0x4 ADD PUSH1 0x0 PUSH2 0x100 EXP DUP2 SLOAD DUP2 PUSH1 0xFF MUL NOT AND SWAP1 DUP4 ISZERO ISZERO MUL OR SWAP1 SSTORE POP SWAP1 POP POP CALLER PUSH20 0xFFFFFFFFFFFFFFFFFFFFFFFFFFFFFFFFFFFFFFFF AND PUSH32 0xFEBBCAD7683C10D8CA64FD9317594B0E78E867BF9D4AB27C96C84F140599ADBE DUP3 PUSH1 0x40 MLOAD PUSH2 0x1E5E SWAP2 SWAP1 PUSH2 0x2F9D JUMP JUMPDEST PUSH1 0x40 MLOAD DUP1 SWAP2 SUB SWAP1 LOG2 POP JUMP JUMPDEST PUSH1 0x0 DUP1 SLOAD SWAP1 PUSH2 0x100 EXP SWAP1 DIV PUSH20 0xFFFFFFFFFFFFFFFFFFFFFFFFFFFFFFFFFFFFFFFF AND PUSH20 0xFFFFFFFFFFFFFFFFFFFFFFFFFFFFFFFFFFFFFFFF AND CALLER PUSH20 0xFFFFFFFFFFFFFFFFFFFFFFFFFFFFFFFFFFFFFFFF AND EQ PUSH2 0x1EF7 JUMPI PUSH1 0x40 MLOAD PUSH32 0x8C379A000000000000000000000000000000000000000000000000000000000 DUP2 MSTORE PUSH1 0x4 ADD PUSH2 0x1EEE SWAP1 PUSH2 0x2EA5 JUMP JUMPDEST PUSH1 0x40 MLOAD DUP1 SWAP2 SUB SWAP1 REVERT JUMPDEST PUSH1 0x7 PUSH1 0x2 ADD PUSH1 0x0 SWAP1 SLOAD SWAP1 PUSH2 0x100 EXP SWAP1 DIV PUSH1 0xFF AND PUSH2 0x1F49 JUMPI PUSH1 0x40 MLOAD PUSH32 0x8C379A000000000000000000000000000000000000000000000000000000000 DUP2 MSTORE PUSH1 0x4 ADD PUSH2 0x1F40 SWAP1 PUSH2 0x3113 JUMP JUMPDEST PUSH1 0x40 MLOAD DUP1 SWAP2 SUB SWAP1 REVERT JUMPDEST PUSH1 0x0 PUSH1 0x7 PUSH1 0x0 ADD SLOAD SWAP1 POP PUSH1 0x0 JUMPDEST PUSH1 0x7 PUSH1 0x4 ADD DUP1 SLOAD SWAP1 POP DUP2 LT ISZERO PUSH2 0x22A8 JUMPI PUSH1 0x0 PUSH1 0x7 PUSH1 0x4 ADD DUP3 DUP2 SLOAD DUP2 LT PUSH2 0x1F7F JUMPI PUSH2 0x1F7E PUSH2 0x3020 JUMP JUMPDEST JUMPDEST SWAP1 PUSH1 0x0 MSTORE PUSH1 0x20 PUSH1 0x0 KECCAK256 ADD PUSH1 0x0 SWAP1 SLOAD SWAP1 PUSH2 0x100 EXP SWAP1 DIV PUSH20 0xFFFFFFFFFFFFFFFFFFFFFFFFFFFFFFFFFFFFFFFF AND SWAP1 POP PUSH1 0x0 PUSH1 0x7 PUSH1 0x3 ADD PUSH1 0x0 DUP4 PUSH20 0xFFFFFFFFFFFFFFFFFFFFFFFFFFFFFFFFFFFFFFFF AND PUSH20 0xFFFFFFFFFFFFFFFFFFFFFFFFFFFFFFFFFFFFFFFF AND DUP2 MSTORE PUSH1 0x20 ADD SWAP1 DUP2 MSTORE PUSH1 0x20 ADD PUSH1 0x0 KECCAK256 SWAP1 POP DUP4 DUP2 PUSH1 0x0 ADD SLOAD GT PUSH2 0x2117 JUMPI PUSH1 0x0 PUSH1 0x3 PUSH1 0x0 DUP5 PUSH20 0xFFFFFFFFFFFFFFFFFFFFFFFFFFFFFFFFFFFFFFFF AND PUSH20 0xFFFFFFFFFFFFFFFFFFFFFFFFFFFFFFFFFFFFFFFF AND DUP2 MSTORE PUSH1 0x20 ADD SWAP1 DUP2 MSTORE PUSH1 0x20 ADD PUSH1 0x0 KECCAK256 DUP1 SLOAD SWAP1 POP GT PUSH2 0x2082 JUMPI PUSH1 0x40 MLOAD PUSH32 0x8C379A000000000000000000000000000000000000000000000000000000000 DUP2 MSTORE PUSH1 0x4 ADD PUSH2 0x2079 SWAP1 PUSH2 0x372F JUMP JUMPDEST PUSH1 0x40 MLOAD DUP1 SWAP2 SUB SWAP1 REVERT JUMPDEST DUP1 PUSH1 0x0 ADD SLOAD PUSH1 0x3 PUSH1 0x0 DUP5 PUSH20 0xFFFFFFFFFFFFFFFFFFFFFFFFFFFFFFFFFFFFFFFF AND PUSH20 0xFFFFFFFFFFFFFFFFFFFFFFFFFFFFFFFFFFFFFFFF AND DUP2 MSTORE PUSH1 0x20 ADD SWAP1 DUP2 MSTORE PUSH1 0x20 ADD PUSH1 0x0 KECCAK256 PUSH1 0x0 DUP2 SLOAD DUP2 LT PUSH2 0x20D9 JUMPI PUSH2 0x20D8 PUSH2 0x3020 JUMP JUMPDEST JUMPDEST SWAP1 PUSH1 0x0 MSTORE PUSH1 0x20 PUSH1 0x0 KECCAK256 SWAP1 PUSH1 0xB MUL ADD PUSH1 0x2 ADD PUSH1 0x0 DUP3 DUP3 SLOAD PUSH2 0x20F9 SWAP2 SWAP1 PUSH2 0x34E1 JUMP JUMPDEST SWAP3 POP POP DUP2 SWAP1 SSTORE POP DUP1 PUSH1 0x0 ADD SLOAD DUP5 PUSH2 0x2110 SWAP2 SWAP1 PUSH2 0x3537 JUMP JUMPDEST SWAP4 POP PUSH2 0x2293 JUMP JUMPDEST PUSH1 0x0 PUSH1 0x3 PUSH1 0x0 DUP5 PUSH20 0xFFFFFFFFFFFFFFFFFFFFFFFFFFFFFFFFFFFFFFFF AND PUSH20 0xFFFFFFFFFFFFFFFFFFFFFFFFFFFFFFFFFFFFFFFF AND DUP2 MSTORE PUSH1 0x20 ADD SWAP1 DUP2 MSTORE PUSH1 0x20 ADD PUSH1 0x0 KECCAK256 DUP1 SLOAD SWAP1 POP GT PUSH2 0x219C JUMPI PUSH1 0x40 MLOAD PUSH32 0x8C379A000000000000000000000000000000000000000000000000000000000 DUP2 MSTORE PUSH1 0x4 ADD PUSH2 0x2193 SWAP1 PUSH2 0x372F JUMP JUMPDEST PUSH1 0x40 MLOAD DUP1 SWAP2 SUB SWAP1 REVERT JUMPDEST DUP4 PUSH1 0x3 PUSH1 0x0 DUP5 PUSH20 0xFFFFFFFFFFFFFFFFFFFFFFFFFFFFFFFFFFFFFFFF AND PUSH20 0xFFFFFFFFFFFFFFFFFFFFFFFFFFFFFFFFFFFFFFFF AND DUP2 MSTORE PUSH1 0x20 ADD SWAP1 DUP2 MSTORE PUSH1 0x20 ADD PUSH1 0x0 KECCAK256 PUSH1 0x0 DUP2 SLOAD DUP2 LT PUSH2 0x21EF JUMPI PUSH2 0x21EE PUSH2 0x3020 JUMP JUMPDEST JUMPDEST SWAP1 PUSH1 0x0 MSTORE PUSH1 0x20 PUSH1 0x0 KECCAK256 SWAP1 PUSH1 0xB MUL ADD PUSH1 0x2 ADD PUSH1 0x0 DUP3 DUP3 SLOAD PUSH2 0x220F SWAP2 SWAP1 PUSH2 0x34E1 JUMP JUMPDEST SWAP3 POP POP DUP2 SWAP1 SSTORE POP PUSH1 0x0 DUP5 SWAP1 POP PUSH1 0x0 PUSH1 0x7 PUSH1 0x1 ADD SLOAD DUP3 DUP5 PUSH1 0x0 ADD SLOAD PUSH2 0x2233 SWAP2 SWAP1 PUSH2 0x3537 JUMP JUMPDEST PUSH2 0x223D SWAP2 SWAP1 PUSH2 0x319F JUMP JUMPDEST SWAP1 POP DUP4 PUSH20 0xFFFFFFFFFFFFFFFFFFFFFFFFFFFFFFFFFFFFFFFF AND PUSH2 0x8FC DUP3 SWAP1 DUP2 ISZERO MUL SWAP1 PUSH1 0x40 MLOAD PUSH1 0x0 PUSH1 0x40 MLOAD DUP1 DUP4 SUB DUP2 DUP6 DUP9 DUP9 CALL SWAP4 POP POP POP POP ISZERO DUP1 ISZERO PUSH2 0x2285 JUMPI RETURNDATASIZE PUSH1 0x0 DUP1 RETURNDATACOPY RETURNDATASIZE PUSH1 0x0 REVERT JUMPDEST POP PUSH1 0x0 SWAP6 POP POP POP POP POP PUSH2 0x22A8 JUMP JUMPDEST POP POP DUP1 DUP1 PUSH2 0x22A0 SWAP1 PUSH2 0x307E JUMP JUMPDEST SWAP2 POP POP PUSH2 0x1F56 JUMP JUMPDEST POP PUSH1 0x0 PUSH1 0x7 PUSH1 0x2 ADD PUSH1 0x0 PUSH2 0x100 EXP DUP2 SLOAD DUP2 PUSH1 0xFF MUL NOT AND SWAP1 DUP4 ISZERO ISZERO MUL OR SWAP1 SSTORE POP PUSH32 0x2D7633A748A750B559B97738629EFD586B561319B152BB42BA14D590706D31DA DUP2 PUSH1 0x7 PUSH1 0x0 ADD SLOAD PUSH2 0x22F9 SWAP2 SWAP1 PUSH2 0x3537 JUMP JUMPDEST PUSH1 0x40 MLOAD PUSH2 0x2306 SWAP2 SWAP1 PUSH2 0x297B JUMP JUMPDEST PUSH1 0x40 MLOAD DUP1 SWAP2 SUB SWAP1 LOG1 PUSH1 0x0 DUP1 SLOAD SWAP1 PUSH2 0x100 EXP SWAP1 DIV PUSH20 0xFFFFFFFFFFFFFFFFFFFFFFFFFFFFFFFFFFFFFFFF AND PUSH20 0xFFFFFFFFFFFFFFFFFFFFFFFFFFFFFFFFFFFFFFFF AND PUSH2 0x8FC SELFBALANCE SWAP1 DUP2 ISZERO MUL SWAP1 PUSH1 0x40 MLOAD PUSH1 0x0 PUSH1 0x40 MLOAD DUP1 DUP4 SUB DUP2 DUP6 DUP9 DUP9 CALL SWAP4 POP POP POP POP ISZERO DUP1 ISZERO PUSH2 0x2374 JUMPI RETURNDATASIZE PUSH1 0x0 DUP1 RETURNDATACOPY RETURNDATASIZE PUSH1 0x0 REVERT JUMPDEST POP POP JUMP JUMPDEST POP DUP1 SLOAD PUSH1 0x0 DUP3 SSTORE SWAP1 PUSH1 0x0 MSTORE PUSH1 0x20 PUSH1 0x0 KECCAK256 SWAP1 DUP2 ADD SWAP1 PUSH2 0x2396 SWAP2 SWAP1 PUSH2 0x241F JUMP JUMPDEST POP JUMP JUMPDEST DUP3 DUP1 SLOAD PUSH2 0x23A5 SWAP1 PUSH2 0x2FEE JUMP JUMPDEST SWAP1 PUSH1 0x0 MSTORE PUSH1 0x20 PUSH1 0x0 KECCAK256 SWAP1 PUSH1 0x1F ADD PUSH1 0x20 SWAP1 DIV DUP2 ADD SWAP3 DUP3 PUSH2 0x23C7 JUMPI PUSH1 0x0 DUP6 SSTORE PUSH2 0x240E JUMP JUMPDEST DUP3 PUSH1 0x1F LT PUSH2 0x23E0 JUMPI DUP1 MLOAD PUSH1 0xFF NOT AND DUP4 DUP1 ADD OR DUP6 SSTORE PUSH2 0x240E JUMP JUMPDEST DUP3 DUP1 ADD PUSH1 0x1 ADD DUP6 SSTORE DUP3 ISZERO PUSH2 0x240E JUMPI SWAP2 DUP3 ADD JUMPDEST DUP3 DUP2 GT ISZERO PUSH2 0x240D JUMPI DUP3 MLOAD DUP3 SSTORE SWAP2 PUSH1 0x20 ADD SWAP2 SWAP1 PUSH1 0x1 ADD SWAP1 PUSH2 0x23F2 JUMP JUMPDEST JUMPDEST POP SWAP1 POP PUSH2 0x241B SWAP2 SWAP1 PUSH2 0x241F JUMP JUMPDEST POP SWAP1 JUMP JUMPDEST JUMPDEST DUP1 DUP3 GT ISZERO PUSH2 0x2438 JUMPI PUSH1 0x0 DUP2 PUSH1 0x0 SWAP1 SSTORE POP PUSH1 0x1 ADD PUSH2 0x2420 JUMP JUMPDEST POP SWAP1 JUMP JUMPDEST PUSH1 0x0 PUSH1 0x40 MLOAD SWAP1 POP SWAP1 JUMP JUMPDEST PUSH1 0x0 DUP1 REVERT JUMPDEST PUSH1 0x0 DUP1 REVERT JUMPDEST PUSH1 0x0 DUP2 SWAP1 POP SWAP2 SWAP1 POP JUMP JUMPDEST PUSH2 0x2463 DUP2 PUSH2 0x2450 JUMP JUMPDEST DUP2 EQ PUSH2 0x246E JUMPI PUSH1 0x0 DUP1 REVERT JUMPDEST POP JUMP JUMPDEST PUSH1 0x0 DUP2 CALLDATALOAD SWAP1 POP PUSH2 0x2480 DUP2 PUSH2 0x245A JUMP JUMPDEST SWAP3 SWAP2 POP POP JUMP JUMPDEST PUSH1 0x0 DUP1 PUSH1 0x40 DUP4 DUP6 SUB SLT ISZERO PUSH2 0x249D JUMPI PUSH2 0x249C PUSH2 0x2446 JUMP JUMPDEST JUMPDEST PUSH1 0x0 PUSH2 0x24AB DUP6 DUP3 DUP7 ADD PUSH2 0x2471 JUMP JUMPDEST SWAP3 POP POP PUSH1 0x20 PUSH2 0x24BC DUP6 DUP3 DUP7 ADD PUSH2 0x2471 JUMP JUMPDEST SWAP2 POP POP SWAP3 POP SWAP3 SWAP1 POP JUMP JUMPDEST PUSH1 0x0 DUP1 REVERT JUMPDEST PUSH1 0x0 DUP1 REVERT JUMPDEST PUSH1 0x0 PUSH1 0x1F NOT PUSH1 0x1F DUP4 ADD AND SWAP1 POP SWAP2 SWAP1 POP JUMP JUMPDEST PUSH32 0x4E487B7100000000000000000000000000000000000000000000000000000000 PUSH1 0x0 MSTORE PUSH1 0x41 PUSH1 0x4 MSTORE PUSH1 0x24 PUSH1 0x0 REVERT JUMPDEST PUSH2 0x2519 DUP3 PUSH2 0x24D0 JUMP JUMPDEST DUP2 ADD DUP2 DUP2 LT PUSH8 0xFFFFFFFFFFFFFFFF DUP3 GT OR ISZERO PUSH2 0x2538 JUMPI PUSH2 0x2537 PUSH2 0x24E1 JUMP JUMPDEST JUMPDEST DUP1 PUSH1 0x40 MSTORE POP POP POP JUMP JUMPDEST PUSH1 0x0 PUSH2 0x254B PUSH2 0x243C JUMP JUMPDEST SWAP1 POP PUSH2 0x2557 DUP3 DUP3 PUSH2 0x2510 JUMP JUMPDEST SWAP2 SWAP1 POP JUMP JUMPDEST PUSH1 0x0 PUSH8 0xFFFFFFFFFFFFFFFF DUP3 GT ISZERO PUSH2 0x2577 JUMPI PUSH2 0x2576 PUSH2 0x24E1 JUMP JUMPDEST JUMPDEST PUSH2 0x2580 DUP3 PUSH2 0x24D0 JUMP JUMPDEST SWAP1 POP PUSH1 0x20 DUP2 ADD SWAP1 POP SWAP2 SWAP1 POP JUMP JUMPDEST DUP3 DUP2 DUP4 CALLDATACOPY PUSH1 0x0 DUP4 DUP4 ADD MSTORE POP POP POP JUMP JUMPDEST PUSH1 0x0 PUSH2 0x25AF PUSH2 0x25AA DUP5 PUSH2 0x255C JUMP JUMPDEST PUSH2 0x2541 JUMP JUMPDEST SWAP1 POP DUP3 DUP2 MSTORE PUSH1 0x20 DUP2 ADD DUP5 DUP5 DUP5 ADD GT ISZERO PUSH2 0x25CB JUMPI PUSH2 0x25CA PUSH2 0x24CB JUMP JUMPDEST JUMPDEST PUSH2 0x25D6 DUP5 DUP3 DUP6 PUSH2 0x258D JUMP JUMPDEST POP SWAP4 SWAP3 POP POP POP JUMP JUMPDEST PUSH1 0x0 DUP3 PUSH1 0x1F DUP4 ADD SLT PUSH2 0x25F3 JUMPI PUSH2 0x25F2 PUSH2 0x24C6 JUMP JUMPDEST JUMPDEST DUP2 CALLDATALOAD PUSH2 0x2603 DUP5 DUP3 PUSH1 0x20 DUP7 ADD PUSH2 0x259C JUMP JUMPDEST SWAP2 POP POP SWAP3 SWAP2 POP POP JUMP JUMPDEST PUSH1 0x0 PUSH1 0x20 DUP3 DUP5 SUB SLT ISZERO PUSH2 0x2622 JUMPI PUSH2 0x2621 PUSH2 0x2446 JUMP JUMPDEST JUMPDEST PUSH1 0x0 DUP3 ADD CALLDATALOAD PUSH8 0xFFFFFFFFFFFFFFFF DUP2 GT ISZERO PUSH2 0x2640 JUMPI PUSH2 0x263F PUSH2 0x244B JUMP JUMPDEST JUMPDEST PUSH2 0x264C DUP5 DUP3 DUP6 ADD PUSH2 0x25DE JUMP JUMPDEST SWAP2 POP POP SWAP3 SWAP2 POP POP JUMP JUMPDEST PUSH1 0x0 DUP2 ISZERO ISZERO SWAP1 POP SWAP2 SWAP1 POP JUMP JUMPDEST PUSH2 0x266A DUP2 PUSH2 0x2655 JUMP JUMPDEST DUP2 EQ PUSH2 0x2675 JUMPI PUSH1 0x0 DUP1 REVERT JUMPDEST POP JUMP JUMPDEST PUSH1 0x0 DUP2 CALLDATALOAD SWAP1 POP PUSH2 0x2687 DUP2 PUSH2 0x2661 JUMP JUMPDEST SWAP3 SWAP2 POP POP JUMP JUMPDEST PUSH1 0x0 DUP1 PUSH1 0x40 DUP4 DUP6 SUB SLT ISZERO PUSH2 0x26A4 JUMPI PUSH2 0x26A3 PUSH2 0x2446 JUMP JUMPDEST JUMPDEST PUSH1 0x0 DUP4 ADD CALLDATALOAD PUSH8 0xFFFFFFFFFFFFFFFF DUP2 GT ISZERO PUSH2 0x26C2 JUMPI PUSH2 0x26C1 PUSH2 0x244B JUMP JUMPDEST JUMPDEST PUSH2 0x26CE DUP6 DUP3 DUP7 ADD PUSH2 0x25DE JUMP JUMPDEST SWAP3 POP POP PUSH1 0x20 PUSH2 0x26DF DUP6 DUP3 DUP7 ADD PUSH2 0x2678 JUMP JUMPDEST SWAP2 POP POP SWAP3 POP SWAP3 SWAP1 POP JUMP JUMPDEST PUSH1 0x0 PUSH20 0xFFFFFFFFFFFFFFFFFFFFFFFFFFFFFFFFFFFFFFFF DUP3 AND SWAP1 POP SWAP2 SWAP1 POP JUMP JUMPDEST PUSH1 0x0 PUSH2 0x2714 DUP3 PUSH2 0x26E9 JUMP JUMPDEST SWAP1 POP SWAP2 SWAP1 POP JUMP JUMPDEST PUSH2 0x2724 DUP2 PUSH2 0x2709 JUMP JUMPDEST DUP2 EQ PUSH2 0x272F JUMPI PUSH1 0x0 DUP1 REVERT JUMPDEST POP JUMP JUMPDEST PUSH1 0x0 DUP2 CALLDATALOAD SWAP1 POP PUSH2 0x2741 DUP2 PUSH2 0x271B JUMP JUMPDEST SWAP3 SWAP2 POP POP JUMP JUMPDEST PUSH1 0x0 DUP1 PUSH1 0x40 DUP4 DUP6 SUB SLT ISZERO PUSH2 0x275E JUMPI PUSH2 0x275D PUSH2 0x2446 JUMP JUMPDEST JUMPDEST PUSH1 0x0 PUSH2 0x276C DUP6 DUP3 DUP7 ADD PUSH2 0x2732 JUMP JUMPDEST SWAP3 POP POP PUSH1 0x20 PUSH2 0x277D DUP6 DUP3 DUP7 ADD PUSH2 0x2471 JUMP JUMPDEST SWAP2 POP POP SWAP3 POP SWAP3 SWAP1 POP JUMP JUMPDEST PUSH1 0x0 DUP2 MLOAD SWAP1 POP SWAP2 SWAP1 POP JUMP JUMPDEST PUSH1 0x0 DUP3 DUP3 MSTORE PUSH1 0x20 DUP3 ADD SWAP1 POP SWAP3 SWAP2 POP POP JUMP JUMPDEST PUSH1 0x0 JUMPDEST DUP4 DUP2 LT ISZERO PUSH2 0x27C1 JUMPI DUP1 DUP3 ADD MLOAD DUP2 DUP5 ADD MSTORE PUSH1 0x20 DUP2 ADD SWAP1 POP PUSH2 0x27A6 JUMP JUMPDEST DUP4 DUP2 GT ISZERO PUSH2 0x27D0 JUMPI PUSH1 0x0 DUP5 DUP5 ADD MSTORE JUMPDEST POP POP POP POP JUMP JUMPDEST PUSH1 0x0 PUSH2 0x27E1 DUP3 PUSH2 0x2787 JUMP JUMPDEST PUSH2 0x27EB DUP2 DUP6 PUSH2 0x2792 JUMP JUMPDEST SWAP4 POP PUSH2 0x27FB DUP2 DUP6 PUSH1 0x20 DUP7 ADD PUSH2 0x27A3 JUMP JUMPDEST PUSH2 0x2804 DUP2 PUSH2 0x24D0 JUMP JUMPDEST DUP5 ADD SWAP2 POP POP SWAP3 SWAP2 POP POP JUMP JUMPDEST PUSH2 0x2818 DUP2 PUSH2 0x2709 JUMP JUMPDEST DUP3 MSTORE POP POP JUMP JUMPDEST PUSH2 0x2827 DUP2 PUSH2 0x2450 JUMP JUMPDEST DUP3 MSTORE POP POP JUMP JUMPDEST PUSH2 0x2836 DUP2 PUSH2 0x2655 JUMP JUMPDEST DUP3 MSTORE POP POP JUMP JUMPDEST PUSH2 0x2845 DUP2 PUSH2 0x2450 JUMP JUMPDEST DUP3 MSTORE POP POP JUMP JUMPDEST PUSH1 0xC0 DUP3 ADD PUSH1 0x0 DUP3 ADD MLOAD PUSH2 0x2861 PUSH1 0x0 DUP6 ADD DUP3 PUSH2 0x283C JUMP JUMPDEST POP PUSH1 0x20 DUP3 ADD MLOAD PUSH2 0x2874 PUSH1 0x20 DUP6 ADD DUP3 PUSH2 0x283C JUMP JUMPDEST POP PUSH1 0x40 DUP3 ADD MLOAD PUSH2 0x2887 PUSH1 0x40 DUP6 ADD DUP3 PUSH2 0x283C JUMP JUMPDEST POP PUSH1 0x60 DUP3 ADD MLOAD PUSH2 0x289A PUSH1 0x60 DUP6 ADD DUP3 PUSH2 0x283C JUMP JUMPDEST POP PUSH1 0x80 DUP3 ADD MLOAD PUSH2 0x28AD PUSH1 0x80 DUP6 ADD DUP3 PUSH2 0x283C JUMP JUMPDEST POP PUSH1 0xA0 DUP3 ADD MLOAD PUSH2 0x28C0 PUSH1 0xA0 DUP6 ADD DUP3 PUSH2 0x283C JUMP JUMPDEST POP POP POP POP JUMP JUMPDEST PUSH1 0x0 PUSH2 0x180 DUP3 ADD SWAP1 POP DUP2 DUP2 SUB PUSH1 0x0 DUP4 ADD MSTORE PUSH2 0x28E1 DUP2 DUP11 PUSH2 0x27D6 JUMP JUMPDEST SWAP1 POP PUSH2 0x28F0 PUSH1 0x20 DUP4 ADD DUP10 PUSH2 0x280F JUMP JUMPDEST PUSH2 0x28FD PUSH1 0x40 DUP4 ADD DUP9 PUSH2 0x281E JUMP JUMPDEST DUP2 DUP2 SUB PUSH1 0x60 DUP4 ADD MSTORE PUSH2 0x290F DUP2 DUP8 PUSH2 0x27D6 JUMP JUMPDEST SWAP1 POP PUSH2 0x291E PUSH1 0x80 DUP4 ADD DUP7 PUSH2 0x282D JUMP JUMPDEST PUSH2 0x292B PUSH1 0xA0 DUP4 ADD DUP6 PUSH2 0x282D JUMP JUMPDEST PUSH2 0x2938 PUSH1 0xC0 DUP4 ADD DUP5 PUSH2 0x284B JUMP JUMPDEST SWAP9 SWAP8 POP POP POP POP POP POP POP POP JUMP JUMPDEST PUSH1 0x0 PUSH1 0x60 DUP3 ADD SWAP1 POP PUSH2 0x2959 PUSH1 0x0 DUP4 ADD DUP7 PUSH2 0x281E JUMP JUMPDEST PUSH2 0x2966 PUSH1 0x20 DUP4 ADD DUP6 PUSH2 0x281E JUMP JUMPDEST PUSH2 0x2973 PUSH1 0x40 DUP4 ADD DUP5 PUSH2 0x282D JUMP JUMPDEST SWAP5 SWAP4 POP POP POP POP JUMP JUMPDEST PUSH1 0x0 PUSH1 0x20 DUP3 ADD SWAP1 POP PUSH2 0x2990 PUSH1 0x0 DUP4 ADD DUP5 PUSH2 0x281E JUMP JUMPDEST SWAP3 SWAP2 POP POP JUMP JUMPDEST PUSH1 0x0 PUSH1 0x20 DUP3 DUP5 SUB SLT ISZERO PUSH2 0x29AC JUMPI PUSH2 0x29AB PUSH2 0x2446 JUMP JUMPDEST JUMPDEST PUSH1 0x0 PUSH2 0x29BA DUP5 DUP3 DUP6 ADD PUSH2 0x2732 JUMP JUMPDEST SWAP2 POP POP SWAP3 SWAP2 POP POP JUMP JUMPDEST PUSH1 0x0 PUSH1 0x60 DUP3 ADD SWAP1 POP DUP2 DUP2 SUB PUSH1 0x0 DUP4 ADD MSTORE PUSH2 0x29DD DUP2 DUP7 PUSH2 0x27D6 JUMP JUMPDEST SWAP1 POP PUSH2 0x29EC PUSH1 0x20 DUP4 ADD DUP6 PUSH2 0x280F JUMP JUMPDEST PUSH2 0x29F9 PUSH1 0x40 DUP4 ADD DUP5 PUSH2 0x282D JUMP JUMPDEST SWAP5 SWAP4 POP POP POP POP JUMP JUMPDEST PUSH1 0x0 DUP2 MLOAD SWAP1 POP SWAP2 SWAP1 POP JUMP JUMPDEST PUSH1 0x0 DUP3 DUP3 MSTORE PUSH1 0x20 DUP3 ADD SWAP1 POP SWAP3 SWAP2 POP POP JUMP JUMPDEST PUSH1 0x0 DUP2 SWAP1 POP PUSH1 0x20 DUP3 ADD SWAP1 POP SWAP2 SWAP1 POP JUMP JUMPDEST PUSH1 0x0 DUP3 DUP3 MSTORE PUSH1 0x20 DUP3 ADD SWAP1 POP SWAP3 SWAP2 POP POP JUMP JUMPDEST PUSH1 0x0 PUSH2 0x2A49 DUP3 PUSH2 0x2787 JUMP JUMPDEST PUSH2 0x2A53 DUP2 DUP6 PUSH2 0x2A2D JUMP JUMPDEST SWAP4 POP PUSH2 0x2A63 DUP2 DUP6 PUSH1 0x20 DUP7 ADD PUSH2 0x27A3 JUMP JUMPDEST PUSH2 0x2A6C DUP2 PUSH2 0x24D0 JUMP JUMPDEST DUP5 ADD SWAP2 POP POP SWAP3 SWAP2 POP POP JUMP JUMPDEST PUSH1 0x0 PUSH2 0x2A83 DUP4 DUP4 PUSH2 0x2A3E JUMP JUMPDEST SWAP1 POP SWAP3 SWAP2 POP POP JUMP JUMPDEST PUSH1 0x0 PUSH1 0x20 DUP3 ADD SWAP1 POP SWAP2 SWAP1 POP JUMP JUMPDEST PUSH1 0x0 PUSH2 0x2AA3 DUP3 PUSH2 0x2A01 JUMP JUMPDEST PUSH2 0x2AAD DUP2 DUP6 PUSH2 0x2A0C JUMP JUMPDEST SWAP4 POP DUP4 PUSH1 0x20 DUP3 MUL DUP6 ADD PUSH2 0x2ABF DUP6 PUSH2 0x2A1D JUMP JUMPDEST DUP1 PUSH1 0x0 JUMPDEST DUP6 DUP2 LT ISZERO PUSH2 0x2AFB JUMPI DUP5 DUP5 SUB DUP10 MSTORE DUP2 MLOAD PUSH2 0x2ADC DUP6 DUP3 PUSH2 0x2A77 JUMP JUMPDEST SWAP5 POP PUSH2 0x2AE7 DUP4 PUSH2 0x2A8B JUMP JUMPDEST SWAP3 POP PUSH1 0x20 DUP11 ADD SWAP10 POP POP PUSH1 0x1 DUP2 ADD SWAP1 POP PUSH2 0x2AC3 JUMP JUMPDEST POP DUP3 SWAP8 POP DUP8 SWAP6 POP POP POP POP POP POP SWAP3 SWAP2 POP POP JUMP JUMPDEST PUSH1 0x0 DUP2 MLOAD SWAP1 POP SWAP2 SWAP1 POP JUMP JUMPDEST PUSH1 0x0 DUP3 DUP3 MSTORE PUSH1 0x20 DUP3 ADD SWAP1 POP SWAP3 SWAP2 POP POP JUMP JUMPDEST PUSH1 0x0 DUP2 SWAP1 POP PUSH1 0x20 DUP3 ADD SWAP1 POP SWAP2 SWAP1 POP JUMP JUMPDEST PUSH2 0x2B42 DUP2 PUSH2 0x2655 JUMP JUMPDEST DUP3 MSTORE POP POP JUMP JUMPDEST PUSH1 0x0 PUSH2 0x2B54 DUP4 DUP4 PUSH2 0x2B39 JUMP JUMPDEST PUSH1 0x20 DUP4 ADD SWAP1 POP SWAP3 SWAP2 POP POP JUMP JUMPDEST PUSH1 0x0 PUSH1 0x20 DUP3 ADD SWAP1 POP SWAP2 SWAP1 POP JUMP JUMPDEST PUSH1 0x0 PUSH2 0x2B78 DUP3 PUSH2 0x2B0D JUMP JUMPDEST PUSH2 0x2B82 DUP2 DUP6 PUSH2 0x2B18 JUMP JUMPDEST SWAP4 POP PUSH2 0x2B8D DUP4 PUSH2 0x2B29 JUMP JUMPDEST DUP1 PUSH1 0x0 JUMPDEST DUP4 DUP2 LT ISZERO PUSH2 0x2BBE JUMPI DUP2 MLOAD PUSH2 0x2BA5 DUP9 DUP3 PUSH2 0x2B48 JUMP JUMPDEST SWAP8 POP PUSH2 0x2BB0 DUP4 PUSH2 0x2B60 JUMP JUMPDEST SWAP3 POP POP PUSH1 0x1 DUP2 ADD SWAP1 POP PUSH2 0x2B91 JUMP JUMPDEST POP DUP6 SWAP4 POP POP POP POP SWAP3 SWAP2 POP POP JUMP JUMPDEST PUSH1 0x0 PUSH1 0x60 DUP3 ADD SWAP1 POP DUP2 DUP2 SUB PUSH1 0x0 DUP4 ADD MSTORE PUSH2 0x2BE5 DUP2 DUP7 PUSH2 0x2A98 JUMP JUMPDEST SWAP1 POP DUP2 DUP2 SUB PUSH1 0x20 DUP4 ADD MSTORE PUSH2 0x2BF9 DUP2 DUP6 PUSH2 0x2B6D JUMP JUMPDEST SWAP1 POP DUP2 DUP2 SUB PUSH1 0x40 DUP4 ADD MSTORE PUSH2 0x2C0D DUP2 DUP5 PUSH2 0x2B6D JUMP JUMPDEST SWAP1 POP SWAP5 SWAP4 POP POP POP POP JUMP JUMPDEST PUSH1 0x0 PUSH1 0x20 DUP3 DUP5 SUB SLT ISZERO PUSH2 0x2C2D JUMPI PUSH2 0x2C2C PUSH2 0x2446 JUMP JUMPDEST JUMPDEST PUSH1 0x0 PUSH2 0x2C3B DUP5 DUP3 DUP6 ADD PUSH2 0x2471 JUMP JUMPDEST SWAP2 POP POP SWAP3 SWAP2 POP POP JUMP JUMPDEST PUSH1 0x0 DUP1 PUSH1 0x0 DUP1 PUSH1 0x80 DUP6 DUP8 SUB SLT ISZERO PUSH2 0x2C5E JUMPI PUSH2 0x2C5D PUSH2 0x2446 JUMP JUMPDEST JUMPDEST PUSH1 0x0 PUSH2 0x2C6C DUP8 DUP3 DUP9 ADD PUSH2 0x2732 JUMP JUMPDEST SWAP5 POP POP PUSH1 0x20 PUSH2 0x2C7D DUP8 DUP3 DUP9 ADD PUSH2 0x2471 JUMP JUMPDEST SWAP4 POP POP PUSH1 0x40 PUSH2 0x2C8E DUP8 DUP3 DUP9 ADD PUSH2 0x2471 JUMP JUMPDEST SWAP3 POP POP PUSH1 0x60 PUSH2 0x2C9F DUP8 DUP3 DUP9 ADD PUSH2 0x2471 JUMP JUMPDEST SWAP2 POP POP SWAP3 SWAP6 SWAP2 SWAP5 POP SWAP3 POP JUMP JUMPDEST PUSH1 0x0 DUP1 PUSH1 0x0 DUP1 PUSH1 0x0 DUP1 PUSH1 0x0 DUP1 PUSH2 0x100 DUP10 DUP12 SUB SLT ISZERO PUSH2 0x2CCC JUMPI PUSH2 0x2CCB PUSH2 0x2446 JUMP JUMPDEST JUMPDEST PUSH1 0x0 PUSH2 0x2CDA DUP12 DUP3 DUP13 ADD PUSH2 0x2732 JUMP JUMPDEST SWAP9 POP POP PUSH1 0x20 PUSH2 0x2CEB DUP12 DUP3 DUP13 ADD PUSH2 0x2471 JUMP JUMPDEST SWAP8 POP POP PUSH1 0x40 PUSH2 0x2CFC DUP12 DUP3 DUP13 ADD PUSH2 0x2471 JUMP JUMPDEST SWAP7 POP POP PUSH1 0x60 PUSH2 0x2D0D DUP12 DUP3 DUP13 ADD PUSH2 0x2471 JUMP JUMPDEST SWAP6 POP POP PUSH1 0x80 PUSH2 0x2D1E DUP12 DUP3 DUP13 ADD PUSH2 0x2471 JUMP JUMPDEST SWAP5 POP POP PUSH1 0xA0 PUSH2 0x2D2F DUP12 DUP3 DUP13 ADD PUSH2 0x2471 JUMP JUMPDEST SWAP4 POP POP PUSH1 0xC0 PUSH2 0x2D40 DUP12 DUP3 DUP13 ADD PUSH2 0x2471 JUMP JUMPDEST SWAP3 POP POP PUSH1 0xE0 PUSH2 0x2D51 DUP12 DUP3 DUP13 ADD PUSH2 0x2471 JUMP JUMPDEST SWAP2 POP POP SWAP3 SWAP6 SWAP9 POP SWAP3 SWAP6 SWAP9 SWAP1 SWAP4 SWAP7 POP JUMP JUMPDEST PUSH1 0x0 PUSH1 0x40 DUP3 ADD SWAP1 POP DUP2 DUP2 SUB PUSH1 0x0 DUP4 ADD MSTORE PUSH2 0x2D7B DUP2 DUP6 PUSH2 0x27D6 JUMP JUMPDEST SWAP1 POP PUSH2 0x2D8A PUSH1 0x20 DUP4 ADD DUP5 PUSH2 0x280F JUMP JUMPDEST SWAP4 SWAP3 POP POP POP JUMP JUMPDEST PUSH1 0x0 PUSH1 0xA0 DUP3 ADD SWAP1 POP DUP2 DUP2 SUB PUSH1 0x0 DUP4 ADD MSTORE PUSH2 0x2DAB DUP2 DUP9 PUSH2 0x27D6 JUMP JUMPDEST SWAP1 POP PUSH2 0x2DBA PUSH1 0x20 DUP4 ADD DUP8 PUSH2 0x280F JUMP JUMPDEST PUSH2 0x2DC7 PUSH1 0x40 DUP4 ADD DUP7 PUSH2 0x281E JUMP JUMPDEST PUSH2 0x2DD4 PUSH1 0x60 DUP4 ADD DUP6 PUSH2 0x281E JUMP JUMPDEST PUSH2 0x2DE1 PUSH1 0x80 DUP4 ADD DUP5 PUSH2 0x282D JUMP JUMPDEST SWAP7 SWAP6 POP POP POP POP POP POP JUMP JUMPDEST PUSH1 0x0 PUSH1 0x20 DUP3 ADD SWAP1 POP PUSH2 0x2E00 PUSH1 0x0 DUP4 ADD DUP5 PUSH2 0x280F JUMP JUMPDEST SWAP3 SWAP2 POP POP JUMP JUMPDEST PUSH1 0x0 DUP1 PUSH1 0x0 PUSH1 0x60 DUP5 DUP7 SUB SLT ISZERO PUSH2 0x2E1F JUMPI PUSH2 0x2E1E PUSH2 0x2446 JUMP JUMPDEST JUMPDEST PUSH1 0x0 PUSH2 0x2E2D DUP7 DUP3 DUP8 ADD PUSH2 0x2732 JUMP JUMPDEST SWAP4 POP POP PUSH1 0x20 PUSH2 0x2E3E DUP7 DUP3 DUP8 ADD PUSH2 0x2471 JUMP JUMPDEST SWAP3 POP POP PUSH1 0x40 PUSH2 0x2E4F DUP7 DUP3 DUP8 ADD PUSH2 0x2471 JUMP JUMPDEST SWAP2 POP POP SWAP3 POP SWAP3 POP SWAP3 JUMP JUMPDEST PUSH32 0x4E6F7420617574686F72697A6564000000000000000000000000000000000000 PUSH1 0x0 DUP3 ADD MSTORE POP JUMP JUMPDEST PUSH1 0x0 PUSH2 0x2E8F PUSH1 0xE DUP4 PUSH2 0x2792 JUMP JUMPDEST SWAP2 POP PUSH2 0x2E9A DUP3 PUSH2 0x2E59 JUMP JUMPDEST PUSH1 0x20 DUP3 ADD SWAP1 POP SWAP2 SWAP1 POP JUMP JUMPDEST PUSH1 0x0 PUSH1 0x20 DUP3 ADD SWAP1 POP DUP2 DUP2 SUB PUSH1 0x0 DUP4 ADD MSTORE PUSH2 0x2EBE DUP2 PUSH2 0x2E82 JUMP JUMPDEST SWAP1 POP SWAP2 SWAP1 POP JUMP JUMPDEST PUSH32 0x41756374696F6E20616C72656164792061637469766500000000000000000000 PUSH1 0x0 DUP3 ADD MSTORE POP JUMP JUMPDEST PUSH1 0x0 PUSH2 0x2EFB PUSH1 0x16 DUP4 PUSH2 0x2792 JUMP JUMPDEST SWAP2 POP PUSH2 0x2F06 DUP3 PUSH2 0x2EC5 JUMP JUMPDEST PUSH1 0x20 DUP3 ADD SWAP1 POP SWAP2 SWAP1 POP JUMP JUMPDEST PUSH1 0x0 PUSH1 0x20 DUP3 ADD SWAP1 POP DUP2 DUP2 SUB PUSH1 0x0 DUP4 ADD MSTORE PUSH2 0x2F2A DUP2 PUSH2 0x2EEE JUMP JUMPDEST SWAP1 POP SWAP2 SWAP1 POP JUMP JUMPDEST PUSH32 0x43726564697473206D757374206265203E203000000000000000000000000000 PUSH1 0x0 DUP3 ADD MSTORE POP JUMP JUMPDEST PUSH1 0x0 PUSH2 0x2F67 PUSH1 0x13 DUP4 PUSH2 0x2792 JUMP JUMPDEST SWAP2 POP PUSH2 0x2F72 DUP3 PUSH2 0x2F31 JUMP JUMPDEST PUSH1 0x20 DUP3 ADD SWAP1 POP SWAP2 SWAP1 POP JUMP JUMPDEST PUSH1 0x0 PUSH1 0x20 DUP3 ADD SWAP1 POP DUP2 DUP2 SUB PUSH1 0x0 DUP4 ADD MSTORE PUSH2 0x2F96 DUP2 PUSH2 0x2F5A JUMP JUMPDEST SWAP1 POP SWAP2 SWAP1 POP JUMP JUMPDEST PUSH1 0x0 PUSH1 0x20 DUP3 ADD SWAP1 POP DUP2 DUP2 SUB PUSH1 0x0 DUP4 ADD MSTORE PUSH2 0x2FB7 DUP2 DUP5 PUSH2 0x27D6 JUMP JUMPDEST SWAP1 POP SWAP3 SWAP2 POP POP JUMP JUMPDEST PUSH32 0x4E487B7100000000000000000000000000000000000000000000000000000000 PUSH1 0x0 MSTORE PUSH1 0x22 PUSH1 0x4 MSTORE PUSH1 0x24 PUSH1 0x0 REVERT JUMPDEST PUSH1 0x0 PUSH1 0x2 DUP3 DIV SWAP1 POP PUSH1 0x1 DUP3 AND DUP1 PUSH2 0x3006 JUMPI PUSH1 0x7F DUP3 AND SWAP2 POP JUMPDEST PUSH1 0x20 DUP3 LT DUP2 EQ ISZERO PUSH2 0x301A JUMPI PUSH2 0x3019 PUSH2 0x2FBF JUMP JUMPDEST JUMPDEST POP SWAP2 SWAP1 POP JUMP JUMPDEST PUSH32 0x4E487B7100000000000000000000000000000000000000000000000000000000 PUSH1 0x0 MSTORE PUSH1 0x32 PUSH1 0x4 MSTORE PUSH1 0x24 PUSH1 0x0 REVERT JUMPDEST PUSH32 0x4E487B7100000000000000000000000000000000000000000000000000000000 PUSH1 0x0 MSTORE PUSH1 0x11 PUSH1 0x4 MSTORE PUSH1 0x24 PUSH1 0x0 REVERT JUMPDEST PUSH1 0x0 PUSH2 0x3089 DUP3 PUSH2 0x2450 JUMP JUMPDEST SWAP2 POP PUSH32 0xFFFFFFFFFFFFFFFFFFFFFFFFFFFFFFFFFFFFFFFFFFFFFFFFFFFFFFFFFFFFFFFF DUP3 EQ ISZERO PUSH2 0x30BC JUMPI PUSH2 0x30BB PUSH2 0x304F JUMP JUMPDEST JUMPDEST PUSH1 0x1 DUP3 ADD SWAP1 POP SWAP2 SWAP1 POP JUMP JUMPDEST PUSH32 0x4E6F206163746976652061756374696F6E000000000000000000000000000000 PUSH1 0x0 DUP3 ADD MSTORE POP JUMP JUMPDEST PUSH1 0x0 PUSH2 0x30FD PUSH1 0x11 DUP4 PUSH2 0x2792 JUMP JUMPDEST SWAP2 POP PUSH2 0x3108 DUP3 PUSH2 0x30C7 JUMP JUMPDEST PUSH1 0x20 DUP3 ADD SWAP1 POP SWAP2 SWAP1 POP JUMP JUMPDEST PUSH1 0x0 PUSH1 0x20 DUP3 ADD SWAP1 POP DUP2 DUP2 SUB PUSH1 0x0 DUP4 ADD MSTORE PUSH2 0x312C DUP2 PUSH2 0x30F0 JUMP JUMPDEST SWAP1 POP SWAP2 SWAP1 POP JUMP JUMPDEST PUSH32 0x426964206D757374206265203E20300000000000000000000000000000000000 PUSH1 0x0 DUP3 ADD MSTORE POP JUMP JUMPDEST PUSH1 0x0 PUSH2 0x3169 PUSH1 0xF DUP4 PUSH2 0x2792 JUMP JUMPDEST SWAP2 POP PUSH2 0x3174 DUP3 PUSH2 0x3133 JUMP JUMPDEST PUSH1 0x20 DUP3 ADD SWAP1 POP SWAP2 SWAP1 POP JUMP JUMPDEST PUSH1 0x0 PUSH1 0x20 DUP3 ADD SWAP1 POP DUP2 DUP2 SUB PUSH1 0x0 DUP4 ADD MSTORE PUSH2 0x3198 DUP2 PUSH2 0x315C JUMP JUMPDEST SWAP1 POP SWAP2 SWAP1 POP JUMP JUMPDEST PUSH1 0x0 PUSH2 0x31AA DUP3 PUSH2 0x2450 JUMP JUMPDEST SWAP2 POP PUSH2 0x31B5 DUP4 PUSH2 0x2450 JUMP JUMPDEST SWAP3 POP DUP2 PUSH32 0xFFFFFFFFFFFFFFFFFFFFFFFFFFFFFFFFFFFFFFFFFFFFFFFFFFFFFFFFFFFFFFFF DIV DUP4 GT DUP3 ISZERO ISZERO AND ISZERO PUSH2 0x31EE JUMPI PUSH2 0x31ED PUSH2 0x304F JUMP JUMPDEST JUMPDEST DUP3 DUP3 MUL SWAP1 POP SWAP3 SWAP2 POP POP JUMP JUMPDEST PUSH32 0x4E487B7100000000000000000000000000000000000000000000000000000000 PUSH1 0x0 MSTORE PUSH1 0x12 PUSH1 0x4 MSTORE PUSH1 0x24 PUSH1 0x0 REVERT JUMPDEST PUSH1 0x0 PUSH2 0x3233 DUP3 PUSH2 0x2450 JUMP JUMPDEST SWAP2 POP PUSH2 0x323E DUP4 PUSH2 0x2450 JUMP JUMPDEST SWAP3 POP DUP3 PUSH2 0x324E JUMPI PUSH2 0x324D PUSH2 0x31F9 JUMP JUMPDEST JUMPDEST DUP3 DUP3 DIV SWAP1 POP SWAP3 SWAP2 POP POP JUMP JUMPDEST PUSH32 0x4269642065786365656473206C696D6974000000000000000000000000000000 PUSH1 0x0 DUP3 ADD MSTORE POP JUMP JUMPDEST PUSH1 0x0 PUSH2 0x328F PUSH1 0x11 DUP4 PUSH2 0x2792 JUMP JUMPDEST SWAP2 POP PUSH2 0x329A DUP3 PUSH2 0x3259 JUMP JUMPDEST PUSH1 0x20 DUP3 ADD SWAP1 POP SWAP2 SWAP1 POP JUMP JUMPDEST PUSH1 0x0 PUSH1 0x20 DUP3 ADD SWAP1 POP DUP2 DUP2 SUB PUSH1 0x0 DUP4 ADD MSTORE PUSH2 0x32BE DUP2 PUSH2 0x3282 JUMP JUMPDEST SWAP1 POP SWAP2 SWAP1 POP JUMP JUMPDEST PUSH32 0x496E636F72726563742045544820616D6F756E74000000000000000000000000 PUSH1 0x0 DUP3 ADD MSTORE POP JUMP JUMPDEST PUSH1 0x0 PUSH2 0x32FB PUSH1 0x14 DUP4 PUSH2 0x2792 JUMP JUMPDEST SWAP2 POP PUSH2 0x3306 DUP3 PUSH2 0x32C5 JUMP JUMPDEST PUSH1 0x20 DUP3 ADD SWAP1 POP SWAP2 SWAP1 POP JUMP JUMPDEST PUSH1 0x0 PUSH1 0x20 DUP3 ADD SWAP1 POP DUP2 DUP2 SUB PUSH1 0x0 DUP4 ADD MSTORE PUSH2 0x332A DUP2 PUSH2 0x32EE JUMP JUMPDEST SWAP1 POP SWAP2 SWAP1 POP JUMP JUMPDEST PUSH32 0x42696420616C726561647920706C616365640000000000000000000000000000 PUSH1 0x0 DUP3 ADD MSTORE POP JUMP JUMPDEST PUSH1 0x0 PUSH2 0x3367 PUSH1 0x12 DUP4 PUSH2 0x2792 JUMP JUMPDEST SWAP2 POP PUSH2 0x3372 DUP3 PUSH2 0x3331 JUMP JUMPDEST PUSH1 0x20 DUP3 ADD SWAP1 POP SWAP2 SWAP1 POP JUMP JUMPDEST PUSH1 0x0 PUSH1 0x20 DUP3 ADD SWAP1 POP DUP2 DUP2 SUB PUSH1 0x0 DUP4 ADD MSTORE PUSH2 0x3396 DUP2 PUSH2 0x335A JUMP JUMPDEST SWAP1 POP SWAP2 SWAP1 POP JUMP JUMPDEST PUSH32 0x496E76616C69642073656E64657220696E646578000000000000000000000000 PUSH1 0x0 DUP3 ADD MSTORE POP JUMP JUMPDEST PUSH1 0x0 PUSH2 0x33D3 PUSH1 0x14 DUP4 PUSH2 0x2792 JUMP JUMPDEST SWAP2 POP PUSH2 0x33DE DUP3 PUSH2 0x339D JUMP JUMPDEST PUSH1 0x20 DUP3 ADD SWAP1 POP SWAP2 SWAP1 POP JUMP JUMPDEST PUSH1 0x0 PUSH1 0x20 DUP3 ADD SWAP1 POP DUP2 DUP2 SUB PUSH1 0x0 DUP4 ADD MSTORE PUSH2 0x3402 DUP2 PUSH2 0x33C6 JUMP JUMPDEST SWAP1 POP SWAP2 SWAP1 POP JUMP JUMPDEST PUSH32 0x496E76616C696420726563656976657220696E64657800000000000000000000 PUSH1 0x0 DUP3 ADD MSTORE POP JUMP JUMPDEST PUSH1 0x0 PUSH2 0x343F PUSH1 0x16 DUP4 PUSH2 0x2792 JUMP JUMPDEST SWAP2 POP PUSH2 0x344A DUP3 PUSH2 0x3409 JUMP JUMPDEST PUSH1 0x20 DUP3 ADD SWAP1 POP SWAP2 SWAP1 POP JUMP JUMPDEST PUSH1 0x0 PUSH1 0x20 DUP3 ADD SWAP1 POP DUP2 DUP2 SUB PUSH1 0x0 DUP4 ADD MSTORE PUSH2 0x346E DUP2 PUSH2 0x3432 JUMP JUMPDEST SWAP1 POP SWAP2 SWAP1 POP JUMP JUMPDEST PUSH32 0x496E76616C696420626F72726F7720616D6F756E740000000000000000000000 PUSH1 0x0 DUP3 ADD MSTORE POP JUMP JUMPDEST PUSH1 0x0 PUSH2 0x34AB PUSH1 0x15 DUP4 PUSH2 0x2792 JUMP JUMPDEST SWAP2 POP PUSH2 0x34B6 DUP3 PUSH2 0x3475 JUMP JUMPDEST PUSH1 0x20 DUP3 ADD SWAP1 POP SWAP2 SWAP1 POP JUMP JUMPDEST PUSH1 0x0 PUSH1 0x20 DUP3 ADD SWAP1 POP DUP2 DUP2 SUB PUSH1 0x0 DUP4 ADD MSTORE PUSH2 0x34DA DUP2 PUSH2 0x349E JUMP JUMPDEST SWAP1 POP SWAP2 SWAP1 POP JUMP JUMPDEST PUSH1 0x0 PUSH2 0x34EC DUP3 PUSH2 0x2450 JUMP JUMPDEST SWAP2 POP PUSH2 0x34F7 DUP4 PUSH2 0x2450 JUMP JUMPDEST SWAP3 POP DUP3 PUSH32 0xFFFFFFFFFFFFFFFFFFFFFFFFFFFFFFFFFFFFFFFFFFFFFFFFFFFFFFFFFFFFFFFF SUB DUP3 GT ISZERO PUSH2 0x352C JUMPI PUSH2 0x352B PUSH2 0x304F JUMP JUMPDEST JUMPDEST DUP3 DUP3 ADD SWAP1 POP SWAP3 SWAP2 POP POP JUMP JUMPDEST PUSH1 0x0 PUSH2 0x3542 DUP3 PUSH2 0x2450 JUMP JUMPDEST SWAP2 POP PUSH2 0x354D DUP4 PUSH2 0x2450 JUMP JUMPDEST SWAP3 POP DUP3 DUP3 LT ISZERO PUSH2 0x3560 JUMPI PUSH2 0x355F PUSH2 0x304F JUMP JUMPDEST JUMPDEST DUP3 DUP3 SUB SWAP1 POP SWAP3 SWAP2 POP POP JUMP JUMPDEST PUSH32 0x496E76616C696420696E64757374727920696E64657800000000000000000000 PUSH1 0x0 DUP3 ADD MSTORE POP JUMP JUMPDEST PUSH1 0x0 PUSH2 0x35A1 PUSH1 0x16 DUP4 PUSH2 0x2792 JUMP JUMPDEST SWAP2 POP PUSH2 0x35AC DUP3 PUSH2 0x356B JUMP JUMPDEST PUSH1 0x20 DUP3 ADD SWAP1 POP SWAP2 SWAP1 POP JUMP JUMPDEST PUSH1 0x0 PUSH1 0x20 DUP3 ADD SWAP1 POP DUP2 DUP2 SUB PUSH1 0x0 DUP4 ADD MSTORE PUSH2 0x35D0 DUP2 PUSH2 0x3594 JUMP JUMPDEST SWAP1 POP SWAP2 SWAP1 POP JUMP JUMPDEST PUSH32 0x496E73756666696369656E742063726564697473000000000000000000000000 PUSH1 0x0 DUP3 ADD MSTORE POP JUMP JUMPDEST PUSH1 0x0 PUSH2 0x360D PUSH1 0x14 DUP4 PUSH2 0x2792 JUMP JUMPDEST SWAP2 POP PUSH2 0x3618 DUP3 PUSH2 0x35D7 JUMP JUMPDEST PUSH1 0x20 DUP3 ADD SWAP1 POP SWAP2 SWAP1 POP JUMP JUMPDEST PUSH1 0x0 PUSH1 0x20 DUP3 ADD SWAP1 POP DUP2 DUP2 SUB PUSH1 0x0 DUP4 ADD MSTORE PUSH2 0x363C DUP2 PUSH2 0x3600 JUMP JUMPDEST SWAP1 POP SWAP2 SWAP1 POP JUMP JUMPDEST PUSH32 0x4672656520416C6C6F636174696F6E0000000000000000000000000000000000 PUSH1 0x0 DUP3 ADD MSTORE POP JUMP JUMPDEST PUSH1 0x0 PUSH2 0x3679 PUSH1 0xF DUP4 PUSH2 0x2792 JUMP JUMPDEST SWAP2 POP PUSH2 0x3684 DUP3 PUSH2 0x3643 JUMP JUMPDEST PUSH1 0x20 DUP3 ADD SWAP1 POP SWAP2 SWAP1 POP JUMP JUMPDEST PUSH1 0x0 PUSH1 0x40 DUP3 ADD SWAP1 POP PUSH2 0x36A4 PUSH1 0x0 DUP4 ADD DUP5 PUSH2 0x281E JUMP JUMPDEST DUP2 DUP2 SUB PUSH1 0x20 DUP4 ADD MSTORE PUSH2 0x36B5 DUP2 PUSH2 0x366C JUMP JUMPDEST SWAP1 POP SWAP3 SWAP2 POP POP JUMP JUMPDEST PUSH32 0x42696464657220686173206E6F207265676973746572656420696E6475737472 PUSH1 0x0 DUP3 ADD MSTORE PUSH32 0x7900000000000000000000000000000000000000000000000000000000000000 PUSH1 0x20 DUP3 ADD MSTORE POP JUMP JUMPDEST PUSH1 0x0 PUSH2 0x3719 PUSH1 0x21 DUP4 PUSH2 0x2792 JUMP JUMPDEST SWAP2 POP PUSH2 0x3724 DUP3 PUSH2 0x36BD JUMP JUMPDEST PUSH1 0x40 DUP3 ADD SWAP1 POP SWAP2 SWAP1 POP JUMP JUMPDEST PUSH1 0x0 PUSH1 0x20 DUP3 ADD SWAP1 POP DUP2 DUP2 SUB PUSH1 0x0 DUP4 ADD MSTORE PUSH2 0x3748 DUP2 PUSH2 0x370C JUMP JUMPDEST SWAP1 POP SWAP2 SWAP1 POP JUMP INVALID LOG2 PUSH5 0x6970667358 0x22 SLT KECCAK256 SUB CALLDATASIZE SWAP2 GT ISZERO 0xBD 0xAF 0xCC 0x2B SWAP14 0xC0 0xAB PUSH16 0x93E39CD1F545900F86A214ECB7ECE2CA 0xD6 SWAP4 SWAP3 PUSH5 0x736F6C6343 STOP ADDMOD EXP STOP CALLER "},"methodIdentifiers":{"auctionPrice()":"56742b5a","borrowCredits(address,uint256,uint256,uint256)":"a8f33d6d","createAuction(uint256,uint256)":"0121683f","creditPrice()":"ca6358cd","currentAuction()":"496a698d","finalizeAuction()":"f77282ab","freeAllocation(address,uint256,uint256)":"ddc58b30","getIndustriesByOwner(address)":"90375df8","industries(address,uint256)":"48f48c7b","offsetProjects(address)":"d6572738","placeBid(uint256)":"9979ef45","registerIndustry(string,bool)":"2cfed5a0","registerOffsetProject(string)":"e0886752","registerVerifier(string)":"16cb4218","regulator()":"dd8fee14","stakeholders(address)":"c07cfca9","tradeCredits(address,uint256,uint256,uint256)":"bb4f5a4a","updateGHGEmissions(address,uint256,uint256,uint256,uint256,uint256,uint256,uint256)":"ad37d6c0","verifiers(address)":"6c824487"}}}}}