{
  "contractName": "KETSBlockchain",
  "abi": [
    {
      "inputs": [],
      "stateMutability": "nonpayable",
      "type": "constructor"
    },
    {
      "anonymous": false,
      "inputs": [
        {
          "indexed": true,
          "internalType": "address",
          "name": "bidder",
          "type": "address"
        },
        {
          "indexed": false,
          "internalType": "uint256",
          "name": "amount",
          "type": "uint256"
        }
      ],
      "name": "CreditAuctioned",
      "type": "event"
    },
    {
      "anonymous": false,
      "inputs": [
        {
          "indexed": true,
          "internalType": "address",
          "name": "from",
          "type": "address"
        },
        {
          "indexed": true,
          "internalType": "address",
          "name": "to",
          "type": "address"
        },
        {
          "indexed": false,
          "internalType": "uint256",
          "name": "amount",
          "type": "uint256"
        }
      ],
      "name": "CreditTraded",
      "type": "event"
    },
    {
      "anonymous": false,
      "inputs": [
        {
          "indexed": true,
          "internalType": "address",
          "name": "industry",
          "type": "address"
        },
        {
          "indexed": false,
          "internalType": "uint256",
          "name": "amount",
          "type": "uint256"
        },
        {
          "indexed": false,
          "internalType": "string",
          "name": "method",
          "type": "string"
        }
      ],
      "name": "CreditsIssued",
      "type": "event"
    },
    {
      "anonymous": false,
      "inputs": [
        {
          "indexed": true,
          "internalType": "address",
          "name": "industry",
          "type": "address"
        },
        {
          "indexed": false,
          "internalType": "string",
          "name": "name",
          "type": "string"
        }
      ],
      "name": "IndustryRegistered",
      "type": "event"
    },
    {
      "anonymous": false,
      "inputs": [
        {
          "indexed": true,
          "internalType": "address",
          "name": "owner",
          "type": "address"
        },
        {
          "indexed": false,
          "internalType": "string",
          "name": "projectName",
          "type": "string"
        }
      ],
      "name": "OffsetProjectRegistered",
      "type": "event"
    },
    {
      "anonymous": false,
      "inputs": [
        {
          "indexed": true,
          "internalType": "address",
          "name": "verifier",
          "type": "address"
        },
        {
          "indexed": false,
          "internalType": "string",
          "name": "name",
          "type": "string"
        }
      ],
      "name": "VerifierRegistered",
      "type": "event"
    },
    {
      "inputs": [],
      "name": "auctionPrice",
      "outputs": [
        {
          "internalType": "uint256",
          "name": "",
          "type": "uint256"
        }
      ],
      "stateMutability": "view",
      "type": "function"
    },
    {
      "inputs": [],
      "name": "creditPrice",
      "outputs": [
        {
          "internalType": "uint256",
          "name": "",
          "type": "uint256"
        }
      ],
      "stateMutability": "view",
      "type": "function"
    },
    {
      "inputs": [],
      "name": "currentAuction",
      "outputs": [
        {
          "internalType": "uint256",
          "name": "creditsAvailable",
          "type": "uint256"
        },
        {
          "internalType": "uint256",
          "name": "minBidPrice",
          "type": "uint256"
        },
        {
          "internalType": "bool",
          "name": "isActive",
          "type": "bool"
        }
      ],
      "stateMutability": "view",
      "type": "function"
    },
    {
      "inputs": [
        {
          "internalType": "address",
          "name": "",
          "type": "address"
        }
      ],
      "name": "ghgEmissions",
      "outputs": [
        {
          "internalType": "uint256",
          "name": "CO2",
          "type": "uint256"
        },
        {
          "internalType": "uint256",
          "name": "CH4",
          "type": "uint256"
        },
        {
          "internalType": "uint256",
          "name": "N2O",
          "type": "uint256"
        },
        {
          "internalType": "uint256",
          "name": "HFCs",
          "type": "uint256"
        },
        {
          "internalType": "uint256",
          "name": "PFCs",
          "type": "uint256"
        },
        {
          "internalType": "uint256",
          "name": "SF6",
          "type": "uint256"
        }
      ],
      "stateMutability": "view",
      "type": "function"
    },
    {
      "inputs": [
        {
          "internalType": "address",
          "name": "",
          "type": "address"
        }
      ],
      "name": "industries",
      "outputs": [
        {
          "internalType": "string",
          "name": "name",
          "type": "string"
        },
        {
          "internalType": "address",
          "name": "industryAddress",
          "type": "address"
        },
        {
          "internalType": "uint256",
          "name": "emissions",
          "type": "uint256"
        },
        {
          "internalType": "uint256",
          "name": "creditsOwned",
          "type": "uint256"
        },
        {
          "internalType": "string",
          "name": "creditType",
          "type": "string"
        },
        {
          "internalType": "bool",
          "name": "isRegistered",
          "type": "bool"
        },
        {
          "internalType": "bool",
          "name": "isEITE",
          "type": "bool"
        }
      ],
      "stateMutability": "view",
      "type": "function"
    },
    {
      "inputs": [
        {
          "internalType": "address",
          "name": "",
          "type": "address"
        }
      ],
      "name": "offsetProjects",
      "outputs": [
        {
          "internalType": "string",
          "name": "projectName",
          "type": "string"
        },
        {
          "internalType": "address",
          "name": "owner",
          "type": "address"
        },
        {
          "internalType": "uint256",
          "name": "creditsEarned",
          "type": "uint256"
        },
        {
          "internalType": "uint256",
          "name": "incentive",
          "type": "uint256"
        },
        {
          "internalType": "bool",
          "name": "isApproved",
          "type": "bool"
        }
      ],
      "stateMutability": "view",
      "type": "function"
    },
    {
      "inputs": [],
      "name": "regulator",
      "outputs": [
        {
          "internalType": "address",
          "name": "",
          "type": "address"
        }
      ],
      "stateMutability": "view",
      "type": "function"
    },
    {
      "inputs": [
        {
          "internalType": "address",
          "name": "",
          "type": "address"
        }
      ],
      "name": "stakeholders",
      "outputs": [
        {
          "internalType": "string",
          "name": "name",
          "type": "string"
        },
        {
          "internalType": "address",
          "name": "stakeholderAddress",
          "type": "address"
        }
      ],
      "stateMutability": "view",
      "type": "function"
    },
    {
      "inputs": [
        {
          "internalType": "address",
          "name": "",
          "type": "address"
        }
      ],
      "name": "verifiers",
      "outputs": [
        {
          "internalType": "string",
          "name": "verifierName",
          "type": "string"
        },
        {
          "internalType": "address",
          "name": "verifierAddress",
          "type": "address"
        },
        {
          "internalType": "bool",
          "name": "isApproved",
          "type": "bool"
        }
      ],
      "stateMutability": "view",
      "type": "function"
    },
    {
      "inputs": [
        {
          "internalType": "string",
          "name": "_name",
          "type": "string"
        },
        {
          "internalType": "bool",
          "name": "_isEITE",
          "type": "bool"
        }
      ],
      "name": "registerIndustry",
      "outputs": [],
      "stateMutability": "nonpayable",
      "type": "function"
    },
    {
      "inputs": [
        {
          "internalType": "string",
          "name": "_projectName",
          "type": "string"
        }
      ],
      "name": "registerOffsetProject",
      "outputs": [],
      "stateMutability": "nonpayable",
      "type": "function"
    },
    {
      "inputs": [
        {
          "internalType": "string",
          "name": "_verifierName",
          "type": "string"
        }
      ],
      "name": "registerVerifier",
      "outputs": [],
      "stateMutability": "nonpayable",
      "type": "function"
    },
    {
      "inputs": [
        {
          "internalType": "address",
          "name": "_industry",
          "type": "address"
        },
        {
          "internalType": "uint256",
          "name": "_CO2",
          "type": "uint256"
        },
        {
          "internalType": "uint256",
          "name": "_CH4",
          "type": "uint256"
        },
        {
          "internalType": "uint256",
          "name": "_N2O",
          "type": "uint256"
        },
        {
          "internalType": "uint256",
          "name": "_HFCs",
          "type": "uint256"
        },
        {
          "internalType": "uint256",
          "name": "_PFCs",
          "type": "uint256"
        },
        {
          "internalType": "uint256",
          "name": "_SF6",
          "type": "uint256"
        }
      ],
      "name": "updateGHGEmissions",
      "outputs": [],
      "stateMutability": "nonpayable",
      "type": "function"
    },
    {
      "inputs": [
        {
          "internalType": "address",
          "name": "_industry",
          "type": "address"
        }
      ],
      "name": "viewEmissionUpdate",
      "outputs": [
        {
          "components": [
            {
              "internalType": "uint256",
              "name": "CO2",
              "type": "uint256"
            },
            {
              "internalType": "uint256",
              "name": "CH4",
              "type": "uint256"
            },
            {
              "internalType": "uint256",
              "name": "N2O",
              "type": "uint256"
            },
            {
              "internalType": "uint256",
              "name": "HFCs",
              "type": "uint256"
            },
            {
              "internalType": "uint256",
              "name": "PFCs",
              "type": "uint256"
            },
            {
              "internalType": "uint256",
              "name": "SF6",
              "type": "uint256"
            }
          ],
          "internalType": "struct KETSBlockchain.GHG",
          "name": "",
          "type": "tuple"
        }
      ],
      "stateMutability": "view",
      "type": "function"
    },
    {
      "inputs": [
        {
          "internalType": "address",
          "name": "_industryAddress",
          "type": "address"
        },
        {
          "internalType": "uint256",
          "name": "_credits",
          "type": "uint256"
        }
      ],
      "name": "freeAllocation",
      "outputs": [],
      "stateMutability": "nonpayable",
      "type": "function"
    },
    {
      "inputs": [
        {
          "internalType": "uint256",
          "name": "_creditsAvailable",
          "type": "uint256"
        },
        {
          "internalType": "uint256",
          "name": "_minBidPrice",
          "type": "uint256"
        }
      ],
      "name": "createAuction",
      "outputs": [],
      "stateMutability": "nonpayable",
      "type": "function"
    },
    {
      "inputs": [
        {
          "internalType": "uint256",
          "name": "_bidAmount",
          "type": "uint256"
        }
      ],
      "name": "placeBid",
      "outputs": [],
      "stateMutability": "nonpayable",
      "type": "function"
    },
    {
      "inputs": [
        {
          "internalType": "address",
          "name": "_to",
          "type": "address"
        },
        {
          "internalType": "uint256",
          "name": "_amount",
          "type": "uint256"
        }
      ],
      "name": "tradeCredits",
      "outputs": [],
      "stateMutability": "nonpayable",
      "type": "function"
    },
    {
      "inputs": [
        {
          "internalType": "address",
          "name": "_to",
          "type": "address"
        },
        {
          "internalType": "uint256",
          "name": "_amount",
          "type": "uint256"
        }
      ],
      "name": "borrowCredits",
      "outputs": [],
      "stateMutability": "nonpayable",
      "type": "function"
    },
    {
      "inputs": [
        {
          "internalType": "address",
          "name": "_industry",
          "type": "address"
        }
      ],
      "name": "viewBorrowedCredits",
      "outputs": [
        {
          "internalType": "uint256",
          "name": "",
          "type": "uint256"
        }
      ],
      "stateMutability": "view",
      "type": "function"
    }
  ],
  "bytecode": "0x608060405268019274b259f6540000600155660997a2bce4c00060025534801561002857600080fd5b50336000806101000a81548173ffffffffffffffffffffffffffffffffffffffff021916908373ffffffffffffffffffffffffffffffffffffffff1602179055506128a7806100786000396000f3fe608060405234801561001057600080fd5b506004361061012c5760003560e01c80639979ef45116100ad578063c83acb5b11610071578063c83acb5b14610361578063ca6358cd1461037d578063d65727381461039b578063dd8fee14146103cf578063e0886752146103ed5761012c565b80639979ef45146102ac578063b8e3cd6b146102c8578063c07cfca9146102e4578063c54ac25f14610315578063c6dcd346146103315761012c565b80633c8925de116100f45780633c8925de146101f05780634857ae601461020c578063496a698d1461023c57806356742b5a1461025c5780636c8244871461027a5761012c565b80630121683f14610131578063091a3a241461014d57806316cb4218146101835780632cfed5a01461019f57806333249416146101bb575b600080fd5b61014b60048036038101906101469190611a39565b610409565b005b61016760048036038101906101629190611ad7565b610563565b60405161017a9796959493929190611bd6565b60405180910390f35b61019d60048036038101906101989190611d88565b6106ef565b005b6101b960048036038101906101b49190611dfd565b6108c8565b005b6101d560048036038101906101d09190611ad7565b610b20565b6040516101e796959493929190611e59565b60405180910390f35b61020a60048036038101906102059190611eba565b610b5c565b005b61022660048036038101906102219190611ad7565b610d9d565b6040516102339190611f84565b60405180910390f35b610244610e32565b60405161025393929190611f9f565b60405180910390f35b610264610e57565b6040516102719190611fd6565b60405180910390f35b610294600480360381019061028f9190611ad7565b610e5d565b6040516102a393929190611ff1565b60405180910390f35b6102c660048036038101906102c1919061202f565b610f3c565b005b6102e260048036038101906102dd919061205c565b611153565b005b6102fe60048036038101906102f99190611ad7565b611296565b60405161030c9291906120fe565b60405180910390f35b61032f600480360381019061032a9190611eba565b611362565b005b61034b60048036038101906103469190611ad7565b611502565b6040516103589190611fd6565b60405180910390f35b61037b60048036038101906103769190611eba565b61154e565b005b610385611694565b6040516103929190611fd6565b60405180910390f35b6103b560048036038101906103b09190611ad7565b61169a565b6040516103c695949392919061212e565b60405180910390f35b6103d7611785565b6040516103e49190612188565b60405180910390f35b61040760048036038101906104029190611d88565b6117a9565b005b60008054906101000a900473ffffffffffffffffffffffffffffffffffffffff1673ffffffffffffffffffffffffffffffffffffffff163373ffffffffffffffffffffffffffffffffffffffff1614610497576040517f08c379a000000000000000000000000000000000000000000000000000000000815260040161048e906121ef565b60405180910390fd5b600860020160009054906101000a900460ff16156104ea576040517f08c379a00000000000000000000000000000000000000000000000000000000081526004016104e19061225b565b60405180910390fd5b6000821161052d576040517f08c379a0000000000000000000000000000000000000000000000000000000008152600401610524906122ed565b60405180910390fd5b81600860000181905550806008600101819055506001600860020160006101000a81548160ff0219169083151502179055505050565b60036020528060005260406000206000915090508060000180546105869061233c565b80601f01602080910402602001604051908101604052809291908181526020018280546105b29061233c565b80156105ff5780601f106105d4576101008083540402835291602001916105ff565b820191906000526020600020905b8154815290600101906020018083116105e257829003601f168201915b5050505050908060010160009054906101000a900473ffffffffffffffffffffffffffffffffffffffff16908060020154908060030154908060040180546106469061233c565b80601f01602080910402602001604051908101604052809291908181526020018280546106729061233c565b80156106bf5780601f10610694576101008083540402835291602001916106bf565b820191906000526020600020905b8154815290600101906020018083116106a257829003601f168201915b5050505050908060050160009054906101000a900460ff16908060050160019054906101000a900460ff16905087565b60008054906101000a900473ffffffffffffffffffffffffffffffffffffffff1673ffffffffffffffffffffffffffffffffffffffff163373ffffffffffffffffffffffffffffffffffffffff161461077d576040517f08c379a0000000000000000000000000000000000000000000000000000000008152600401610774906121ef565b60405180910390fd5b60405180606001604052808281526020013373ffffffffffffffffffffffffffffffffffffffff16815260200160011515815250600560003373ffffffffffffffffffffffffffffffffffffffff1673ffffffffffffffffffffffffffffffffffffffff168152602001908152602001600020600082015181600001908051906020019061080c929190611916565b5060208201518160010160006101000a81548173ffffffffffffffffffffffffffffffffffffffff021916908373ffffffffffffffffffffffffffffffffffffffff16021790555060408201518160010160146101000a81548160ff0219169083151502179055509050503373ffffffffffffffffffffffffffffffffffffffff167f0fd4b0ebe383a8cf2076bec6cd82045a5d19f1c6cb5afc0d2ca42a951c313ccc826040516108bd919061236e565b60405180910390a250565b600360003373ffffffffffffffffffffffffffffffffffffffff1673ffffffffffffffffffffffffffffffffffffffff16815260200190815260200160002060050160009054906101000a900460ff1615610958576040517f08c379a000000000000000000000000000000000000000000000000000000000815260040161094f906123dc565b60405180910390fd5b6040518060e001604052808381526020013373ffffffffffffffffffffffffffffffffffffffff1681526020016000815260200160008152602001604051806020016040528060008152508152602001600115158152602001821515815250600360003373ffffffffffffffffffffffffffffffffffffffff1673ffffffffffffffffffffffffffffffffffffffff1681526020019081526020016000206000820151816000019080519060200190610a12929190611916565b5060208201518160010160006101000a81548173ffffffffffffffffffffffffffffffffffffffff021916908373ffffffffffffffffffffffffffffffffffffffff16021790555060408201518160020155606082015181600301556080820151816004019080519060200190610a8a929190611916565b5060a08201518160050160006101000a81548160ff02191690831515021790555060c08201518160050160016101000a81548160ff0219169083151502179055509050503373ffffffffffffffffffffffffffffffffffffffff167f3265a4551bbff34dc6f6f3c994f0f1516096fd7968c8590391c7a398e31851f283604051610b14919061236e565b60405180910390a25050565b60076020528060005260406000206000915090508060000154908060010154908060020154908060030154908060040154908060050154905086565b60008054906101000a900473ffffffffffffffffffffffffffffffffffffffff1673ffffffffffffffffffffffffffffffffffffffff163373ffffffffffffffffffffffffffffffffffffffff1614610bea576040517f08c379a0000000000000000000000000000000000000000000000000000000008152600401610be1906121ef565b60405180910390fd5b600360008373ffffffffffffffffffffffffffffffffffffffff1673ffffffffffffffffffffffffffffffffffffffff16815260200190815260200160002060050160009054906101000a900460ff16610c79576040517f08c379a0000000000000000000000000000000000000000000000000000000008152600401610c7090612448565b60405180910390fd5b6000600360008473ffffffffffffffffffffffffffffffffffffffff1673ffffffffffffffffffffffffffffffffffffffff16815260200190815260200160002060050160019054906101000a900460ff16610ced576064605a83610cde9190612497565b610ce89190612520565b610cef565b815b905080600360008573ffffffffffffffffffffffffffffffffffffffff1673ffffffffffffffffffffffffffffffffffffffff1681526020019081526020016000206003016000828254610d439190612551565b925050819055508273ffffffffffffffffffffffffffffffffffffffff167fa6ebac01b725932f51a7d81004fe00353d3bfa28773f042abaf37d9b994b1ae382604051610d9091906125f3565b60405180910390a2505050565b610da561199c565b600760008373ffffffffffffffffffffffffffffffffffffffff1673ffffffffffffffffffffffffffffffffffffffff1681526020019081526020016000206040518060c001604052908160008201548152602001600182015481526020016002820154815260200160038201548152602001600482015481526020016005820154815250509050919050565b60088060000154908060010154908060020160009054906101000a900460ff16905083565b60015481565b6005602052806000526040600020600091509050806000018054610e809061233c565b80601f0160208091040260200160405190810160405280929190818152602001828054610eac9061233c565b8015610ef95780601f10610ece57610100808354040283529160200191610ef9565b820191906000526020600020905b815481529060010190602001808311610edc57829003601f168201915b5050505050908060010160009054906101000a900473ffffffffffffffffffffffffffffffffffffffff16908060010160149054906101000a900460ff16905083565b600860020160009054906101000a900460ff16610f8e576040517f08c379a0000000000000000000000000000000000000000000000000000000008152600401610f859061266d565b60405180910390fd5b600860010154811015610fd6576040517f08c379a0000000000000000000000000000000000000000000000000000000008152600401610fcd906126d9565b60405180910390fd5b80600360003373ffffffffffffffffffffffffffffffffffffffff1673ffffffffffffffffffffffffffffffffffffffff16815260200190815260200160002060030154101561105b576040517f08c379a000000000000000000000000000000000000000000000000000000000815260040161105290612745565b60405180910390fd5b6064600f60086000015461106f9190612497565b6110799190612520565b8111156110bb576040517f08c379a00000000000000000000000000000000000000000000000000000000081526004016110b2906127b1565b60405180910390fd5b80600860030160003373ffffffffffffffffffffffffffffffffffffffff1673ffffffffffffffffffffffffffffffffffffffff168152602001908152602001600020819055503373ffffffffffffffffffffffffffffffffffffffff167f5774c60ebe7fa63590b3be5117173b088bcf881a3294d58fee441ae1f022af36826040516111489190611fd6565b60405180910390a250565b600360008873ffffffffffffffffffffffffffffffffffffffff1673ffffffffffffffffffffffffffffffffffffffff16815260200190815260200160002060050160009054906101000a900460ff166111e2576040517f08c379a00000000000000000000000000000000000000000000000000000000081526004016111d990612448565b60405180910390fd5b6040518060c0016040528087815260200186815260200185815260200184815260200183815260200182815250600760008973ffffffffffffffffffffffffffffffffffffffff1673ffffffffffffffffffffffffffffffffffffffff168152602001908152602001600020600082015181600001556020820151816001015560408201518160020155606082015181600301556080820151816004015560a0820151816005015590505050505050505050565b60066020528060005260406000206000915090508060000180546112b99061233c565b80601f01602080910402602001604051908101604052809291908181526020018280546112e59061233c565b80156113325780601f1061130757610100808354040283529160200191611332565b820191906000526020600020905b81548152906001019060200180831161131557829003601f168201915b5050505050908060010160009054906101000a900473ffffffffffffffffffffffffffffffffffffffff16905082565b80600360003373ffffffffffffffffffffffffffffffffffffffff1673ffffffffffffffffffffffffffffffffffffffff1681526020019081526020016000206003015410156113e7576040517f08c379a00000000000000000000000000000000000000000000000000000000081526004016113de90612745565b60405180910390fd5b80600360003373ffffffffffffffffffffffffffffffffffffffff1673ffffffffffffffffffffffffffffffffffffffff168152602001908152602001600020600301600082825461143991906127d1565b9250508190555080600360008473ffffffffffffffffffffffffffffffffffffffff1673ffffffffffffffffffffffffffffffffffffffff16815260200190815260200160002060030160008282546114929190612551565b925050819055508173ffffffffffffffffffffffffffffffffffffffff163373ffffffffffffffffffffffffffffffffffffffff167fce6bdd003c99b8daa3bf63cf6a00e43811f73af3dc2dd0b99554a7890a22b2bc836040516114f69190611fd6565b60405180910390a35050565b6000600360008373ffffffffffffffffffffffffffffffffffffffff1673ffffffffffffffffffffffffffffffffffffffff168152602001908152602001600020600301549050919050565b60008111801561159f575080600360003373ffffffffffffffffffffffffffffffffffffffff1673ffffffffffffffffffffffffffffffffffffffff16815260200190815260200160002060030154115b6115de576040517f08c379a00000000000000000000000000000000000000000000000000000000081526004016115d590612851565b60405180910390fd5b80600360008473ffffffffffffffffffffffffffffffffffffffff1673ffffffffffffffffffffffffffffffffffffffff16815260200190815260200160002060030160008282546116309190612551565b9250508190555080600360003373ffffffffffffffffffffffffffffffffffffffff1673ffffffffffffffffffffffffffffffffffffffff168152602001908152602001600020600301600082825461168991906127d1565b925050819055505050565b60025481565b60046020528060005260406000206000915090508060000180546116bd9061233c565b80601f01602080910402602001604051908101604052809291908181526020018280546116e99061233c565b80156117365780601f1061170b57610100808354040283529160200191611736565b820191906000526020600020905b81548152906001019060200180831161171957829003601f168201915b5050505050908060010160009054906101000a900473ffffffffffffffffffffffffffffffffffffffff16908060020154908060030154908060040160009054906101000a900460ff16905085565b60008054906101000a900473ffffffffffffffffffffffffffffffffffffffff1681565b6040518060a001604052808281526020013373ffffffffffffffffffffffffffffffffffffffff168152602001600081526020016000815260200160001515815250600460003373ffffffffffffffffffffffffffffffffffffffff1673ffffffffffffffffffffffffffffffffffffffff1681526020019081526020016000206000820151816000019080519060200190611846929190611916565b5060208201518160010160006101000a81548173ffffffffffffffffffffffffffffffffffffffff021916908373ffffffffffffffffffffffffffffffffffffffff160217905550604082015181600201556060820151816003015560808201518160040160006101000a81548160ff0219169083151502179055509050503373ffffffffffffffffffffffffffffffffffffffff167ffebbcad7683c10d8ca64fd9317594b0e78e867bf9d4ab27c96c84f140599adbe8260405161190b919061236e565b60405180910390a250565b8280546119229061233c565b90600052602060002090601f016020900481019282611944576000855561198b565b82601f1061195d57805160ff191683800117855561198b565b8280016001018555821561198b579182015b8281111561198a57825182559160200191906001019061196f565b5b50905061199891906119d2565b5090565b6040518060c001604052806000815260200160008152602001600081526020016000815260200160008152602001600081525090565b5b808211156119eb5760008160009055506001016119d3565b5090565b6000604051905090565b600080fd5b600080fd5b6000819050919050565b611a1681611a03565b8114611a2157600080fd5b50565b600081359050611a3381611a0d565b92915050565b60008060408385031215611a5057611a4f6119f9565b5b6000611a5e85828601611a24565b9250506020611a6f85828601611a24565b9150509250929050565b600073ffffffffffffffffffffffffffffffffffffffff82169050919050565b6000611aa482611a79565b9050919050565b611ab481611a99565b8114611abf57600080fd5b50565b600081359050611ad181611aab565b92915050565b600060208284031215611aed57611aec6119f9565b5b6000611afb84828501611ac2565b91505092915050565b600081519050919050565b600082825260208201905092915050565b60005b83811015611b3e578082015181840152602081019050611b23565b83811115611b4d576000848401525b50505050565b6000601f19601f8301169050919050565b6000611b6f82611b04565b611b798185611b0f565b9350611b89818560208601611b20565b611b9281611b53565b840191505092915050565b611ba681611a99565b82525050565b611bb581611a03565b82525050565b60008115159050919050565b611bd081611bbb565b82525050565b600060e0820190508181036000830152611bf0818a611b64565b9050611bff6020830189611b9d565b611c0c6040830188611bac565b611c196060830187611bac565b8181036080830152611c2b8186611b64565b9050611c3a60a0830185611bc7565b611c4760c0830184611bc7565b98975050505050505050565b600080fd5b600080fd5b7f4e487b7100000000000000000000000000000000000000000000000000000000600052604160045260246000fd5b611c9582611b53565b810181811067ffffffffffffffff82111715611cb457611cb3611c5d565b5b80604052505050565b6000611cc76119ef565b9050611cd38282611c8c565b919050565b600067ffffffffffffffff821115611cf357611cf2611c5d565b5b611cfc82611b53565b9050602081019050919050565b82818337600083830152505050565b6000611d2b611d2684611cd8565b611cbd565b905082815260208101848484011115611d4757611d46611c58565b5b611d52848285611d09565b509392505050565b600082601f830112611d6f57611d6e611c53565b5b8135611d7f848260208601611d18565b91505092915050565b600060208284031215611d9e57611d9d6119f9565b5b600082013567ffffffffffffffff811115611dbc57611dbb6119fe565b5b611dc884828501611d5a565b91505092915050565b611dda81611bbb565b8114611de557600080fd5b50565b600081359050611df781611dd1565b92915050565b60008060408385031215611e1457611e136119f9565b5b600083013567ffffffffffffffff811115611e3257611e316119fe565b5b611e3e85828601611d5a565b9250506020611e4f85828601611de8565b9150509250929050565b600060c082019050611e6e6000830189611bac565b611e7b6020830188611bac565b611e886040830187611bac565b611e956060830186611bac565b611ea26080830185611bac565b611eaf60a0830184611bac565b979650505050505050565b60008060408385031215611ed157611ed06119f9565b5b6000611edf85828601611ac2565b9250506020611ef085828601611a24565b9150509250929050565b611f0381611a03565b82525050565b60c082016000820151611f1f6000850182611efa565b506020820151611f326020850182611efa565b506040820151611f456040850182611efa565b506060820151611f586060850182611efa565b506080820151611f6b6080850182611efa565b5060a0820151611f7e60a0850182611efa565b50505050565b600060c082019050611f996000830184611f09565b92915050565b6000606082019050611fb46000830186611bac565b611fc16020830185611bac565b611fce6040830184611bc7565b949350505050565b6000602082019050611feb6000830184611bac565b92915050565b6000606082019050818103600083015261200b8186611b64565b905061201a6020830185611b9d565b6120276040830184611bc7565b949350505050565b600060208284031215612045576120446119f9565b5b600061205384828501611a24565b91505092915050565b600080600080600080600060e0888a03121561207b5761207a6119f9565b5b60006120898a828b01611ac2565b975050602061209a8a828b01611a24565b96505060406120ab8a828b01611a24565b95505060606120bc8a828b01611a24565b94505060806120cd8a828b01611a24565b93505060a06120de8a828b01611a24565b92505060c06120ef8a828b01611a24565b91505092959891949750929550565b600060408201905081810360008301526121188185611b64565b90506121276020830184611b9d565b9392505050565b600060a08201905081810360008301526121488188611b64565b90506121576020830187611b9d565b6121646040830186611bac565b6121716060830185611bac565b61217e6080830184611bc7565b9695505050505050565b600060208201905061219d6000830184611b9d565b92915050565b7f4e6f7420617574686f72697a6564000000000000000000000000000000000000600082015250565b60006121d9600e83611b0f565b91506121e4826121a3565b602082019050919050565b60006020820190508181036000830152612208816121cc565b9050919050565b7f41756374696f6e20616c72656164792061637469766500000000000000000000600082015250565b6000612245601683611b0f565b91506122508261220f565b602082019050919050565b6000602082019050818103600083015261227481612238565b9050919050565b7f43726564697473206d7573742062652067726561746572207468616e207a657260008201527f6f00000000000000000000000000000000000000000000000000000000000000602082015250565b60006122d7602183611b0f565b91506122e28261227b565b604082019050919050565b60006020820190508181036000830152612306816122ca565b9050919050565b7f4e487b7100000000000000000000000000000000000000000000000000000000600052602260045260246000fd5b6000600282049050600182168061235457607f821691505b602082108114156123685761236761230d565b5b50919050565b600060208201905081810360008301526123888184611b64565b905092915050565b7f416c726561647920726567697374657265640000000000000000000000000000600082015250565b60006123c6601283611b0f565b91506123d182612390565b602082019050919050565b600060208201905081810360008301526123f5816123b9565b9050919050565b7f496e647573747279206e6f742072656769737465726564000000000000000000600082015250565b6000612432601783611b0f565b915061243d826123fc565b602082019050919050565b6000602082019050818103600083015261246181612425565b9050919050565b7f4e487b7100000000000000000000000000000000000000000000000000000000600052601160045260246000fd5b60006124a282611a03565b91506124ad83611a03565b9250817fffffffffffffffffffffffffffffffffffffffffffffffffffffffffffffffff04831182151516156124e6576124e5612468565b5b828202905092915050565b7f4e487b7100000000000000000000000000000000000000000000000000000000600052601260045260246000fd5b600061252b82611a03565b915061253683611a03565b925082612546576125456124f1565b5b828204905092915050565b600061255c82611a03565b915061256783611a03565b9250827fffffffffffffffffffffffffffffffffffffffffffffffffffffffffffffffff0382111561259c5761259b612468565b5b828201905092915050565b7f4672656520416c6c6f636174696f6e0000000000000000000000000000000000600082015250565b60006125dd600f83611b0f565b91506125e8826125a7565b602082019050919050565b60006040820190506126086000830184611bac565b8181036020830152612619816125d0565b905092915050565b7f4e6f206163746976652061756374696f6e000000000000000000000000000000600082015250565b6000612657601183611b0f565b915061266282612621565b602082019050919050565b600060208201905081810360008301526126868161264a565b9050919050565b7f42696420746f6f206c6f77000000000000000000000000000000000000000000600082015250565b60006126c3600b83611b0f565b91506126ce8261268d565b602082019050919050565b600060208201905081810360008301526126f2816126b6565b9050919050565b7f496e73756666696369656e742063726564697473000000000000000000000000600082015250565b600061272f601483611b0f565b915061273a826126f9565b602082019050919050565b6000602082019050818103600083015261275e81612722565b9050919050565b7f43616e6e6f7420626964206d6f7265207468616e203135250000000000000000600082015250565b600061279b601883611b0f565b91506127a682612765565b602082019050919050565b600060208201905081810360008301526127ca8161278e565b9050919050565b60006127dc82611a03565b91506127e783611a03565b9250828210156127fa576127f9612468565b5b828203905092915050565b7f496e76616c696420626f72726f7720616d6f756e740000000000000000000000600082015250565b600061283b601583611b0f565b915061284682612805565b602082019050919050565b6000602082019050818103600083015261286a8161282e565b905091905056fea264697066735822122076f06181f1916c9bf3dfe9b84de2a1628a5809bb29786f9b44e935e214372e2f64736f6c634300080a0033",
  "immutableReferences": {},
  "source": "// SPDX-License-Identifier: MIT\r\npragma solidity 0.8.10;\r\n\r\ncontract KETSBlockchain {\r\n    address public regulator;  // Ministry of Environment / K-ETS authority\r\n\r\n    uint public auctionPrice = 29 ether; // Auction price in ETH (KRW 10,672)\r\n    uint public creditPrice = 0.0027 ether;  // Price per carbon credit (KRW 9,999)\r\n\r\n    constructor() {\r\n        regulator = msg.sender; // Set the contract deployer as the regulator\r\n    }\r\n\r\n    //  Events for logging\r\n    event IndustryRegistered(address indexed industry, string name);\r\n    event VerifierRegistered(address indexed verifier, string name);\r\n    event OffsetProjectRegistered(address indexed owner, string projectName);\r\n    event CreditsIssued(address indexed industry, uint amount, string method);\r\n    event CreditTraded(address indexed from, address indexed to, uint amount);\r\n    event CreditAuctioned(address indexed bidder, uint amount);\r\n    \r\n    //  Modifier to restrict actions to the regulator\r\n    modifier onlyRegulator() {\r\n        require(msg.sender == regulator, \"Not authorized\");\r\n        _;\r\n    }\r\n\r\n    struct Industry {\r\n        string name;\r\n        address industryAddress;\r\n        uint emissions;\r\n        uint creditsOwned;\r\n        string creditType; // free allowances / auctioning / trading / offsetProject\r\n        bool isRegistered;\r\n        bool isEITE;\r\n    }\r\n\r\n    struct OffsetProject {\r\n        string projectName;\r\n        address owner;\r\n        uint creditsEarned;\r\n        uint incentive;\r\n        bool isApproved;\r\n    }\r\n\r\n    struct Auction {\r\n        uint creditsAvailable;\r\n        uint minBidPrice;\r\n        bool isActive;\r\n        mapping(address => uint) bids;\r\n    }\r\n\r\n    struct Verifier {\r\n        string verifierName;\r\n        address verifierAddress;\r\n        bool isApproved;\r\n    }\r\n\r\n    struct Stakeholder {\r\n        string name;\r\n        address stakeholderAddress;\r\n    }    \r\n\r\n    struct GHG {\r\n        uint CO2; \r\n        uint CH4;\r\n        uint N2O;\r\n        uint HFCs;\r\n        uint PFCs; \r\n        uint SF6;\r\n    }\r\n\r\n    mapping(address => Industry) public industries;\r\n    mapping(address => OffsetProject) public offsetProjects;\r\n    mapping(address => Verifier) public verifiers;\r\n    mapping(address => Stakeholder) public stakeholders;\r\n    mapping(address => GHG) public ghgEmissions;\r\n    Auction public currentAuction;\r\n\r\n    //  Register an industry\r\n    function registerIndustry(string memory _name, bool _isEITE) public {\r\n        require(!industries[msg.sender].isRegistered, \"Already registered\");\r\n        industries[msg.sender] = Industry(_name, msg.sender, 0, 0, \"\", true, _isEITE);\r\n        emit IndustryRegistered(msg.sender, _name);\r\n    }\r\n\r\n    //  Register an offset project\r\n    function registerOffsetProject(string memory _projectName) public {\r\n        offsetProjects[msg.sender] = OffsetProject(_projectName, msg.sender, 0, 0, false);\r\n        emit OffsetProjectRegistered(msg.sender, _projectName);\r\n    }\r\n\r\n    //  Register a verifier\r\n    function registerVerifier(string memory _verifierName) public onlyRegulator {\r\n        verifiers[msg.sender] = Verifier(_verifierName, msg.sender, true);\r\n        emit VerifierRegistered(msg.sender, _verifierName);\r\n    }\r\n\r\n    //  Update GHG emissions for an industry\r\n    function updateGHGEmissions(address _industry, uint _CO2, uint _CH4, uint _N2O, uint _HFCs, uint _PFCs, uint _SF6) external {\r\n        require(industries[_industry].isRegistered, \"Industry not registered\");\r\n        ghgEmissions[_industry] = GHG(_CO2, _CH4, _N2O, _HFCs, _PFCs, _SF6);\r\n    }\r\n\r\n    //  View emissions\r\n    function viewEmissionUpdate(address _industry) external view returns (GHG memory) {\r\n        return ghgEmissions[_industry];\r\n    }\r\n\r\n    //  Issue free allocation of credits (100% EITE, 90% others)\r\n    function freeAllocation(address _industryAddress, uint _credits) external onlyRegulator {\r\n        require(industries[_industryAddress].isRegistered, \"Industry not registered\");\r\n        uint allocatedCredits = industries[_industryAddress].isEITE ? _credits : (_credits * 90) / 100;\r\n        industries[_industryAddress].creditsOwned += allocatedCredits;\r\n        emit CreditsIssued(_industryAddress, allocatedCredits, \"Free Allocation\");\r\n    }\r\n\r\n    //  Start an auction\r\n    function createAuction(uint _creditsAvailable, uint _minBidPrice) external onlyRegulator {\r\n        require(!currentAuction.isActive, \"Auction already active\");\r\n        require(_creditsAvailable > 0, \"Credits must be greater than zero\");\r\n\r\n        currentAuction.creditsAvailable = _creditsAvailable;\r\n        currentAuction.minBidPrice = _minBidPrice;\r\n        currentAuction.isActive = true;\r\n    }\r\n\r\n    //  Place a bid in the auction\r\n    function placeBid(uint _bidAmount) external {\r\n        require(currentAuction.isActive, \"No active auction\");\r\n        require(_bidAmount >= currentAuction.minBidPrice, \"Bid too low\");\r\n        require(industries[msg.sender].creditsOwned >= _bidAmount, \"Insufficient credits\");\r\n        require(_bidAmount <= (currentAuction.creditsAvailable * 15) / 100, \"Cannot bid more than 15%\");\r\n\r\n        currentAuction.bids[msg.sender] = _bidAmount;\r\n        emit CreditAuctioned(msg.sender, _bidAmount);\r\n    }\r\n\r\n    //  Trade carbon credits\r\n    function tradeCredits(address _to, uint _amount) external {\r\n        require(industries[msg.sender].creditsOwned >= _amount, \"Insufficient credits\");\r\n        industries[msg.sender].creditsOwned -= _amount;\r\n        industries[_to].creditsOwned += _amount;\r\n        emit CreditTraded(msg.sender, _to, _amount);\r\n    }\r\n\r\n    //  Borrow credits (compliance borrowing)\r\n    function borrowCredits(address _to, uint _amount) external {\r\n        require(_amount > 0 && industries[msg.sender].creditsOwned > _amount, \"Invalid borrow amount\");\r\n        industries[_to].creditsOwned += _amount;\r\n        industries[msg.sender].creditsOwned -= _amount;\r\n    }\r\n\r\n    //  View borrowed credits\r\n    function viewBorrowedCredits(address _industry) external view returns (uint) {\r\n        return industries[_industry].creditsOwned;\r\n    }\r\n}\r\n",
  "sourcePath": "/mnt/c/Users/NSL/Downloads/K-ETS/contracts/KETSBlockchain.sol",
  "compiler": {
    "name": "solc",
    "version": "0.8.10+commit.fc410830.Emscripten.clang"
  },
  "schemaVersion": "3.4.16",
  "updatedAt": "2025-02-11T13:41:20.156Z",
  "devdoc": {
    "kind": "dev",
    "methods": {},
    "version": 1
  },
  "userdoc": {
    "kind": "user",
    "methods": {},
    "version": 1
  }
}